:020000040800F2
:10000000600C00209D0100088B300008012B0008C7
:1000100089300008E9050008B13800080000000038
:1000200000000000000000000000000005010008C2
:10003000E70800080000000049010008A933000893
:10004000B7010008B7010008B7010008B7010008B0
:10005000B7010008B7010008B7010008B7010008A0
:10006000B7010008B7010008B7010008B10800088F
:10007000B7010008B7010008B7010008B701000880
:10008000B7010008B701000859020008B7010008CD
:10009000B7010008B7010008B7010008B701000860
:1000A000B701000841340008B7010008B701000893
:1000B000B70100084D340008B7010008B701000877
:1000C000B7010008B7010008B7010008B701000830
:1000D000B701000805370008B7010008B70100089C
:1000E0002D0D0008B7010008B7010008DFF810D097
:1000F00000F0A0F800480047713B0008AFF3008013
:10010000600C0020224B19680868B0E8F00F80F3FB
:100110000988BFF36F8F4FF0000080F311884EF015
:100120000D0E70470000000006480068006880F36C
:10013000088862B661B6BFF34F8FBFF36F8F00DFE1
:1001400000BF00BF08ED00E0EFF30980BFF36F8F41
:100150000F4B1A6820E9F00F106008B54FF05000FF
:1001600080F31188BFF34F8FBFF36F8F03F09CFDB7
:100170004FF0000080F31188BDE808401968086856
:10018000B0E8F00F80F30988BFF36F8F704700BFAE
:1001900014000020EFF305807047000006488047F8
:1001A00006480047FEE7FEE7FEE7FEE7FEE7FEE75C
:1001B000FEE7FEE7FEE7FEE73F340008ED0000083B
:1001C000D2B201E000F8012B491EFBD27047002299
:1001D000F6E710B513460A4604461946FFF7F0FF46
:1001E000204610BD30B505462A460B4612F8010BD5
:1001F00013F8014B08B1A042F8D01CB1002802D07E
:100200006D1CF1E7284630BD30B50B460146002095
:100210002022012409E021FA02F59D4205D303FAC8
:1002200002F5491B04FA02F52844151EA2F1010249
:10023000F1DC30BD064C074D06E0E06840F00103FC
:1002400094E8070098471034AC42F6D3FFF752FF0A
:10025000FC4500081C460008014800F061BE000093
:100260006400002070B5044600688168C943C9076E
:100270001CD1816821F00101816001F0BBFA0546C3
:100280000FE000BF01F0B6FA401B022809D9A06AAE
:1002900040F01000A062E06A40F00100E06201203E
:1002A00070BD20688068C043C007EBD0002070BDDF
:1002B00010B50146406A826A12F0500F05D0006AFC
:1002C000026BBDE8104008461047816A41F4007196
:1002D000816201688968C1F3424107290CD1017B21
:1002E00051B9816A21F480718162816AC90403D4A1
:1002F000816A41F00101816200F00AFE10BD10B573
:10030000406A816A41F040018162C16A41F00401A2
:10031000C16200F004FE10BD10B5406A00F0FEFDA1
:1003200010BD0000F8B500260446009600688168FC
:10033000C943C90728D0816841F001018160134891
:1003400013490068B0FBF1F000E0401E0090002867
:10035000FBD101F04FFA054611E000BF01F04AFA67
:10036000401B02280BD9A06A40F01000A062E06A8E
:1003700040F00100E06284F824600120F8BD2068AC
:100380008068C043C007E9D10020F8BD10000020FC
:1003900040420F0070B53A4D00242021284601F05C
:1003A0001CFA322001F004F9641C0A2CF5DB35A09C
:1003B00003F0ACFA02F097FE012803D036A003F058
:1003C000A5FA3EE039A003F0A1FA01233CA20021E6
:1003D0001E2002F05BFF01233DA21946052002F01A
:1003E00055FF404800F0B0FC28B13FA003F08EFA62
:1003F000012341A20AE0052243493A4800F0F6FEF3
:1004000030B142A003F082FA012345A2022115E097
:1004100048490020087048A003F078FA01234BA255
:100420000221052002F032FF00F0F4FA01280AD080
:100430004BA003F06BFA01234EA20321052002F02A
:1004400025FF00F077FC50A003F060FA012354A2CE
:100450000321052002F01AFF00F0FAF956A003F07C
:1004600055FA01235AA20421052002F00FFF02F0E1
:100470000DFE2C210A2000F0B9F85A48006870BD22
:10048000000801404C454420696E6974207375630F
:10049000636573730D0A00004F4C454420696E6913
:1004A00074206661696C0D0A000000004F4C4544E1
:1004B00020696E697420737563636573730D0A0038
:1004C00073746172742042535020696E6974000025
:1004D0004F4C454420696E6974207375636365737E
:1004E000730000006400002041444320696E697479
:1004F000206661696C0D0A0041444320696E69748D
:10050000206661696C0000005608002041444320C9
:10051000444D4120696E6974206661696C0D0A0062
:1005200041444320444D4120696E697420666169ED
:100530006C0000005200002041444320696E697441
:1005400020737563636573730D0A00004144432093
:10055000696E6974207375636365737300000000CE
:100560004553503832363620696E697420666169A9
:100570006C0D0A006573703832363620696E697406
:10058000206661696C0000004553503832363620D1
:10059000696E697420737563636573730D0A000077
:1005A0006573703832363620696E697420737563EE
:1005B0006365737300000000445448313120696E54
:1005C000697420737563636573730D0A000000001E
:1005D000445448313120696E6974207375636365D2
:1005E0007373000000000020FEE7000070B50E46A7
:1005F00004460A4D08E02021284601F0EEF8304676
:1006000000F0D6FF641EE4B2002CF4D12846BDE809
:1006100070400022202101F0E8B8000000080140ED
:1006200070B529A003F072F90124002500F0C6F985
:10063000012843D1002000F0BBFA01283ED105E09B
:100640002FA132A06D1C00F011FA04462CA12FA09E
:1006500000F00CFA08B90A2DF2DB012C14D10025A8
:1006600007E02CA32FA233A108206D1C00F032FB61
:10067000044628A32BA22FA1082000F02BFB08B9C9
:100680000A2DEEDB012C01D0204670BD2DA238A131
:100690003CA000F063FA012810D13CA000F024FA3D
:1006A00001280BD140F25B7143A000F0FDF9012855
:1006B00004D14EA000F036FA012801D0FF2070BD11
:1006C00057A003F023F9DFE754686520496E74658D
:1006D000726E6574206F66205468696E677320635C
:1006E0006C6F756420706C6174666F726D206973D5
:1006F00020636F6E6E65637465640D0A0000000010
:100700003132333435363738393000006E6F766128
:100710003700000075732E706F6F6C2E6E74702E24
:100720006F7267006E74702E736A74752E656475CF
:100730002E636E00636E2E6E74702E6F72672E6362
:100740006E00000042323130444439463734393289
:1007500038384145374638413438354630414241D2
:1007600030433043303536373741393100000000EF
:10077000746573745F302668356662345851684F0B
:100780006F440000313233343536000031323334B7
:1007900035367C7365637572656D6F64653D335C7A
:1007A0002C7369676E6D6574686F643D686D616315
:1007B000736861317C0000006835666234585168A6
:1007C0004F6F442E696F742D61732D6D7174742E8B
:1007D000636E2D7368616E676861692E616C6979FB
:1007E000756E63732E636F6D000000002F73797355
:1007F0002F68356662345851684F6F442F746573A3
:10080000745F302F7468696E672F736572766963E1
:10081000652F70726F70657274792F736574000044
:1008200054686520636C6F756420706C6174666FCA
:10083000726D206973207375636365737366756C7D
:100840006C7920636F6E6E65637465640D0A0000D9
:1008500010B500F009F800F055F804464FF47A702E
:1008600000F0A6FE204610BD1FB500200290042017
:1008700000900120019003200C4C03906946204613
:1008800000F0B6FE00220421204600F0AEFF142046
:1008900000F08EFE01220421204600F0A6FF04B0E5
:1008A0001E20BDE8104000F01FB8000000100140FD
:1008B000014800F06DBD00009400002030B590F8B4
:1008C00040500124AC40C56B6C60046863604368B1
:1008D000102B036803D099600068C26030BD9A6035
:1008E0000068C16030BD704710B5044601F05AFB86
:1008F0000349B0FBF1F16143491EFDD210BD000078
:1009000060EC53007FB5002401260420164DCDE98C
:100910000264009001946946284600F069FE04E0F4
:10092000641CE4B20120FFF7DFFF0421284600F039
:100930004FFF10B1642CF3D30EE0642C0CD204E012
:10094000641CE4B20120FFF7CFFF0421284600F029
:100950003FFF20B1642C05D3FF2004B070BD642C90
:10096000EED3F9E73046F8E70010014070B50D46C8
:10097000044602F08BFB0123224619460A2002F0AE
:1009800085FC08B1012400E00024012D4FF0010393
:1009900008D006A206211E2002F078FC20B11CB16E
:1009A000012070BD03A2F5E7002070BD6661696C8F
:1009B00000000000737563636573730070B50125F3
:1009C00000244FF47A7000F0F3FD4FF4FA763346CA
:1009D000002208A108A000F031F918B109A002F026
:1009E00095FF04E0641CE4B200250A2CEFD32846EE
:1009F00070BD00004F4B000041542B524553544FE3
:100A000052450000524553544F5245204F4B0D0A5A
:100A10000000000070B5012400F0FAF8012800D0B1
:100A2000FF24012251030D4800F0DFFE0C4801F0C5
:100A300027FD00B1FF2401252A460A490A4801F092
:100A4000DBFF00B1FF2508480068C16841F01001D4
:100A5000C160012D00D0FF24204670BD000C014074
:100A60002C010020500000207401002000B59FB030
:100A70000B46024606A1684602F058FF41F2883351
:100A8000002208A1684600F0D9F81FB000BD0000A0
:100A900041542B43574A41503D222573222C222595
:100AA000732200004F4B000000B59FB00B4602467A
:100AB00006A1684602F03AFF4FF4FA73002209A13A
:100AC000684600F0BBF81FB000BD000041542B4D3C
:100AD000515454434F4E4E3D302C222573222C2529
:100AE000642C30004F4B000000B59FB0024606A1B9
:100AF000684602F01BFF4FF4FA73002208A1684613
:100B000000F09CF81FB000BD41542B4D515454438C
:100B10004C49454E5449443D302C22257322000057
:100B20004F4B000000B59FB0024606A1684602F098
:100B3000FDFE4FF4FA73002207A1684600F07EF82C
:100B40001FB000BD41542B4D5154545355423D30BC
:100B50002C222573222C31004F4B000000B59FB092
:100B60000B460092024606A101A802F0DFFE4FF4F8
:100B7000FA7300220DA101A800F060F81FB000BDBB
:100B800041542B4D515454555345524346473D30E3
:100B90002C312C222573222C222573222C22257302
:100BA000222C302C302C2222000000004F4B000061
:100BB00040F6C41328B1012807D0022809D000202C
:100BC000704706A208A109A006E004A206A10AA097
:100BD00002E002A204A10BA000F030B86E6F206307
:100BE00068616E67650000004F4B000041542B4365
:100BF000574D4F44453D310041542B43574D4F44D1
:100C0000453D320041542B43574D4F44453D330041
:100C100070B50124084E250300222946304600F015
:100C2000E4FD4FF4FA7000F0C3FC0122294630467F
:100C300000F0DBFD204670BD000C01402DE9F041C5
:100C4000214C0E469846B4F80014154601276FF360
:100C50000E01A4F80014B4F8001421F40041A4F823
:100C60000014014619A002F08DFD012800D0FF27D5
:100C700056EA050015D008F57A7000F099FCB4F832
:100C800000140020C1F30E0160540F490FA002F0C0
:100C90003DFE76B131466DB10B48FFF7A3FA70B94E
:100CA00002E03846BDE8F08129460748FFF79AFA86
:100CB00004E029460448FFF795FAC0B208B10120C4
:100CC000F0E7FF20EEE700005404002025730D0A32
:100CD0000000000010B5A0B00124CDE900230B46B0
:100CE000024608A102A802F021FE4FF4FA63002296
:100CF0000DA102A8FFF7A2FF012800D0FF2420B019
:100D0000204610BD41542B434950534E5450434646
:100D1000473D312C25642C222573222C2225732259
:100D20002C222573220000004F4B00004FF400508E
:100D300000F052BCBC210A20FFF758FCD0210A2049
:100D4000FFF754FCF6E70000F8B5002504460095CF
:100D500090F82400012808D0012084F824002046BF
:100D6000FFF780FA060002D04BE00220F8BDA06A2F
:100D700020F4885040F00200A062022000F082FFC0
:100D800022490968B1FBF0F0400000E0401E0090ED
:100D90000028FBD12046FFF7C5FA2068816841F0A2
:100DA0000801816000F026FD074604E000F022FD06
:100DB000C01B0A2811D8206880680007F6D4206874
:100DC000816841F00401816000F014FD07460EE0E7
:100DD00000F010FDC01B0A2809D9A06A20F002000B
:100DE00040F01000A06284F824500120F8BD206873
:100DF00080684007ECD4A06A20F0020040F00100B7
:100E0000A06284F824503046F8BD00001000002095
:100E100070470000F8B50024009490F8242025467F
:100E2000012A12D0012280F824204A681F23072AB1
:100E30000DD20668776B521E02EB820293409F43ED
:100E40000B6893401F43776319E00220F8BD0668E2
:100E50000D2A0AD2376BD21F02EB820293409F43C6
:100E60000B6893401F43376309E0F76A0D3A02EBC2
:100E7000820293409F430B6893401F43F7620A68C6
:100E8000072306680A2A0AD3F7680A3A02EB4202E5
:100E900093409F438B6893401F43F76008E0376996
:100EA00002EB420293409F438B6893401F4337619C
:100EB0000A68102A01D0112A20D1124B02689A42E6
:100EC00017D193681B0219D4936843F4000393600D
:100ED0000968102912D10C490C4A0968B1FBF2F1DA
:100EE00001EB8101490000E0491E00910029FBD17E
:100EF00004E0816A41F020018162012480F82450DD
:100F00002046F8BD002401401000002040420F00A0
:100F10000149012008707047520000207047704757
:100F200010B5044600684168890626D5016889071E
:100F300023D5A16AC90603D4A16A41F40071A16254
:100F40008168C1F34241072910D1217B71B9416801
:100F500021F020014160A06A20F48070A062A06AA4
:100F6000C00403D4A06A40F00100A0622046FFF74D
:100F7000CFFF21686FF01200086020684168090601
:100F80002ED5016849072BD5A16AC90603D4A16AE9
:100F900041F40051A1628168C1F30231072909D0EF
:100FA0004168490515D48168C1F34241072910D130
:100FB000217B71B9416821F080014160A06A20F471
:100FC0008050A062A06AC00503D4A06A40F001006E
:100FD000A0622046FFF71CFF21686FF00C0008603C
:100FE0002068416849060DD50068C0070AD0A06A8C
:100FF00040F48030A062204600F094F821686FF041
:101000000100086010BD00002DE9F0414FF000071D
:1010100004003D467ED0A06A002628B9E66284F826
:101020002460204600F080F82046FFF71BF9A16AF3
:10103000C90600D420B1A06A40F01000A06269E0A7
:10104000A16A21F4885141F00201A1626268E1695C
:10105000237B0A4347EA43010A43A1684FF48077A0
:10106000B94209D0012907D05FF0000194F814C0FB
:10107000BCF1010F02D00AE03946F7E7F3B1A36AE9
:1010800043F02003A362E36A43F00103E3622368B1
:10109000D3F804C02CF4694C4CEA010CC3F804C02A
:1010A00021688B68DFF870C003EA0C0313438B6080
:1010B000A168B9420BD0012909D00CE0DFF85CC06F
:1010C000A3690CEB43330B4343F40061DFE7218A50
:1010D0000D05A5F580152168CB6A23F470032B4319
:1010E000CB62216889680E4B1940914208D1E662B3
:1010F000A16A21F0020141F00101A162BDE8F08185
:10110000A06A20F0020040F01000A062E06A40F007
:101110000100E0620120F1E7FDF7E1FF00E0FFFFE1
:10112000FE0E1FFF7047000070B586B00026054612
:10113000009601960296039600682649884246D199
:101140002549886940F400708861886900F400705E
:101150000490886940F004008861886900F0040008
:101160000490886940F0080088618869032400F0D1
:1011700008000490D020CDE900046946174800F02B
:1011800037FA0120CDE900046946154800F030FA2D
:10119000154C1448C4E900068020C4E902604000F0
:1011A0002061800060612020A0610002E061204693
:1011B00000F098F908B1FFF7BDFD2C62002205216F
:1011C0001220656200F02CFD122000F01BFD06B01D
:1011D00070BD0000002401400010024000080140E2
:1011E000000C014008000240940000202DE9F04767
:1011F000894604463B4900683B4F0E1D9046884295
:1012000001D0B84207D1306810F4702F03D0012507
:101210002846BDE8F08794F8240001280CD001206E
:1012200084F824002046FFF77DF805004FF0000009
:1012300004D084F82400EBE70220EAE7A16A40F634
:101240000162914341F48071A1622168B94218D1D1
:10125000326812F4702F14D0A16A41F48011A16297
:101260003168490505D5A16A21F4005141F4805146
:10127000A162A16AC9040AD5E16A21F00601E1620E
:1012800006E0A26A22F48012A2624968E9E7E062FD
:1012900084F82400216A15488862216A1448C862CB
:1012A000216A1448086321686FF002000860206812
:1012B000816841F480718160216843464A464C311F
:1012C000206A00F03DF920688168C1F34241072996
:1012D000816803D041F48011816099E741F4A00155
:1012E000FAE700000024014000280140B102000894
:1012F00019030008FF02000810B590F8211000241F
:10130000022903D00421816301243DE001680A68B9
:1013100022F00E020A6001680A6822F001020A60E7
:101320001A4A0168914201D1012121E0174A143281
:10133000914201D110211BE0144A2832914201D17F
:10134000891515E0114A3C32914201D189140FE010
:101350000E4A5032914202D14FF4803108E00B4ADC
:101360006432914202D14FF4801101E04FF080715C
:10137000064A083A5160012180F82110002180F8C6
:101380002010416B01B18847204610BD0800024083
:101390002DE9F05FC16B0C6801680B68D0F840C0A4
:1013A000042202FA0CF2494DDFF824A1494E4A4FBB
:1013B000DFF828B1DFF828E122422CD05A072AD5DD
:1013C0000A68920603D40A6822F004020A600168DF
:1013D000A94201D1042219E0514501D1402215E072
:1013E000B14202D14FF4806210E0B94202D14FF411
:1013F00080420BE0594502D14FF4802206E071454E
:1014000002D14FF4800201E04FF080622F49083989
:101410004A60C16A3BE04FF0020808FA0CF818EA8B
:10142000040F4FF000094FF0010235D05FEA8378D6
:1014300032D50B689B0605D40B6823F00A030B60BA
:1014400080F821200168A94201D1022219E051450A
:1014500001D1202215E0B14202D14FF4007210E018
:10146000B94202D14FF400520BE0594502D14FF47A
:10147000003206E0714502D14FF4001201E04FF056
:101480000072124908394A6080F82090816A002968
:101490001AD0BDE8F05F0847082505FA0CF525428B
:1014A00012D01B0710D50B6823F00E030B6090F8C9
:1014B0004010C36B02FA01F15960826380F8212069
:1014C00080F82090016BE2E7BDE8F09F0800024041
:1014D0001C0002403000024044000240580002401C
:1014E0006C00024030B528B308C8134914221944CF
:1014F000B1FBF2F18900C163104981630221417798
:101500001A6843F6F0718A43D0E900142143D0E908
:1015100002452C43214304692143446921438469E2
:101520002143114319600021416301224277017771
:10153000084630BD012030BDF8FFFDBF000002406D
:1015400070B5044690F82000002501280CD0012039
:1015500084F8200094F821600020012E06D084F841
:1015600020000225284670BD022070BD022684F8A6
:101570002160A0632068066826F001060660204608
:10158000FFF79CF9E06A00282068016802D041F06A
:101590000E0106E021F0040101602068016841F0BD
:1015A0000A0101602068016841F001010160D9E78A
:1015B00070B5044600F01EF90546601C02D00448D0
:1015C0000078044400F016F9401BA042FAD370BD25
:1015D0000400002070470000044910B50A68024268
:1015E00002D00860FFF7F6FF10BD000014040140B0
:1015F0002DE9F84FDFF8B891002409F1040A0AF147
:10160000040B23460F270BF1040EC9E00125A5406A
:101610002A40AA427DD1674ED1F804C0ACEB06083F
:10162000B44532D014DCBCF1030F3AD009DCBCF174
:10163000000F2AD0BCF1010F1CD0BCF1020F31D138
:101640001DE0BCF1110F17D0BCF1120F2AD119E027
:10165000B8F5881F19D006DCB8F5803F15D0B8F56D
:10166000801F1FD111E0B8F5001F0ED0B8F5041F80
:1016700018D10AE0CB6815E0CB681B1D12E0CB68DF
:1016800008330FE0CB680C330CE08B682BB1012BD7
:101690004FF0080303D0456104E0042302E0056134
:1016A00000E00023FF2A01D8064601E000F104060D
:1016B0004FEA840501D9A5F12005D6F8008007FA84
:1016C00005FC28EA0C0803FA05F548EA0508C6F8FF
:1016D00000804D68ED0062D5374DAE6946F00106D9
:1016E000AE61AD6924F0030605F001050095334DA8
:1016F00006EB050CDCF80850A607360F07FA06F8CB
:1017000025EA0805DFF8B880404503D14FF000080E
:1017100017E044E0DFF8AC80404502D14FF001080B
:101720000FE0DFF8A480404502D14FF0020808E046
:10173000DFF89880404502D14FF0030801E04FF0F8
:10174000040808FA06F848EA0508CCF808804D684D
:10175000D9F80060ED034D4601D5164300E09643ED
:101760002E604D68DAF80060AD03554601D516438A
:1017700000E096432E604D68DBF80060ED025D46A8
:1017800001D5164300E096432E604D68DEF80060F8
:10179000AD02754601D5164300E096432E60641CE9
:1017A0000D682A46E5407FF431AFBDE8F88F0000B0
:1017B0000004014000001110001002400000014030
:1017C00000080140000C01400010014000140140DD
:1017D0008068084000D001207047C26821EA0203F7
:1017E0000A4043EA0241016170470AB10161704752
:1017F0000904FBE7014880687047000004000020EE
:1018000070B5040025D094F83D00002520B984F877
:101810003C50204600F050F9242084F83D00206818
:10182000016821F0010101602068016841F4004174
:1018300001602068016821F40041016000F0B8FBFC
:101840004D4A6168914201D84C4900E04C498842B8
:1018500001D2012070BD4B492368B0FBF1F15E68F5
:1018600026F03F060E435E606368934206D94FF44C
:10187000967359434FF47A73B1FBF3F12368491C13
:101880001E6A26F03F06314319626168914210D802
:101890004900401EB0FBF1F2521CC2F30B02042AB5
:1018A00001D2042022E0B0FBF1F0401CC0F30B0099
:1018B0001CE0A268F2B301EBC10303EB0116431E67
:1018C000B3FBF6F35B1C43F480431B0549D092B392
:1018D00001EBC10202EB0111401EB0FBF1F0401C14
:1018E000C0F30B0040F4804040F400402168CA6916
:1018F0004CF6FF739A431043C861D4E907100143C3
:101900002068026822F0C00211430160D4E903019B
:1019100001432068826848F2FF339A431143816093
:10192000D4E9050108432168CA6822F0FF02104388
:10193000C86001E00EE016E02068016841F0010196
:1019400001602564202084F83D00256384F83E5022
:10195000002070BD01EB4106431EB3FBF6F35B1C98
:10196000B3E70120C2E701EB4101401EB0FBF1F0FB
:10197000401CC0F30B00B7E7A086010080841E0066
:1019800000093D0040420F002DE9FF4F83B09A4609
:10199000DDE9119793460446DDF84080FFF72AFF02
:1019A000054694F83D0020287FD1192301224049A3
:1019B0002046009501F036F9002876D194F83C00D5
:1019C000012872D0012084F83C0020680168C90712
:1019D00003D1016841F0010101602068016821F430
:1019E00000610160212084F83D00402084F83E0021
:1019F00000262664C4F82480A4F82A90608D2085EF
:101A00002C48E062CDE9007553465A4620460499B9
:101A100001F08EF870B930E02A463946204601F0D0
:101A200080F958B1206C042804D12068016841F481
:101A300000710160012007B0BDE8F08F606A216885
:101A400000780861606A401C6062218D491E89B27D
:101A50002185628D521E628522685369DB435B07D4
:101A60000BD469B100781061606A401C6062208DFF
:101A7000401E2085608D401E6085208D0028CBD1C2
:101A80002A463946204601F0A7F80028CAD154F862
:101A90003D0B016841F400710160202004F81E092B
:101AA000E67766770020C6E7FFE70220C3E700007D
:101AB000020010000000FFFF10B586B00021009169
:101AC00001910291039100680F4988421AD10F4C8D
:101AD000A06940F00800A061A069694600F0080014
:101AE0000490C02000901220019003200390084829
:101AF000FFF77EFDE06940F40010E061E06900F46A
:101B00000010049006B010BD0054004000100240C8
:101B1000000C0140024881680278114481607047DE
:101B200004000020074810B5016841F01001016071
:101B3000032000F095F8002000F006F800F03EF8D1
:101B4000002010BD0020024000B5014687B00022F1
:101B5000192000F065F8192000F054F81348816945
:101B600041F400618161806905A900F4006006907C
:101B7000684600F0F7F900F02BFA0D494000B0FB81
:101B8000F1F10D480B4A491E0260416040F2E73214
:101B90000021C0E90321816000F026FC10B1012082
:101BA00007B000BD044800F06BFCF9E700100240EC
:101BB00040420F00002C0140400200200F4808B5B1
:101BC000816941F001018161816901F001010091A8
:101BD000C16941F08051C161C069002200F08050AC
:101BE00000900F21901E00F01BF80548416821F07D
:101BF000E06141F00071416008BD0000001002404A
:101C000000000140002809DB00F01F020121914083
:101C10004009800000F1E020C0F80011704700008A
:101C2000F0B40E4B1B680C46C3F30223C3F1070547
:101C3000042D00D90425191D072901D2002300E035
:101C4000DB1E012606FA05F1491E214099409E40FF
:101C5000761E16403143F0BC01F07CBE0CED00E076
:101C6000064900F0070208684FF6FF03184040EAF3
:101C70000220034A10430860704700000CED00E0AA
:101C80000000FA0510B529A401461DCC86B08DE8E8
:101C90001D002AA02A4C006804900020012923D0AE
:101CA00002293AD010291DD161682268D20119D5C4
:101CB000C1F38342C9031DF8020009D5616804AA73
:101CC000C1F34041515C1F4AB2FBF1F1484301E0CE
:101CD0001D4948436168490204D440005FF0030194
:101CE000B0FBF1F006B010BD226AC2F30121012958
:101CF00003D1920701D5C803F4E7022905D1626A2E
:101D0000920702D549F64040ECE70329EAD1216861
:101D10008903E7D54FF22440E4E700F059F9616800
:101D2000C1F38131491C4900DAE7000002030405D0
:101D3000060708090A0B0C0D0E0F10100102000017
:101D40000010024000127A0000093D002DE9F8431E
:101D500005460078354CC00754D0E0690026C00025
:101D600008D4E06940F08050E061E069012600F0AD
:101D7000805000902E480168C90512D40168804641
:101D800041F480710160FFF735FD074605E000BFB3
:101D9000FFF730FDC01B642823D8D8F80000C00529
:101DA000F6D5206A10F4407021D0A98801F4407162
:101DB00081421CD0206A1F49012220F440700A6031
:101DC00000220A602062C00711D0FFF713FD07460A
:101DD00041F2883808E000BFFFF70CFDC11B414508
:101DE00002D90320BDE8F883206A8007F4D5206A71
:101DF000696820F44070084320621EB1E06920F059
:101E00008050E0612878800705D56068A96820F4D3
:101E10004040084360602878C00605D56068E968DE
:101E200020F48000084360600020DBE700100240DF
:101E300000700040400442422DE9F0470F46050083
:101E400061D0434E306800F00700B84209D23068D4
:101E500020F0070038433060306800F00700B842D7
:101E600051D128683B4C810712D5400703D56068E3
:101E700040F4E06060602878000703D5606840F4B3
:101E8000605060606068A96820F0F00008436060FE
:101E90002878C00728D06868012810D02168022857
:101EA00010D0890700292EDA616821F0030101436F
:101EB0006160FFF79FFC804641F288390DE02168A0
:101EC0008903EFE78901EDE7FFF794FCA0EB080138
:101ED000494502D90320BDE8F0876068696800F0D1
:101EE0000C00B0EB810FEFD1306800F00700B84272
:101EF0000BD9306820F0070038433060306800F0BC
:101F00000700B84201D00120E5E72878400705D551
:101F10006068E96820F4E0600843606028780007A2
:101F200006D56068296920F4605040EAC10060600D
:101F300000F05EF86168084AC1F30311515CC840C3
:101F40000649086006480068FFF7FEFD0020C2E76A
:101F50000020024000100240CC3D0008100000208C
:101F6000080000200F2202600C4A536803F00303AC
:101F70004360536803F0F0038360536803F4E06345
:101F8000C36052684FF4E06303EAD202026104487E
:101F9000006800F007000860704700000010024071
:101FA0000020024001480068704700001000002037
:101FB0000448054900684968044AC1F30221515C9C
:101FC000C84070471000002000100240DC3D0008AF
:101FD0000448054900684968044AC1F3C221515CBC
:101FE000C84070471000002000100240DC3D00088F
:101FF00012A185B00FC98DE80F0014A0144A006823
:1020000004905168134801F00C03042B10D0082BE6
:102010000ED1C1F38343C9031DF803000AD55168EB
:1020200004AAC1F34041515C0A4A5043B0FBF1F0AD
:1020300005B0704708494843FAE700000203040569
:10204000060708090A0B0C0D0E0F10100102000004
:102050000010024000127A0000093D002DE9F84FFF
:10206000040070D02078C04DC00749D06868C0F324
:102070008100012807D06868C0F38100022809D1D7
:102080006868C00306D52868800339D560680028D1
:10209000E7D035E06068B0F5803F0BD010B1B0F507
:1020A000A02F11D0286820F480302860286820F400
:1020B000802002E0286840F480302860606890B199
:1020C000FFF798FB06460AE0286840F48020286065
:1020D000F0E700BFFFF78EFB801B642873D82868E9
:1020E0008003F7D50CE0FFF785FB064605E000BF4F
:1020F000FFF780FB801B6428F0D828688003F7D4A2
:1021000020789A4E80074FF001094FF0000839D52A
:10211000686810F00C0F07D06868C0F381000228CF
:1021200009D16868C00306D42868800714D52069DF
:10213000012808D110E02069B0B1C6F80090FFF77F
:1021400059FB074605E00AE1FFF754FBC01B0228D4
:10215000C4D828688007F7D52868616920F0F8009E
:1021600040EAC10028600DE0C6F80080FFF742FB9E
:10217000074604E0FFF73EFBC01B022823D828686F
:102180008007F7D4207800072CD57948A169D9B108
:10219000C0F80090FFF72EFB074604E0FFF72AFB8C
:1021A000C01B02280FD8686A8007F7D571484FF422
:1021B000FA510068B0FBF1F0009000BF0098411E9A
:1021C0000091FAD20EE080E0C0F80080FFF712FB29
:1021D000074604E0FFF70EFBC01B022875D8686AAB
:1021E0008007F7D42078400760D5E8690027C00051
:1021F00008D4E86940F08050E861E869012700F000
:10220000805000905C480168C90513D4016883467A
:1022100041F480710160FFF7EDFA824606E000BFED
:10222000FFF7E8FAA0EB0A0064284ED8DBF80000BC
:10223000C005F5D5E06801280AD008B1052813D0FB
:10224000286A20F001002862286A20F0040002E0D9
:10225000286A40F001002862E06841F2883B98B1AA
:10226000FFF7C8FA82460BE0286A40F004002862B3
:10227000EEE700BFFFF7BEFAA0EB0A0159455AD8B6
:10228000286A8007F6D50CE0FFF7B4FA824605E02D
:10229000FFF7B0FAA0EB0A0159454CD8286A80072D
:1022A000F6D41FB1E86920F08050E861E06988B396
:1022B0006968C1F38101022944D00228C6F8608010
:1022C00004D0FFF797FA044638E034E0FFF792FABB
:1022D000074604E0FFF78EFAC01B02282BD82868B7
:1022E0008001F7D4206AB0F5803F05D16868A16805
:1022F00020F4003008436860D4E9080108436968A5
:1023000021F4741108436860C6F86090FFF772FA10
:10231000044606E025E000BFFFF76CFA001B022828
:1023200009D828688001F7D51BE000BFFFF762FAE3
:10233000001B022802D90320BDE8F88F286880011D
:10234000F4D40EE00128F7D06868226A00F48031E6
:10235000914204D1616A00F47010884201D00120DA
:10236000EAE70020E8E700000010024000004242D7
:102370008004424210000020007000407047704707
:1023800070B590F83C20012A26D0012480F83C400A
:10239000022280F83D2003685A689D6822F070068A
:1023A0000A6832435A600D4B02689A4208D0B2F173
:1023B000804F05D00A4B9A4202D00A4B9A4204D170
:1023C000496825F080031943916080F83D40002161
:1023D00080F83C10084670BD022070BD002C014002
:1023E000000400400008004010B5040003D094F839
:1023F0003D0010B107E0012010BD002084F83C0032
:10240000204600F01FF8022084F83D00211D2068BE
:1024100001F022F8012084F8460084F83E0084F898
:102420003F0084F8400084F8410084F8420084F8BA
:10243000430084F8440084F8450084F83D000020FF
:1024400010BD000008B500680B49884212D10B4846
:10245000C16941F00201C161C069002200F00200BF
:10246000009005211D20FFF7DBFBBDE808401D2083
:10247000FFF7C8BB08BD0000000400400010024088
:1024800090F83D10012901D001207047022180F809
:102490003D100168CA6842F00102CA6000680B4939
:1024A000884208D0B0F1804F05D00949884202D057
:1024B0000849884204D1816801F00701062903D048
:1024C000016841F00101016000207047002C0140CB
:1024D000000400400008004070B5044690F83C003D
:1024E000012817D0012584F83C50022084F83D00D3
:1024F0002068826822F0770222F47F4282600868B6
:10250000502830D00DDC20284DD005DC98B31028A1
:102510003BD148E0022070BD302844D0402834D15F
:1025200039E0602828D0702806D0B0F5805F2CD024
:10253000B0F5005F29D10AE0CB68D1E9012120681C
:1025400000F0C0FF2068816841F0770109E0CB68A6
:10255000D1E90121206800F0B5FF2068816841F4CD
:102560008041816011E0CA684968206800F0BCFFC2
:102570005021206807E016E0CA684968206800F02A
:10258000C4FF6021206800F0A7FF84F83D500020C0
:1025900084F83C0070BDCA684968206800F0A4FF58
:1025A00040212068EFE7226801461046EBE77047BC
:1025B00070B50446006801694FF00005C9438907FA
:1025C00015D4C168C943890711D4E91E01610120EE
:1025D0002077206880698007204602D0FFF7E7FF58
:1025E00004E000F098F8204600F096F8257720687F
:1025F0000169C943490717D4C168C943490713D4BE
:102600006FF004010161022020772068806910F4D6
:10261000407F204602D0FFF7CAFF04E000F07BF8BD
:10262000204600F079F8257720680169C943090739
:1026300016D4C168C943090712D46FF008010161BB
:10264000042020772068C0698007204602D0FFF769
:10265000AEFF04E000F05FF8204600F05DF825775B
:1026600020680169C943C90617D4C168C943C906AE
:1026700013D46FF010010161082020772068C06931
:1026800010F4407F204602D0FFF791FF04E000F0F5
:1026900042F8204600F040F8257720680169C943D8
:1026A000C90708D1C168C943C90704D1891E01619E
:1026B000204600F033F820680169C943090609D4AF
:1026C000C168C943090605D46FF080010161204645
:1026D000FFF754FE20680169C943490609D4C1685F
:1026E000C943490605D46FF040010161204600F05E
:1026F0001FF820680169C94389060BD4C168C94322
:10270000890607D46FF0200101612046BDE87040C2
:10271000FFF735BE70BD7047704700000068034981
:10272000884201D1FFF7F6B970470000002C014044
:102730007047704770B5026804461068D1685369E5
:1027400010F00F0F52D003F0010501F490762E43E4
:102750005FD0C20705D0CA0503D5226C42F0010242
:102760002264420705D5DA0703D0226C42F0020248
:102770002264820705D5DA0703D0226C42F00402F6
:102780002264020707D501F020022A4303D0226CFD
:1027900042F008022264226C002A33D0800604D55D
:1027A000880602D5204600F0D8FE20684069216CDA
:1027B000C0F38010090700D428B3204600F0BFFE04
:1027C0002068416949061AD5416921F040014161FB
:1027D000A06BA0B12D494163A06BFEF78DFD0028D1
:1027E00010D0A06B416BBDE870400847830610D540
:1027F0008B060ED52046BDE8704000F0AEBE2046E8
:10280000FFF797FF70BD2046FFF793FF002020647D
:1028100070BD03062BD50B0629D594F83D00212861
:10282000F6D1A068B0F5805F01D12069B0B1206A0F
:10283000411C2162216800784860E08C401E000441
:10284000000CE084E4D12068C16821F08001C160FF
:102850002068C16841F04001C16070BD206A0088F5
:10286000C0F308005060206A801C2062E5E7400643
:10287000F3D54806F1D5D168204621F04001D1605A
:10288000202184F83D1000F03AF970BD2F35000882
:1028900070B5040004D094F83D00002510B106E0A6
:1028A000012070BD84F83C50204600F023F824201D
:1028B00084F83D002068C16821F40051C1602046C1
:1028C00000F092FE2068016921F4904101612068C6
:1028D000416921F02A0141612068C16841F4005139
:1028E000C1602564202084F83D0084F83E0000206B
:1028F00070BD0000F0B585B00024009401940294EE
:10290000039403683848364F3649022203260515DA
:10291000BB4228D18B6943F480438B618B6903F4FC
:10292000804304938B6943F004038B6189690396A8
:1029300001F0040104914115CDE9001269460646F3
:10294000FEF756FECDE90054694630460294FEF784
:102950004FFE002207212520FFF762F92520FFF70F
:1029600051F905B0F0BD214FBB4215D1CB6943F4FD
:102970000033CB61CB6903F4003304938B6943F0DC
:1029800004038B618969039201F0040104910C2115
:10299000CDE90012694620E015488342E1D1C869BB
:1029A00040F48020C861C86900F4802004908869E0
:1029B00040F0080088618869CDE9005200F0080005
:1029C000CDE903600B4D69462846FEF711FEE81479
:1029D000CDE90004694628460294FEF709FEC0E7E7
:1029E000003801400010024000080140004400404F
:1029F00000480040000C014090F83E30202B22D1CE
:102A0000F9B1F2B190F83C30012B1CD08162828583
:102A1000C28500210164222280F83E2080F83C100B
:102A20000168CA6842F48072CA6001684A6942F06B
:102A300001024A610068C16841F02001C1600020C4
:102A40007047012070470220704770472DE9F84316
:102A5000044690F83D001F4616460D4620284CD1EE
:102A6000C5B1BEB194F83C00012846D0012084F8DD
:102A70003C004FF00008C4F84080212084F83D005D
:102A8000FEF7B8FEA6848146E684A068B0F5805FB4
:102A900003D004E00120BDE8F883206928B12E4668
:102AA0005FF0000584F83C800EE00026FAE7802104
:102AB000204600F0F5FDA0B9AEB116F8010B216873
:102AC0004860E08C401EE084E08C4B464FF00002F2
:102AD00000970028EBD14FF04001204600F0E0FDC8
:102AE00030B10320D7E735F8020BC0F30800E6E762
:102AF000202084F83D000020CDE70220CBE770477E
:102B0000FEE701684A69D24352050FD46FF4806230
:102B10004A61002140F8301F20224273817302690C
:102B200042F00402026101730120704700207047E7
:102B30002DE9F843044600680D46DDE90897016871
:102B40009846164641F4807101604B4600224FF0D2
:102B500001112046009700F065F848B12068006830
:102B6000C00502D54FF4007020640320BDE8F8834F
:102B7000216805F0FE0008613B464A46154920469B
:102B800000F084F888B920684169806900903A466D
:102B90004946204600F0C5F848B1206C042804D10D
:102BA0002068016841F4007101600120DEE7F5B2A0
:102BB000B8F1010F09D02168300A08613A46494648
:102BC000204600F0AEF80028E7D12068056100201B
:102BD000CCE700000200010070B516460D46044621
:102BE0000DE02046FFF78DFF08B1012070BD681C85
:102BF00005D0FEF7FFFD801BA84207D835B120683D
:102C00004069C0434007ECD4002070BD002044F868
:102C1000300F20216173A073216941F020012161EF
:102C20002073E2E72DE9F0471E4690460D46044624
:102C3000C1F30747DDF8209008E0701C06D0FEF7CE
:102C4000D9FDA0EB0900B0420FD876B12068012F62
:102C500018D0806925EA00000004000C14D000217F
:102C60004145EAD00020BDE8F087002044F8300F4D
:102C700020216173A073216941F02001216120733B
:102C80000120F0E74069E5E70121E9E72DE9F04798
:102C90009A4691460E46044600254FF02008C1F39F
:102CA000074725E020684069C043400514D42068E8
:102CB000016841F40071016021686FF4806048612F
:102CC000256384F83D8084F83E50206C40F0040079
:102CD000206484F83C501FE0B9F1FF3F08D0FEF7B4
:102CE00089FDA0EB0A0149450CD8B9F1000F09D0C4
:102CF0002068012F13D0806926EA00000004000C30
:102D00000BD0CFE744F8305F84F80D80A5732069BD
:102D100040F02000206125730120BDE8F087406964
:102D2000EAE770B516460D4604460DE02046FFF76B
:102D3000E8FE08B1012070BD681C05D0FEF75AFD01
:102D4000801BA84207D835B120684069C0430006FF
:102D5000ECD4002070BD002044F8300F20216173B6
:102D6000A073216941F0200121612073E2E7000096
:102D7000FEB50021274800910191254A0291026089
:102D800092158260017301240475052505614FF4D5
:102D900060224160C0E90642FEF736F908B1FDF74E
:102DA000C9FF0426CDE90064062469461948029447
:102DB000FEF730F808B1FDF7BDFF0220CDE9004075
:102DC00069461448FEF726F808B1FDF7B3FF07205F
:102DD00000900320019069460E48FEF71BF808B1E9
:102DE000FDF7A8FF0820CDE9000669460948FEF76F
:102DF00011F808B1FDF79EFF1120CDE900056946E5
:102E00000448FEF707F8002801D0FDF793FFFEBD48
:102E10000024014064000020094808B5416941F0E0
:102E2000010141614069002200F00100009006218B
:102E30000B20FEF7F5FEBDE808400B20FEF7E2BED2
:102E4000001002402DE9F04385B00024354800947D
:102E5000019402940394816941F0100181618169B8
:102E600001F010010491816941F0200181618169C3
:102E700001F020010491816941F0040181618169BF
:102E800001F004010491816941F0080181618069C8
:102E9000254F00F008000490002204213846FEF778
:102EA000A4FCDFF88880002220214046FEF79DFC2C
:102EB000DFF87C904FF44056002231464846FEF73A
:102EC00094FC781400901B48CDE90104694638460B
:102ED000FEF78EFB04200125CDE900050320CDE996
:102EE000024069463846FEF783FB2020CDE9000505
:102EF0000220CDE9024069464046FEF779FB009684
:102F0000CDE90154694648460395FEF771FB00225E
:102F10000C212820FEF784FE2820FEF773FE05B062
:102F2000BDE8F0830010024000100140000801409D
:102F3000000C0140000011100D4810B50B49016054
:102F40000C49416000214FF480428160C0E90312C6
:102F500041618161C1610162FEF752FC002803D02A
:102F6000BDE81040FDF7E6BE10BD00000054004073
:102F7000D8000020A086010010B586B000241748B4
:102F800000940194029403940494134905940160FD
:102F900040F60F61C0E901146321C0E903148461A4
:102FA000FFF722FA08B1FDF7C5FE4FF480500090FC
:102FB00069460A48FFF790FA08B1FDF7BBFE049492
:102FC00004A906480594FFF7DBF9002801D0FDF7B6
:102FD000B1FE06B010BD0000000400402C0100202E
:102FE0000C4810B50A4901604FF4E13141600021FD
:102FF00081600C22C160C0E904128161C161FFF7E8
:1030000047FC002803D0BDE81040FDF793BE10BD7B
:1030100000380140740100200C4810B50A490160D5
:103020004FF4E1314160002181600C22C160C0E9B0
:1030300004128161C161FFF72BFC002803D0BDE8B9
:103040001040FDF777BE10BD00440040B8010020DD
:103050000C4810B50A4901604FF4E131416000218C
:1030600081600C22C160C0E904128161C161FFF777
:103070000FFC002803D0BDE81040FDF75BBE10BD7B
:1030800000480040FC010020FEE7FEE70020AFF30F
:1030900000802DE9F0410746002404F1B000C0B2E1
:1030A00000F008FC48B1002000F004FC28B110201A
:1030B00000F000FC08B1012600E00026002538469B
:1030C00000F00EFC10B10EB1012600E000266D1CD0
:1030D000EDB2802DF3D31EB1641CE4B2082CDCD316
:1030E0003046BDE8F08110B54FF4FA70FEF760FA93
:1030F000AE2000F0DFFB002877D0202000F0DAFBC4
:10310000002872D0102000F0D5FB00286DD0B02030
:1031100000F0D0FB002868D0C82000F0CBFB0028CE
:1031200063D0002000F0C6FB00285ED0102000F025
:10313000C1FB002859D0402000F0BCFB002854D02F
:10314000812000F0B7FB00284FD0FF2000F0B2FB39
:10315000E8B3A12000F0AEFBC8B3A62000F0AAFBA4
:10316000A8B3A82000F0A6FB88B33F2000F0A2FB84
:1031700068B3A42000F09EFB48B3D32000F09AFB74
:1031800028B3002000F096FB08B3D52000F092FB96
:10319000E8B1F02000F08EFBC8B1D92000F08AFB26
:1031A000A8B1222000F086FB88B1DA2000F082FB73
:1031B00068B1122000F07EFB48B1DB2000F07AFB02
:1031C00028B1202000F076FB08B18D2000E00CE053
:1031D00000F070FB48B1142000F06CFB28B1AF2068
:1031E00000F068FB08B1012400E0002400F014F8AE
:1031F00010B10CB1012400E00024FFF747FF10B12B
:103200000CB1012400E0002400F017F810B10CB15B
:10321000012010BD002010BD10B58D2000F04AFB2C
:1032200048B1102000F046FB28B1AE2000F042FB70
:1032300008B1012010BD002010BD10B58D2000F098
:1032400039FB48B1142000F035FB28B1AF2000F065
:1032500031FB08B1012010BD002010BD10B504469F
:10326000B031C8B200F026FB70B1102040EA141053
:1032700000F020FB40B104F00F0040F0010000F02E
:1032800019FB08B1012010BD002010BD2DE9F05F31
:103290000124002692468B460546012B31D0DFF8EB
:1032A0000091022B76D000242046BDE8F09F203804
:1032B00000F0FF087E2D04D90BF10100002500F07D
:1032C000FF0B59462846FFF7C9FF10B10CB1012486
:1032D00000E00024334908EB4800002701EB4008D8
:1032E00018F8070000F0FCFA10B10CB1012400E05E
:1032F00000247F1CFFB2062FF2D3AD1D761CEDB269
:10330000F6B21AF806000028D1D1CDE7203800F037
:10331000FF08782D04D90BF10100002500F0FF0B08
:1033200059462846FFF79AFF10B10CB1012700E07B
:103330000027002404EB081119F8010000F0D0FA6E
:1033400010B10FB1012700E00027641CE4B2082C83
:10335000F0D30BF10100C1B22846FFF77FFF10B197
:103360000FB1012400E000245FF0000707EB081113
:1033700001EB0900007A00F0B3FA10B10CB101249E
:1033800000E000247F1CFFB2082FEFD30835761C25
:10339000EDB2F6B21AF806000028B7D184E70000B3
:1033A0000C400008E43D000810B5502080F311885F
:1033B000BFF34F8FBFF36F8F00F0A4FC18B1044927
:1033C0004FF080500860002080F3118810BD00008D
:1033D00004ED00E030B593B028216846FCF7F7FE15
:1033E00014210AA8FCF7F3FE0024022501200F9403
:1033F000049000951020059012944FF44010CDE9F0
:1034000008401194109407956846FEF727FE90B97E
:103410000F20CDE90A056802CDE90C400E9002218B
:103420000AA8FEF709FD30B90FA80F951194FEF711
:103430008DFC002801D0FDF77DFC13B030BD704736
:103440000148FFF7B5B80000400200200148FFF72F
:10345000AFB800002C010020F0B50268164B174CE5
:10346000174D4FF08047984205D0B84203D0A04294
:1034700001D0A84203D122F070064A683243984234
:1034800005D0B84203D0A04201D0A84203D122F413
:103490004074CA6822434C6922F0800222430260D1
:1034A0008A68C2620A688262984201D1096901632E
:1034B00001214161F0BD0000002C014000040040EA
:1034C0000008004010B5846842EA032224F47F44D7
:1034D0000A432243826010BD826822F070020A43D0
:1034E00042F007018160704710B5036A046A24F056
:1034F00001040462846924F0F00444EA021423F015
:103500000A020A438461026210BD10B5036A23F007
:10351000100303628369046A23F4704343EA0232AE
:1035200024F0A00343EA01118261016210BD10B5CD
:10353000406A0021C185C184FFF7FBF810BD016816
:10354000CA6822F49072CA6001684A6922F00102D6
:103550004A61202180F83E10704710B590F83E1067
:10356000222901D0022010BD82684FF480539A4274
:1035700001D1016921B1816A9A421BD04AB10AE0A6
:103580000268816A5268C2F308020A80816A891C53
:1035900008E0026972B10268526802F07F020A70A4
:1035A000816A491C8162C18D491E0904090CC185CB
:1035B00003D016E002685268F1E70168CA6822F099
:1035C0002002CA600168CA6822F48072CA60016879
:1035D0004A6922F001024A61202180F83E10FFF77B
:1035E00034FA002010BD000070B50446006801697F
:1035F000E26821F44051114301612169A068084348
:10360000616908432168CA6841F20C639A43024326
:10361000CA6020684169A26921F440711143416187
:103620001E492068884202D1FEF7D2FC01E0FEF775
:10363000BFFC00EBC00101EB001260686421800058
:10364000B2FBF0F3B3FBF1F36FF018067343B2FB78
:10365000F0F5B2FBF0F605EB8305322303EB05151D
:10366000B5FBF1F5B6FBF1F605F0F00505EB061537
:10367000B2FBF0F6B2FBF0F0B0FBF1F06FF0180225
:10368000504306EB800003EB0010B0FBF1F0216823
:1036900000F00F002844886070BD00000038014031
:1036A0002DE9F041984617460E460446069D1DE05A
:1036B000681C1BD02DB1FEF79DF8A0EB0800A842B6
:1036C00014D92068C16821F4D071C16020684169B3
:1036D00021F001014161202084F83D0084F83E0082
:1036E000002084F83C000320BDE8F08120680068D9
:1036F00036EA000004D00020B842D9D00020F3E719
:103700000120F9E738B51C4D286800681B4CC04300
:10371000800619D42846FFF70DF8B4F8000440F2EB
:10372000FF31C0F30E0088420ED215480178B4F87C
:103730000004B4F80024C0F30E002318401C60F30A
:103740000E02A4F80024197028680168C943C9064C
:1037500008D4016840680090B4F8000440F40040C8
:10376000A4F80004012206490348FFF745F9BDE823
:1037700038400148FEF7DEBF7401002054040020E9
:10378000500000200FB40D202DE9F04387B00A252A
:103790004FF001080FAC8DF810008DF814504FF069
:1037A00000094FF47A7640E05C280FD0252821D01C
:1037B000481C0E90334601223B48FFF747F910B3EF
:1037C000FF2007B0BDE8F0035DF814FB491C0E9123
:1037D00008786E2805D0722813D13346012204A937
:1037E00002E03346012205A92F48FFF72FF90028F0
:1037F000E6D117E0491C0E91087864281BD0732885
:1038000002D0491C0E9110E080CC08E03346012222
:1038100039462548FFF71AF90028D1D17F1C38789E
:103820000028F3D10E98401C0E900E9908780028BD
:10383000BAD14046C5E701CC0027694600281FD011
:1038400007DA4FF02D028DF80020C0F1000001F1E1
:10385000010142F2107300BF90FBF3F252EA070C31
:1038600006D002F1300701F8017B02FB13000127AB
:1038700093FBF5F3002BEFDC81F800906F460EE030
:1038800030208DF800008DF80190F7E733460122D3
:1038900039460548FFF7DAF8002891D17F1C3878BF
:1038A0000028F3D1BEE7000074010020012070471A
:1038B000FEE7000011B5012483B04FF47A7221466F
:1038C00003A88DE807002346002278210348FEF76D
:1038D0005BF800B1FF2404B0204610BDD8000020E2
:1038E00011B5012483B04FF47A72214603A88DE804
:1038F00007002346402278210348FEF745F800B12F
:10390000FF2404B0204610BDD80000200FB4054BA2
:1039100010B503A9044A029800F03CF810BC5DF809
:1039200014FB0000593B0008600000200FB4084B56
:1039300010B504A902AA039800F02CF8044602A9C5
:10394000002000F003F9204610BC5DF814FB0000D5
:103950004D3B00080907090E002804DB00F1E020B8
:1039600080F80014704700F00F0000F1E02080F8AC
:10397000141D704702E008C8121F08C1002AFAD1BE
:1039800070477047002001E001C1121F002AFBD1DF
:10399000704700002DE9FF4F8BB09A460F46054651
:1039A000002606E025280BD052460D9990476D1C45
:1039B000761C28780028F5D10FB03046BDE8F08F8E
:1039C0000024A0460122604900E0044315F8013FAD
:1039D000203B02FA03F00842F7D128782E2817D1AD
:1039E00015F8010F44F004042A280ED06FF02F02BE
:1039F0002878A0F1300109290AD808EB880102EBE8
:103A0000410100EB01086D1CF2E757F8048B6D1CB7
:103A1000287869283ED006DC0028CDD063280BD05A
:103A2000642804D136E0732810D075284BD0524654
:103A30000D999047761C85E017F8040B8DF800006F
:103A400000208DF80100E946012003E057F8049BAF
:103A50004FF0FF3061074FF0000401D40AE0641C0E
:103A600044450DDA8442FADB19F804100029F6D136
:103A700006E0641C8442FCDB19F804100029F8D12C
:103A8000264404E019F8010B52460D999047641E34
:103A9000F8D257E001CF4FF00A0B002802DA40427B
:103AA0002D2102E0210504D52B218DF824100121C0
:103AB00003E0E10705D02021F7E70DF12009089187
:103AC0000CE00021F9E701CF4FF00A0BF9E7594666
:103AD000FCF79AFB01F1300209F8012D0028F6D11C
:103AE000ADEB090000F1200B600701D44FF0010895
:103AF000D84502DDA8EB0B0000E000208046002442
:103B000006E009A85246005D0D999047641C761C9A
:103B100008988442F5DB04E0302052460D99904726
:103B2000761CB8F10001A8F10108F5DC05E019F8F0
:103B3000010B52460D999047761CBBF10001ABF189
:103B4000010BF4DC6D1C34E7092801000A68531CE2
:103B50000B6010707047000013B54FF6FF73012221
:103B600069460248FEF772FF00981CBDFC01002068
:103B7000FDF7D8FFFFF72EFCFFF764F9FFF74CF9CC
:103B8000FFF74AFAFFF72CFAFFF762FAFFF7F0F8AF
:103B9000FFF7F2F9FFF7D0F9FCF7FCFBC1B20129FE
:103BA00017A003D0FCF7E2FEFDF7C4F8FCF7DEFE39
:103BB0004FF47A742046FDF7FBFCFFF767FA012308
:103BC00012A200211420FFF761FB0221012314A29D
:103BD0000846FFF75BFBFCF723FD0146012814A014
:103BE000E0D1FCF7C3FE2046FDF7E2FCFFF74EFAFA
:103BF00040F6B834FFF75AFE2046FDF7D9FCF9E746
:103C000042535020696E6974203A000073746172E7
:103C10007420636F6E6E65637420696F74000000BA
:103C2000706C656173652077616974203130730051
:103C3000436F6E6E65637420696F7420706C61747D
:103C4000666F726D203A000006484168096829B124
:103C50004168C968C9684968016370474FF0FF311E
:103C6000FAE7000014000020D0E9013201699A60EF
:103C7000D0E901235A604A68824201D182684A60D1
:103C8000002202610868401E0860086870474268A8
:103C90004A6093688B60936859609160086101681D
:103CA000491C0160704700001448816B11B101216B
:103CB00041627047002141628169B1FA81F1C1F12D
:103CC0001F0101EB81020E4951F822306BB101EB6B
:103CD000820101F108034A6852684A609A4201D1A0
:103CE00052684A60D16801607047502080F31188A3
:103CF000BFF34F8FBFF36F8FFEE70000140000206B
:103D0000880200202DE9F0412E4C0027A06B40B125
:103D1000206A401C2062606A00B101273846BDE875
:103D2000F0816669761C666113D16068006838B1FD
:103D3000502080F31188BFF34F8FBFF36F8FFEE7E2
:103D40006068A1686160A060A06A401CA062FFF783
:103D50007BFF206BDFF87080864209D360680068C3
:103D600080B16068C068C568686886420DD220630B
:103D70002068C06A00EB800158F821000128CAD9E8
:103D80000127C8E74FF0FF30F1E7281DFFF76CFF70
:103D9000A86A18B105F11800FFF766FFE86A01216B
:103DA000A26981401143A16100EB800108EB810011
:103DB000291DFFF76CFFE86A2168C96A8842CDD3E4
:103DC0000127CBE71400002088020020000000003B
:103DD00000000000010203040607080900000000BB
:103DE000010203040000000000000000002F00009A
:103DF00000000700070000147F147F1400242A7FAE
:103E00002A1200626408132300364955225000002C
:103E10000503000000001C224100000041221C009C
:103E20000014083E08140008083E0808000000A01E
:103E3000600000080808080800006060000000201A
:103E400010080402003E5149453E0000427F4000F8
:103E5000004261514946002141454B31001814127E
:103E60007F10002745454539003C4A49493000014B
:103E70007109050300364949493600064949291E9A
:103E800000003636000000005636000000081422FC
:103E900041000014141414140000412214080002FC
:103EA0000151090600324959513E007C1211127C21
:103EB000007F49494936003E41414122007F41414E
:103EC000221C007F49494941007F09090901003E40
:103ED0004149497A007F0808087F0000417F41007E
:103EE000002040413F01007F08142241007F4040F4
:103EF0004040007F020C027F007F0408107F003EDC
:103F00004141413E007F09090906003E4151215EC1
:103F1000007F091929460046494949310001017FBE
:103F20000101003F4040403F001F2040201F003F54
:103F30004038403F00631408146300070870080706
:103F400000615149454300007F41410000552A5519
:103F50002A55000041417F00000402010204004094
:103F600040404040000001020400002054545478B6
:103F7000007F4844443800384444442000384444D6
:103F8000487F00385454541800087E090102001874
:103F9000A4A4A47C007F080404780000447D4000B1
:103FA000004080847D00007F102844000000417F95
:103FB0004000007C04180478007C08040478003871
:103FC0004444443800FC242424180018242418FCF9
:103FD000007C0804040800485454542000043F4462
:103FE0004020003C4040207C001C2040201C003C25
:103FF0004030403C004428102844001CA0A0A07C75
:10400000004464544C4414141414141400000000AC
:10401000000000000000000000000000000000F8A8
:1040200000000000000000333000000000100C060B
:10403000100C0600000000000000000040C07840A6
:10404000C0784000043F04043F040400007088FC72
:1040500008300000001820FF211E0000F008F000CA
:10406000E018000000211C031E211E0000F008883B
:10407000700000001E2123241927211010160E00A5
:10408000000000000000000000000000000000E050
:104090001804020000000007182040000002041865
:1040A000E00000000040201807000000404080F0C1
:1040B000804040000202010F01020200000000F0F7
:1040C000000000000101011F0101010000000000CB
:1040D0000000000080B07000000000000000000040
:1040E00000000000000101010101010100000000C9
:1040F0000000000000303000000000000000000060
:1041000080601804006018060100000000E010083C
:104110000810E000000F102020100F00001010F811
:10412000000000000020203F202000000070080850
:1041300008887000003028242221300000300888D0
:10414000884830000018202020110E000000C020F8
:1041500010F8000000070424243F240000F8088819
:10416000880808000019212020110E0000E01088A6
:1041700088180000000F112020110E0000380808D8
:10418000C83808000000003F0000000000708808E8
:1041900008887000001C222121221C0000E0100869
:1041A0000810E0000000312222110F00000000C0C2
:1041B000C00000000000003030000000000000805F
:1041C000000000000000806000000000000080404F
:1041D0002010080000010204081020004040404068
:1041E00040404000040404040404040000081020BB
:1041F0004080000000201008040201000070480800
:104200000808F0000000003036010000C030C82867
:10421000E810E0000718272423140B000000C03822
:10422000E0000000203C23020227382008F888889C
:1042300088700000203F202020110E00C0300808A8
:1042400008083800071820202010080008F808087F
:104250000810E000203F202020100F0008F8888878
:10426000E8081000203F20202320180008F8888844
:10427000E8081000203F200003000000C0300808BC
:104280000838000007182020221E020008F8080045
:104290000008F808203F210101213F20000808F80C
:1042A000080800000020203F20200000000008082F
:1042B000F8080800C08080807F00000008F888C0EF
:1042C00028180800203F20012638200008F80800A0
:1042D00000000000203F20202020300008F8F800D7
:1042E000F8F80800203F003F003F200008F830C0E9
:1042F0000008F808203F200007183F00E0100808D9
:104300000810E0000F10202020100F0008F8080807
:104310000808F000203F210101010000E01008081A
:104320000810E0000F18242438504F0008F888883F
:1043300088887000203F2000030C3020007088081F
:10434000080838000038202121221C00180808F82D
:10435000080818000000203F2000000008F80800AE
:104360000008F808001F202020201F00087888007F
:1043700000C83808000007380E010000F80800F8EF
:104380000008F800033C0700073C03000818688099
:104390008068180820302C03032C30200838C8000F
:1043A000C83808000000203F20000000100808085E
:1043B000C83808002038262120201800000000FE00
:1043C000020202000000007F40404000000C30C0AC
:1043D00000000000000000010638C00000020202D8
:1043E000FE000000004040407F000000000004028A
:1043F00002020400000000000000000000000000B5
:1044000000000000808080808080808000020204A4
:10441000000000000000000000000000000080809C
:10442000808000000019242222223F2008F800800A
:1044300080000000003F112020110E0000000080CD
:1044400080800000000E112020201100000000805C
:104450008088F800000E112020103F20000080808E
:1044600080800000001F222222221300008080F0A2
:10447000888888180020203F2020000000008080CD
:1044800080808000006B94949493600008F8008012
:1044900080800000203F210000203F20008098986D
:1044A000000000000020203F2020000000000080CD
:1044B0009898000000C08080807F000008F800000D
:1044C00080808000203F24022D302000000808F862
:1044D000000000000020203F20200000808080801D
:1044E00080808000203F20003F20003F80800080AF
:1044F00080800000203F210000203F2000008080BD
:1045000080800000001F202020201F00808000806D
:104510008000000080FFA12020110E00000000801C
:1045200080808000000E112020A0FF80808080000D
:104530008080800020203F2120000100000080803A
:10454000808080000033242424241900008080E02F
:10455000808000000000001F2020000080800000FC
:1045600000808000001F202020103F2080808000DD
:104570000080808000010E300806010080800080ED
:10458000008080800F300C030C300F000080800012
:10459000808080000020312E0E312000808080003D
:1045A0000080808080818E701806010000808080ED
:1045B000808080000021302C22213000000000008B
:1045C000807C020200000000003F4040000000002C
:1045D000FF00000000000000FF0000000002027C5D
:1045E000800000000040403F000000000006010184
:1045F0000202040400000000000000001C46000845
:1046000000000020640000007439000880460008A3
:1046100064000020FC0B0000843900080100000049
:104620000100000010000000000000000024F40061
:10463000000000000000000000000000000000007A
:10464000000000000000000000000000000000006A
:10465000000000000000000000000000000000005A
:10466000000000000000000000000000000000004A
:10467000000000000000000000000000000000003A
:04000005080000ED02
:00000001FF
