:020000040800F2
:10000000E82F00209D010008B31C00084D1A0008CD
:10001000B11C0008CD030008851E00080000000088
:1000200000000000000000000000000005010008C2
:10003000070400080000000049010008BD1C00087A
:10004000B7010008B7010008B7010008B7010008B0
:10005000B7010008B7010008B7010008B7010008A0
:10006000B7010008B7010008B7010008D103000874
:10007000B7010008B7010008B7010008B701000880
:10008000B7010008B70100082D020008B7010008F9
:10009000B7010008B7010008B7010008B701000860
:1000A000B7010008551D0008B7010008B701000896
:1000B000B7010008B7010008B7010008B701000840
:1000C000B7010008B7010008B7010008B701000830
:1000D000B7010008B7010008B7010008B701000820
:1000E00009040008B7010008B7010008DFF810D0C4
:1000F00000F08AF800480047C51E0008AFF30080F2
:10010000E82F0020224B19680868B0E8F00F80F350
:100110000988BFF36F8F4FF0000080F311884EF015
:100120000D0E70470000000006480068006880F36C
:10013000088862B661B6BFF34F8FBFF36F8F00DFE1
:1001400000BF00BF08ED00E0EFF30980BFF36F8F41
:100150000F4B1A6820E9F00F106008B54FF05000FF
:1001600080F31188BFF34F8FBFF36F8F02F01AFA3D
:100170004FF0000080F31188BDE808401968086856
:10018000B0E8F00F80F30988BFF36F8F704700BFAE
:1001900014000020EFF305807047000006488047F8
:1001A00006480047FEE7FEE7FEE7FEE7FEE7FEE75C
:1001B000FEE7FEE7FEE7FEE7531D0008ED0000083E
:1001C00040EA01039B0703D009E008C9121F08C0D9
:1001D000042AFAD203E011F8013B00F8013B521E59
:1001E000F9D27047D2B201E000F8012B491EFBD2D0
:1001F00070470022F6E710B513460A460446194632
:10020000FFF7F0FF204610BD064C074D06E0E06802
:1002100040F0010394E8070098471034AC42F6D34D
:10022000FFF768FFC4280008E4280008014800F030
:10023000F9B900008400002070B5044600688168A8
:10024000C943C90717D1816821F00101816000F01D
:1002500003FE05460AE000BF00F0FEFD401B022839
:1002600004D920688068C043C00706D02068806831
:10027000C043C007F0D0002070BDA06A40F010005D
:10028000A062E06A40F00100E062012070BD10B59C
:100290000146406A826A12F0500F05D0006A026B74
:1002A000BDE8104008461047816A41F40071816240
:1002B00001688968C1F3424107290CD1017B51B91A
:1002C000816A21F480718162816AC90403D4816AE0
:1002D00041F00101816200F09DF910BD10B5406A46
:1002E000816A41F040018162C16A41F00401C1624A
:1002F00000F097F910BD10B5406A00F091F910BDFB
:10030000F8B500260446009600688168C943C9070D
:100310002DD0816841F001018160164816490068BE
:10032000B0FBF1F000E0401E00900028FBD100F08F
:1003300093FD054616E000BF00F08EFD401B02282D
:1003400010D920688068C043C0070BD0A06A40F075
:100350001000A062E06A40F00100E06284F82460CE
:100360000120F8BD20688068C043C007E4D10020A8
:10037000F8BD00001000002040420F0070B50125BC
:100380000E4800F05BF828B906220D490B4800F032
:10039000AFFA08B100F03CF80A4900200A4E087094
:1003A00004462021304600F049FD642000F036FC70
:1003B000641C032CF5DB284670BD0000840000207F
:1003C000D82B00207400002000080140FEE7000048
:1003D000014800F013BB0000B400002030B590F8D5
:1003E00040500124AC40C56B6C6004686360436896
:1003F000102B036803D099600068C26030BD9A601A
:100400000068C16030BD70474FF4005000F01ABC66
:1004100072B6094C4FF4FA752021204600F00EFD0B
:10042000322000F0FBFB2021204600F007FD28468B
:1004300000F0F4FBF0E7000000080140F8B50025EB
:100440000446009590F82400012808D0012084F883
:1004500024002046FFF7F0FE060002D053E0022001
:10046000F8BDA06A20F4885040F00200A06202208B
:1004700000F0B0FD26490968B1FBF0F0400000E053
:10048000401E00900028FBD12046FFF739FF20686E
:10049000816841F00801816000F0DEFC074608E059
:1004A00000F0DAFCC01B0A2803D920688068000726
:1004B00015D4206880680007F2D42068816841F074
:1004C0000401816000F0C8FC074612E000F0C4FCA3
:1004D000C01B0A280DD920688068400709D5A06A8A
:1004E00020F0020040F01000A06284F824500120A7
:1004F000F8BD206880684007E8D4A06A20F00200B8
:1005000040F00100A06284F824503046F8BD00009D
:100510001000002070470000F8B50024009490F807
:1005200024202546012A12D0012280F824204A687E
:100530001F23072A0DD20668776B521E02EB820238
:1005400093409F430B6893401F43776319E0022059
:10055000F8BD06680D2A0AD2376BD21F02EB820261
:1005600093409F430B6893401F43376309E0F76A4A
:100570000D3A02EB820293409F430B6893401F4366
:10058000F7620A68072306680A2A0AD3F7680A3A54
:1005900002EB420293409F438B6893401F43F760F6
:1005A00008E0376902EB420293409F438B68934017
:1005B0001F4337610A68102A01D0112A20D1124B3B
:1005C00002689A4217D193681B0219D4936843F4C6
:1005D000000393600968102912D10C490C4A09687C
:1005E000B1FBF2F101EB8101490000E0491E0091ED
:1005F0000029FBD104E0816A41F0200181620124DD
:1006000080F824502046F8BD00240140100000204E
:1006100040420F000149012008707047740000201B
:100620007047704710B5044600684168890626D5B2
:100630000168890723D5A16AC90603D4A16A41F4D8
:100640000071A1628168C1F34241072910D1217B69
:1006500071B9416821F020014160A06A20F48070E6
:10066000A062A06AC00403D4A06A40F00100A062A6
:100670002046FFF7CFFF21686FF012000860206866
:10068000416809062ED5016849072BD5A16AC9061C
:1006900003D4A16A41F40051A1628168C1F302311F
:1006A000072909D04168490515D48168C1F3424141
:1006B000072910D1217B71B9416821F08001416087
:1006C000A06A20F48050A062A06AC00503D4A06A8A
:1006D00040F00100A0622046FFF71CFF21686FF088
:1006E0000C0008602068416849060DD50068C00705
:1006F0000AD0A06A40F48030A062204600F094F84E
:1007000021686FF00100086010BD00002DE9F04184
:100710004FF0000704003D467ED0A06A002628B9AD
:10072000E66284F82460204600F080F82046FFF757
:1007300083FDA16AC90600D420B1A06A40F0100070
:10074000A06269E0A16A21F4885141F00201A1622E
:100750006268E169237B0A4347EA43010A43A168CF
:100760004FF48077B94209D0012907D05FF000012A
:1007700094F814C0BCF1010F02D00AE03946F7E743
:10078000F3B1A36A43F02003A362E36A43F00103D9
:10079000E3622368D3F804C02CF4694C4CEA010CE2
:1007A000C3F804C021688B68DFF870C003EA0C034B
:1007B00013438B60A168B9420BD0012909D00CE02A
:1007C000DFF85CC0A3690CEB43330B4343F40061D7
:1007D000DFE7218A0D05A5F580152168CB6A23F492
:1007E00070032B43CB62216889680E4B19409142FC
:1007F00008D1E662A16A21F0020141F00101A16283
:10080000BDE8F081A06A20F0020040F01000A06274
:10081000E06A40F00100E0620120F1E7FDF7E1FF4E
:1008200000E0FFFFFE0E1FFF7047000070B586B0AE
:100830000026054600960196029603960068264912
:10084000884246D12549886940F4007088618869EA
:1008500000F400700490886940F0040088618869A1
:1008600000F004000490886940F0080088618869FD
:10087000032400F008000490D020CDE9000469466C
:10088000174800F0EBF90120CDE90004694615484E
:1008900000F0E4F9154C1448C4E900068020C4E9CE
:1008A000026040002061800060612020A0610002A1
:1008B000E061204600F04CF908B1FFF7A9FD2C6279
:1008C000002205211220656200F052FB122000F088
:1008D00041FB06B070BD0000002401400010024042
:1008E00000080140000C014008000240B400002054
:1008F0002DE9F047894604463B4900683B4F0E1DF1
:100900009046884201D0B84207D1306810F4702F69
:1009100003D001252846BDE8F08794F8240001287B
:100920000CD0012084F824002046FFF7E9FC0500E4
:100930004FF0000004D084F82400EBE70220EAE73F
:10094000A16A40F60162914341F48071A16221687D
:10095000B94218D1326812F4702F14D0A16A41F450
:100960008011A1623168490505D5A16A21F40051C1
:1009700041F48051A162A16AC9040AD5E16A21F05B
:100980000601E16206E0A26A22F48012A2624968CE
:10099000E9E7E06284F82400216A15488862216A48
:1009A0001448C862216A1448086321686FF0020085
:1009B00008602068816841F4807181602168434645
:1009C0004A464C31206A00F0F1F820688168C1F392
:1009D00042410729816803D041F48011816099E781
:1009E00041F4A001FAE70000002401400028014082
:1009F0008F020008F7020008DD0200082DE9F05F11
:100A0000C16B0C6801680B68D0F840C0042202FA80
:100A10000CF2494DDFF824A1494E4A4FDFF828B1C6
:100A2000DFF828E122422CD05A072AD50A6892061C
:100A300003D40A6822F004020A600168A94201D1C5
:100A4000042219E0514501D1402215E0B14202D102
:100A50004FF4806210E0B94202D14FF480420BE0C3
:100A6000594502D14FF4802206E0714502D14FF47E
:100A7000800201E04FF080622F4908394A60C16A64
:100A80003BE04FF0020808FA0CF818EA040F4FF0A8
:100A900000094FF0010235D05FEA837832D50B6848
:100AA0009B0605D40B6823F00A030B6080F8212015
:100AB0000168A94201D1022219E0514501D1202249
:100AC00015E0B14202D14FF4007210E0B94202D1F8
:100AD0004FF400520BE0594502D14FF4003206E0CA
:100AE000714502D14FF4001201E04FF0007212493B
:100AF00008394A6080F82090816A00291AD0BDE840
:100B0000F05F0847082505FA0CF5254212D01B07AF
:100B100010D50B6823F00E030B6090F84010C36BE8
:100B200002FA01F15960826380F8212080F8209058
:100B3000016BE2E7BDE8F09F080002401C000240A4
:100B40003000024044000240580002406C00024065
:100B500030B528B308C8134914221944B1FBF2F187
:100B60008900C16310498163022141771A6843F605
:100B7000F0718A43D0E900142143D0E902452C43A7
:100B8000214304692143446921438469214311437A
:100B9000196000214163012242770177084630BD88
:100BA000012030BDF8FFFDBF0000024070B50446D3
:100BB00090F82000002501280CD0012084F82000A6
:100BC00094F821600020012E06D084F82000022530
:100BD000284670BD022070BD022684F82160A06303
:100BE0002068066826F0010606602046FFF7F6FB3F
:100BF000E06A00282068016802D041F00E0106E09A
:100C000021F0040101602068016841F00A010160DF
:100C10002068016841F001010160D9E770B5044620
:100C200000F01AF90546601C02D00448007804441C
:100C300000F012F9401BA042FAD370BD040000205E
:100C400070470000044910B50A68024202D00860EB
:100C5000FFF7F6FF10BD0000140401402DE9F84F26
:100C6000DFF8B891002409F1040A0AF1040B2346C5
:100C70000F270BF1040EC9E00125A5402A40AA4226
:100C80007DD1674ED1F804C0ACEB0608B44532D034
:100C900014DCBCF1030F3AD009DCBCF1000F2AD000
:100CA000BCF1010F1CD0BCF1020F31D11DE0BCF131
:100CB000110F17D0BCF1120F2AD119E0B8F5881F17
:100CC00019D006DCB8F5803F15D0B8F5801F1FD1CC
:100CD00011E0B8F5001F0ED0B8F5041F18D10AE0D6
:100CE000CB6815E0CB681B1D12E0CB6808330FE022
:100CF000CB680C330CE08B682BB1012B4FF0080351
:100D000003D0456104E0042302E0056100E0002314
:100D1000FF2A01D8064601E000F104064FEA8405E7
:100D200001D9A5F12005D6F8008007FA05FC28EACC
:100D30000C0803FA05F548EA0508C6F800804D6876
:100D4000ED0062D5374DAE6946F00106AE61AD6982
:100D500024F0030605F001050095334D06EB050C64
:100D6000DCF80850A607360F07FA06F825EA08054A
:100D7000DFF8B880404503D14FF0000817E044E0A9
:100D8000DFF8AC80404502D14FF001080FE0DFF8FA
:100D9000A480404502D14FF0020808E0DFF89880B7
:100DA000404502D14FF0030801E04FF0040808FA73
:100DB00006F848EA0508CCF808804D68D9F80060C4
:100DC000ED034D4601D5164300E096432E604D6875
:100DD000DAF80060AD03554601D5164300E09643AE
:100DE0002E604D68DBF80060ED025D4601D51643CC
:100DF00000E096432E604D68DEF80060AD02754657
:100E000001D5164300E096432E60641C0D682A4607
:100E1000E5407FF431AFBDE8F88F000000040140E9
:100E200000001110001002400000014000080140C5
:100E3000000C01400010014000140140C26821EA8A
:100E400002030A4043EA0241016170470AB10161AD
:100E500070470904FBE70000014880687047000004
:100E600004000020024881680278114481607047C4
:100E700004000020074810B5016841F0100101602E
:100E8000032000F095F8002000F006F800F03EF88E
:100E9000002010BD0020024000B5014687B00022AE
:100EA000192000F065F8192000F054F81348816902
:100EB00041F400618161806905A900F40060069039
:100EC000684600F0F7F900F025FA0D494000B0FB44
:100ED000F1F10D480B4A491E0260416040F2E732D1
:100EE0000021C0E90321816000F0ECFB10B101207A
:100EF00007B000BD044800F013FCF9E70010024001
:100F000040420F00002C0140C40100200F4808B5EA
:100F1000816941F001018161816901F00101009164
:100F2000C16941F08051C161C069002200F0805068
:100F300000900F21901E00F01BF80548416821F039
:100F4000E06141F00071416008BD00000010024006
:100F500000000140002809DB00F01F020121914040
:100F60004009800000F1E020C0F800117047000047
:100F7000F0B40E4B1B680C46C3F30223C3F1070504
:100F8000042D00D90425191D072901D2002300E0F2
:100F9000DB1E012606FA05F1491E214099409E40BC
:100FA000761E16403143F0BC00F06DBF0CED00E042
:100FB000064900F0070208684FF6FF03184040EAB0
:100FC0000220034A10430860704700000CED00E067
:100FD0000000FA0510B529A401461DCC86B08DE8A5
:100FE0001D002AA02A4C006804900020012923D06B
:100FF00002293AD010291DD161682268D20119D581
:10100000C1F38342C9031DF8020009D5616804AA2F
:10101000C1F34041515C1F4AB2FBF1F1484301E08A
:101020001D4948436168490204D440005FF0030150
:10103000B0FBF1F006B010BD226AC2F30121012914
:1010400003D1920701D5C803F4E7022905D1626AEA
:10105000920702D549F64040ECE70329EAD121681E
:101060008903E7D54FF22440E4E700F053F96168C3
:10107000C1F38131491C4900DAE70000020304058D
:10108000060708090A0B0C0D0E0F101001020000D4
:101090000010024000127A0000093D002DE9F843DB
:1010A00005460078354CC00754D0E0690026C000E2
:1010B00008D4E06940F08050E061E069012600F06A
:1010C000805000902E480168C90512D401688046FE
:1010D00041F480710160FFF7BFFE074605E000BFE5
:1010E000FFF7BAFEC01B642823D8D8F80000C0055B
:1010F000F6D5206A10F4407021D0A98801F440711F
:1011000081421CD0206A1F49012220F440700A60ED
:1011100000220A602062C00711D0FFF79DFE07463B
:1011200041F2883808E000BFFFF796FEC11B414539
:1011300002D90320BDE8F883206A8007F4D5206A2D
:10114000696820F44070084320621EB1E06920F015
:101150008050E0612878800705D56068A96820F490
:101160004040084360602878C00605D56068E9689B
:1011700020F48000084360600020DBE7001002409C
:1011800000700040400442422DE9F0470F46050040
:1011900061D0434E306800F00700B84209D2306891
:1011A00020F0070038433060306800F00700B84294
:1011B00051D128683B4C810712D5400703D56068A0
:1011C00040F4E06060602878000703D5606840F470
:1011D000605060606068A96820F0F00008436060BB
:1011E0002878C00728D06868012810D02168022814
:1011F00010D0890700292EDA616821F0030101432C
:101200006160FFF729FE804641F288390DE02168D0
:101210008903EFE78901EDE7FFF71EFEA0EB080168
:10122000494502D90320BDE8F0876068696800F08D
:101230000C00B0EB810FEFD1306800F00700B8422E
:101240000BD9306820F0070038433060306800F078
:101250000700B84201D00120E5E72878400705D50E
:101260006068E96820F4E06008436060287800075F
:1012700006D56068296920F4605040EAC1006060CA
:1012800000F058F86168084AC1F30311515CC84086
:101290000649086006480068FFF7FEFD0020C2E727
:1012A0000020024000100240A0280008100000208A
:1012B000080000200F2202600C4A536803F0030369
:1012C0004360536803F0F0038360536803F4E06302
:1012D000C36052684FF4E06303EAD202026104483B
:1012E000006800F00700086070470000001002402E
:1012F000002002400448054900684968044AC1F3D7
:101300000221515CC84070471000002000100240CC
:10131000B02800080448054900684968044AC1F338
:10132000C221515CC84070471000002000100240EC
:10133000B028000812A185B00FC98DE80F0014A0D5
:10134000144A006804905168134801F00C03042B00
:1013500010D0082B0ED1C1F38343C9031DF803003D
:101360000AD5516804AAC1F34041515C0A4A50436E
:10137000B0FBF1F005B0704708494843FAE70000B8
:1013800002030405060708090A0B0C0D0E0F1010C6
:10139000010200000010024000127A0000093D0026
:1013A0002DE9F84F040070D02078C04DC00749D017
:1013B0006868C0F38100012807D06868C0F3810025
:1013C000022809D16868C00306D52868800339D58A
:1013D00060680028E7D035E06068B0F5803F0BD04A
:1013E00010B1B0F5A02F11D0286820F4803028600B
:1013F000286820F4802002E0286840F480302860CB
:10140000606890B1FFF728FD06460AE0286840F4BE
:1014100080202860F0E700BFFFF71EFD801B6428D6
:1014200073D828688003F7D50CE0FFF715FD064652
:1014300005E000BFFFF710FD801B6428F0D8286886
:101440008003F7D420789A4E80074FF001094FF0BF
:10145000000839D5686810F00C0F07D06868C0F331
:101460008100022809D16868C00306D42868800773
:1014700014D52069012808D110E02069B0B1C6F860
:101480000090FFF7E9FC074605E00AE1FFF7E4FCFE
:10149000C01B0228C4D828688007F7D5286861696E
:1014A00020F0F80040EAC10028600DE0C6F8008096
:1014B000FFF7D2FC074604E0FFF7CEFCC01B022872
:1014C00023D828688007F7D4207800072CD57948DE
:1014D000A169D9B1C0F80090FFF7BEFC074604E04F
:1014E000FFF7BAFCC01B02280FD8686A8007F7D53F
:1014F00071484FF4FA510068B0FBF1F0009000BF62
:101500000098411E0091FAD20EE080E0C0F8008001
:10151000FFF7A2FC074604E0FFF79EFCC01B022871
:1015200075D8686A8007F7D42078400760D5E869E5
:101530000027C00008D4E86940F08050E861E869FD
:10154000012700F0805000905C480168C90513D461
:101550000168834641F480710160FFF77DFC82469B
:1015600006E000BFFFF778FCA0EB0A0064284ED825
:10157000DBF80000C005F5D5E06801280AD008B105
:10158000052813D0286A20F001002862286A20F07C
:10159000040002E0286A40F001002862E06841F29D
:1015A000883B98B1FFF758FC82460BE0286A40F070
:1015B00004002862EEE700BFFFF74EFCA0EB0A0133
:1015C00059455AD8286A8007F6D50CE0FFF744FC45
:1015D000824605E0FFF740FCA0EB0A0159454CD8D4
:1015E000286A8007F6D41FB1E86920F08050E861CE
:1015F000E06988B36968C1F38101022944D00228F7
:10160000C6F8608004D0FFF727FC044638E034E0D9
:10161000FFF722FC074604E0FFF71EFCC01B022870
:101620002BD828688001F7D4206AB0F5803F05D117
:101630006868A16820F4003008436860D4E90801B4
:101640000843696821F4741108436860C6F8609023
:10165000FFF702FC044606E025E000BFFFF7FCFBB5
:10166000001B022809D828688001F7D51BE000BFBD
:10167000FFF7F2FB001B022802D90320BDE8F88F18
:1016800028688001F4D40EE00128F7D06868226A47
:1016900000F48031914204D1616A00F470108842F4
:1016A00001D00120EAE70020E8E700000010024036
:1016B00000004242800442421000002000700040BE
:1016C0007047704710B5040003D094F83D0010B186
:1016D00007E0012010BD002084F83C00204600F007
:1016E0001EF8022084F83D00211D206800F038FB20
:1016F000012084F8460084F83E0084F83F0084F816
:10170000400084F8410084F8420084F8430084F8E3
:10171000440084F8450084F83D00002010BD704767
:1017200090F83D10012901D001207047022180F876
:101730003D100168CA6842F00102CA6000680B49A6
:10174000884208D0B0F1804F05D00949884202D0C4
:101750000849884204D1816801F00701062903D0B5
:10176000016841F00101016000207047002C014038
:101770000004004000080040704770B5044600684F
:1017800001694FF00005C943890715D4C168C943F1
:10179000890711D4E91E0161012020772068806942
:1017A0008007204602D0FFF7E7FF04E000F098F83A
:1017B000204600F096F8257720680169C94349075B
:1017C00017D4C168C943490713D46FF004010161FC
:1017D000022020772068806910F4407F204602D0E4
:1017E000FFF7CAFF04E000F07BF8204600F079F82C
:1017F000257720680169C943090716D4C168C94320
:10180000090712D46FF008010161042020772068D5
:10181000C0698007204602D0FFF7AEFF04E000F069
:101820005FF8204600F05DF8257720680169C9431C
:10183000C90617D4C168C943C90613D46FF0100193
:101840000161082020772068C06910F4407F20469D
:1018500002D0FFF791FF04E000F042F8204600F0CC
:1018600040F8257720680169C943C90708D1C168D4
:10187000C943C90704D1891E0161204600F032F82E
:1018800020680169C943090609D4C168C94309062A
:1018900005D46FF0800101612046FFF711FF206839
:1018A0000169C943490609D4C168C943490605D439
:1018B0006FF040010161204600F01EF820680169C8
:1018C000C94389060BD4C168C943890607D46FF0A0
:1018D000200101612046BDE87040FFF7F2BE70BDF7
:1018E0007047704700680349884201D1FFF7BABAD0
:1018F00070470000002C0140704770B5040004D010
:1019000094F83D00002510B106E0012070BD84F878
:101910003C50204600F022F8242084F83D00206846
:10192000C16821F40051C160204600F04FFA2068E0
:10193000016921F4904101612068416921F02A0187
:1019400041612068C16841F40051C16025642020D4
:1019500084F83D0084F83E00002070BDF0B585B0ED
:101960000024009401940294039403683348314F97
:101970003149022203260515BB421DD18B6943F470
:1019800080438B618B6903F4804304938B6943F03C
:1019900004038B618969039601F0040104914115E8
:1019A000CDE9001269460646FFF758F9CDE9005423
:1019B00069463046029417E0214FBB4218D1CB69EB
:1019C00043F40033CB61CB6903F4003304938B6998
:1019D00043F004038B618969039201F004010491CF
:1019E0000C21CDE900126946FFF738F905B0F0BDCA
:1019F00014488342FAD1C86940F48020C861C8699C
:101A000000F480200490886940F0080088618869AB
:101A1000CDE9005200F00800CDE903600A4D6946A7
:101A20002846FFF71BF9E814CDE90004694628466B
:101A30000294D9E70038014000100240000801403C
:101A40000044004000480040000C0140FEE7000058
:101A5000FEB500212C48009101912A4A02910260B2
:101A600092158260017301250575062404614FF407
:101A700060224160C0E90652FEF748FE08B1FEF759
:101A8000C7FC04260096CDE9015469461E48FEF7BE
:101A900043FD08B1FEF7BCFC0220CDE900406946D9
:101AA0001948FEF739FD08B1FEF7B2FC0720009097
:101AB0000320019069461448FEF72EFD08B1FEF799
:101AC000A7FC0820CDE9000669460F48FEF724FD73
:101AD00008B1FEF79DFC102000900520019069469A
:101AE0000948FEF719FD08B1FEF792FC1120CDE977
:101AF000000469460448FEF70FFD002801D0FEF7F8
:101B000087FCFEBD0024014084000020094808B580
:101B1000416941F0010141614069002200F001008A
:101B2000009006210B20FFF723FABDE808400B20A8
:101B3000FFF710BA0010024000B585B01422064924
:101B40006846FEF73DFB0021684600F0E8F90349CE
:101B5000086005B000BD00008C28000800000020CF
:101B600030B585B000242448009401940294039475
:101B7000816941F010018161816901F010010491D6
:101B8000816941F020018161816901F020010491A6
:101B9000816941F004018161816901F004010491CE
:101BA000816941F0080181618069144D00F00800ED
:101BB0000490002220212846FFF748F9681400907D
:101BC0000F48CDE9010469460E48FFF747F8202089
:101BD00000900120CDE901040220039069462846C7
:101BE000FFF73CF800220C212820FFF7C1F928203C
:101BF000FFF7B0F905B030BD001002400008014009
:101C000000001110001001400C4810B50A49016095
:101C10004FF4E1314160002181600C22C160C0E9D4
:101C200004128161C161FFF768FE002803D0BDE89E
:101C30001040FEF7EDBB10BD00380140F800002059
:101C40000C4810B50A4901604FF4E13141600021B0
:101C500081600C22C160C0E904128161C161FFF79B
:101C60004CFE002803D0BDE81040FEF7D1BB10BDEC
:101C7000004400403C0100200C4810B50A490160B6
:101C80004FF4E1314160002181600C22C160C0E964
:101C900004128161C161FFF730FE002803D0BDE866
:101CA0001040FEF7B5BB10BD004800408001002089
:101CB000FEE7FEE7012000F026F9FBE710B5502013
:101CC00080F31188BFF34F8FBFF36F8F00F018FDC3
:101CD00018B104494FF080500860002080F311884B
:101CE00010BD000004ED00E030B593B02821684637
:101CF000FEF77FFA14210AA8FEF77BFA00240225DA
:101D000001200F94049000951020059012944FF438
:101D10004010CDE908401194109407956846FFF7EC
:101D20003FFB90B90F20CDE90A056802CDE90C40D0
:101D30000E9002210AA8FFF727FA30B90FA80F95D5
:101D40001194FFF7ABF9002801D0FEF761FB13B047
:101D500030BD70470148FFF710BD0000C4010020EE
:101D6000F0B50268164B174C174D4FF0804798425C
:101D700005D0B84203D0A04201D0A84203D122F03E
:101D800070064A683243984205D0B84203D0A04258
:101D900001D0A84203D122F44074CA6822434C699E
:101DA00022F08002224302608A68C2620A6882626C
:101DB000984201D10969016301214161F0BD000030
:101DC000002C0140000400400008004070B50446AB
:101DD00000680169E26821F4405111430161216901
:101DE000A0680843616908432168CA6841F20C632E
:101DF0009A430243CA6020684169A26921F4407194
:101E0000114341611E492068884202D1FFF782FADE
:101E100001E0FFF76FFA00EBC00101EB0012606810
:101E200064218000B2FBF0F3B3FBF1F36FF018060E
:101E30007343B2FBF0F5B2FBF0F605EB83053223FA
:101E400003EB0515B5FBF1F5B6FBF1F605F0F00572
:101E500005EB0615B2FBF0F6B2FBF0F0B0FBF1F0CB
:101E60006FF01802504306EB800003EB0010B0FB4C
:101E7000F1F0216800F00F002844886070BD000078
:101E800000380140FEE70907090E002804DB00F1D5
:101E9000E02080F80014704700F00F0000F1E0200F
:101EA00080F8141D704702E008C8121F08C1002AFC
:101EB000FAD170477047002001E001C1121F002ACB
:101EC000FBD17047FEF7D6FFFFF70EFFFFF748FE86
:101ED000FFF71CFEFFF7B4FEFFF796FEFFF7CCFE00
:101EE000FFF7B6FDFEF74AFA012801D0FEF790FA97
:101EF000FFF722FE00F00EF8FEE7014600208429DD
:101F000000D0C81C704710B500B9012000F0E8FAF5
:101F1000002010BD10B500F009FB002010BD3EB53B
:101F200004460D46B0F90800FFF7E7FF02A9CDE926
:101F30000001208A2B4682B2D4E9001000F0B4FBE5
:101F4000012801D000203EBD02983EBD2DE9F041A0
:101F5000184C0F46054666692068001D00F006FA19
:101F600038B9206890F82C1001208840A16981437D
:101F7000A161681C07D137B12168BDE8F0410E4866
:101F8000091D00F02CBA20683544B542456021682F
:101F900005D2A068BDE8F041091D00F008BA6068EC
:101FA000091D00F004FA206B854200D22563BDE8CC
:101FB000F081000014000020C40300202DE9F0414E
:101FC000054600F019FA2D4C2069401C206120685C
:101FD0002B4F10B1E06930B32BE025602069012858
:101FE00027D1002606EB860007EB800000F0D1F930
:101FF000761C122EF6D3234800F0CBF9214814307A
:1020000000F0C7F91F48283000F0C3F91D483C30E4
:1020100000F0BFF91B48503000F0BBF91948606070
:102020001430A06005E02068E96AC06A884200D8E0
:102030002560E06A401CE062E96A0120A2698840EC
:102040001043A06101EB810007EB8000291D00F027
:10205000C6F900F0F1F9E06900280CD02068E96ABF
:10206000C06A884207D208494FF080500860BFF329
:102070004F8FBFF36F8FBDE8F08100001400002088
:102080000C0200207403002004ED00E010B50446AB
:10209000006B00F0E5F92046BDE8104000F0E0B923
:1020A00010484FF42051420706D0C01D0D4920F0C2
:1020B0000700411AC1F520510B4A00230144C2E92F
:1020C00000030839103A21F0070111604B600B60E2
:1020D0000B1AC0E9001393604FF000405360D060CA
:1020E00070470000D803002060000020144E154CFB
:1020F000A6F5D2774FF08058DFF84C9012E000BF81
:1021000000F07AF9F068C568281D00F02FF9206901
:10211000401E2061E068401EE06000F08DF9284616
:10212000FFF7B4FFE0680028EAD138680128F9D940
:10213000C9F80080BFF34F8FBFF36F8FF2E7000045
:10214000B00300201400002004ED00E02DE9F0476A
:102150009A46DDE9098481466FF00303206B03EBA7
:1021600082021044089D20F00706700707D0502017
:1021700080F31188BFF34F8FBFF36F8FFEE72318F3
:102180000A5C83F834200A5C12B1401C1028F6D394
:10219000002784F84370122D00D31125E562C4E9AD
:1021A0001157201D00F000F904F1180000F0FCF8B0
:1021B0002461C5F112006462A061E76484F8507084
:1021C00052464946304600F0BFF82060B8F1000F93
:1021D00001D0C8F80040BDE8F087000030B51149D3
:1021E00000E011460A688242FBD34B685C188442C7
:1021F00003D1406818444860084643681C1894425C
:1022000009D1084C103C2468A24209D052681A44F3
:1022100042600A6812680260814200D0086030BDE6
:102220000460F9E76000002006484168096829B1A8
:102230004168C968C9684968016370474FF0FF3158
:10224000FAE700001400002008484068401C4FF0E6
:10225000500080F3118804D0BFF34F8FBFF36F8F0E
:10226000FEE7BFF34F8FBFF36F8FFEE768000020DC
:102270002DE9F0410546002700F08CF9314E306819
:1022800008B9FFF70DFFF06805424BD1C5B308351B
:1022900068070ED005F00700C0F108000544680784
:1022A00007D0502080F31188BFF34F8FBFF36F8F9B
:1022B000FEE72DB37068854234D8224810300146BD
:1022C0000C6801E020460C466168A94202D22168F0
:1022D0000029F7D131688C4224D007682168016059
:1022E00060680837411B10290FD96019420708D0D0
:1022F000502080F31188BFF34F8FBFF36F8FFEE73D
:1023000010E041606560FFF769FF61687068401A1E
:102310007060B268904200D2B060F0680143002063
:10232000C4E9000100F050FA780707D0502080F38C
:102330001188BFF34F8FBFF36F8FFEE73846BDE8BC
:10234000F08100005000002010B5031F4FF0807492
:102350001C601B1F21F001011960191F024B0B604B
:10236000143940380A6010BD49220008D0E9013212
:1023700001699A60D0E901235A604A68824201D11A
:1023800082684A60002202610868401E086008688E
:10239000704700F108014FF0FF32C0E90112C1603F
:1023A000016100210160704700210161704730B573
:1023B0000B685A1C02D000F1080202E0026904E036
:1023C0002246546825689D42FAD953684B6099604B
:1023D0008A60516008610168491C016030BD426833
:1023E0004A6093688B6093685960916008610168E6
:1023F000491C016070470000502080F31188BFF332
:102400004F8FBFF36F8F0A494868401C486001280E
:102410000CD10848006810F0FF0F07D0502080F35F
:102420001188BFF34F8FBFF36F8FFEE77047000037
:102430006800002004ED00E00849486828B1401E0B
:10244000486001D180F311887047502080F31188D3
:10245000BFF34F8FBFF36F8FFEE7000068000020CF
:1024600070B5002827D0144DA0F108046168E86811
:10247000014207D1502080F31188BFF34F8FBFF383
:102480006F8FFEE722683AB1502080F31188BFF3C6
:102490004F8FBFF36F8FFEE78143616000F07AF8E2
:1024A00060686968084468602046FFF797FEBDE8E9
:1024B000704000F089B970BD500000204FF0E0205E
:1024C00000210161816105494FF47A720968B1FB0D
:1024D000F2F1491E4161072101617047100000209F
:1024E00010B5020014D00F48806B38B1502080F333
:1024F0001188BFF34F8FBFF36F8FFEE700F04AF8EC
:1025000000211046FFF722FD00F05EF9002807D1F8
:1025100005494FF080500860BFF34F8FBFF36F8FB6
:1025200010BD00001400002004ED00E01CB51548AB
:102530000024CDE900402346802213A1144800F076
:10254000B3F8012809D0401C1AD1502080F311881B
:10255000BFF34F8FBFF36F8FFEE7502080F31188DA
:10256000BFF34F8FBFF36F8F06484FF0FF31343802
:1025700001630121C1614461BDE81C4000F040B825
:102580001CBD00004800002049444C4500000000EC
:10259000ED2000080248816B491C816370470000F0
:1025A000140000201448816B11B101214162704771
:1025B000002141628169B1FA81F1C1F11F0101EB92
:1025C00081020E4951F822306BB101EB820101F119
:1025D00008034A6852684A609A4201D152684A60C8
:1025E000D16801607047502080F31188BFF34F8F8E
:1025F000BFF36F8FFEE70000140000200C020020E4
:102600001CB5264908780190FF20087008788DF8DD
:1026100000009DF800009DF8002000F0F0009042BE
:1026200007D0502080F31188BFF34F8FBFF36F8F17
:10263000FEE79DF800001A4B00F0500018700720CC
:10264000986005E09DF8002052008DF80020401EA3
:102650009DF800201206F5D49860032807D050207A
:1026600080F31188BFF34F8FBFF36F8FFEE74FF4F6
:1026700040709860019808700A48016841F4700140
:102680000160016841F070410160FFF717FF002011
:102690005860FDF749FD00201CBD000000E400E08B
:1026A0006800002020ED00E02DE9FF5F8346DDE9B2
:1026B0000E87994616468A469000FFF7D9FD050019
:1026C0001AD05420FFF7D4FD040012D02563002156
:1026D000CDE90241CDE900874B4632465146584686
:1026E000FFF734FD2046FFF769FC012004B0BDE888
:1026F000F09F2846FFF7B4FE4FF0FF30F6E70000EA
:102700002DE9F0412E4C0027A06B40B1206A401CFF
:102710002062606A00B101273846BDE8F081666931
:10272000761C666113D16068006838B1502080F370
:102730001188BFF34F8FBFF36F8FFEE76068A1680A
:102740006160A060A06A401CA062FFF76DFD206B75
:10275000DFF87080864209D36068006880B16068E5
:10276000C068C568686886420DD220632068C06A68
:1027700000EB800158F821000128CAD90127C8E7D9
:102780004FF0FF30F1E7281DFFF7F0FDA86A18B100
:1027900005F11800FFF7EAFDE86A0121A26981400E
:1027A0001143A16100EB800108EB8100291DFFF7B7
:1027B00016FEE86A2168C96A8842CDD30127CBE7B3
:1027C000140000200C0200202DE9F0472C4D0024BD
:1027D0002746A86B38B1FFF70FFEA86B401EA86311
:1027E000A86B40B146E0502080F31188BFF34F8FB3
:1027F000BFF36F8FFEE72969224E0120D1B3A6F502
:10280000C87980463068E8B1F068C46804F11800FF
:10281000FFF7ACFD201DFFF7A9FDE06AAA6908FAE1
:1028200000F11143A96100EB800109EB8100211D3A
:10283000FFF7D5FDE06A2968C96A8842E2D3C5F886
:102840002480DFE70CB1FFF7EFFC2C6A44B1464669
:10285000FFF756FF00B16E62641EF9D100202862B6
:10286000686A38B10849012738070860BFF34F8FFD
:10287000BFF36F8FFFF7E0FD3846BDE8F08700003B
:10288000140000209C03002004ED00E0B82800089C
:10289000B51C0008FEFF00000000000080000000E2
:1028A0000000000000000000010203040607080900
:1028B00000000000010203044E756C6C5F546173EC
:1028C0006B000000E42800080000002084000000E5
:1028D000A61E00086829000884000020642F00005C
:1028E000B61E0008000000000100000010000000FB
:1028F000000000000024F4000000000000000000C0
:1029000000000000000000000000000000000000C7
:1029100000000000000000000000000000000000B7
:1029200000000000000000000000000000000000A7
:102930000000000000000000000000000000000097
:102940000000000000000000000000000000000087
:10295000AAAAAAAA000000000000000000000000CF
:0829600000000000000000006F
:04000005080000ED02
:00000001FF
