:020000040800F2
:10000000600C00209D0100087D2D0008132A0008C7
:10001000792D0008F1030008F93200080000000003
:1000200000000000000000000000000005010008C2
:10003000A90400080000000049010008A92D0008DB
:10004000B7010008B7010008B7010008B7010008B0
:10005000B7010008B7010008B7010008B7010008A0
:10006000B7010008B7010008B70100086D040008D7
:10007000B7010008B7010008B7010008B701000880
:10008000B7010008B701000809020008B70100081D
:10009000B7010008B7010008B7010008B701000860
:1000A000B70100085D2E0008B7010008B70100087D
:1000B000B70100086D2E0008B7010008B70100085D
:1000C000B7010008B7010008B7010008B701000830
:1000D000B701000859320008B7010008B70100084D
:1000E000F9040008B7010008B7010008DFF810D0D4
:1000F00000F078F80048004753330008AFF3008061
:10010000600C0020224B19680868B0E8F00F80F3FB
:100110000988BFF36F8F4FF0000080F311884EF015
:100120000D0E70470000000006480068006880F36C
:10013000088862B661B6BFF34F8FBFF36F8F00DFE1
:1001400000BF00BF08ED00E0EFF30980BFF36F8F41
:100150000F4B1A6820E9F00F106008B54FF05000FF
:1001600080F31188BFF34F8FBFF36F8F03F048F90F
:100170004FF0000080F31188BDE808401968086856
:10018000B0E8F00F80F30988BFF36F8F704700BFAE
:1001900014000020EFF305807047000006488047F8
:1001A00006480047FEE7FEE7FEE7FEE7FEE7FEE75C
:1001B000FEE7FEE7FEE7FEE75B2E0008ED00000825
:1001C000D2B201E000F8012B491EFBD27047002299
:1001D000F6E710B513460A4604461946FFF7F0FF46
:1001E000204610BD064C074D06E0E06840F00103D4
:1001F00094E8070098471034AC42F6D3FFF77AFF33
:10020000EC3500080C36000810B5024800F0C8FABA
:1002100010BD00006000002070B504460025206875
:10022000806800F0010018B32068806820F00100A9
:100230002168886001F0B8F8054613E001F0B4F8D1
:10024000401B02280ED92068806800F0010048B1E8
:10025000A06A40F01000A062E06A40F00100E06295
:10026000012070BD2068806800F001000028E5D101
:100270000020F6E770B505466C6AA06A00F05000F1
:10028000E0B9A06A40F40070A0622068806800F4C1
:100290006020B0F5602F0DD1207B58B9A06A20F402
:1002A0008070A062A06A00F4805018B9A06A40F083
:1002B0000100A062204600F06BFA03E0206A016BA7
:1002C0002846884770BD70B505466C6AA06A40F044
:1002D0004000A062E06A40F00400E062204600F0C6
:1002E0005EFA70BD70B50446656A284600F056FA9D
:1002F00070BD000038B5044600250020009020683D
:10030000806800F0010078BB2068806840F0010040
:1003100021688860194800681949B0FBF1F0009025
:1003200002E00098401E009000980028F9D101F0EA
:100330003BF8054619E001F037F8401B022814D9B4
:100340002068806800F0010078B9A06A40F01000D1
:10035000A062E06A40F00100E06200BF002084F883
:10036000240000BF012038BD05E02068806800F04F
:1003700001000028DFD00020F5E700001000002079
:1003800040420F0010B5002407E02021134800F080
:10039000FBFF642000F044FE641C0A2CF5DB1048CF
:1003A00000F0B8F808B100F0ADF805220D490C488E
:1003B00000F0A2FB08B100F0A5F800200A4908707F
:1003C00000F073F8012801D000F09CF82C210A20DD
:1003D00000F010F80548006810BD0000000801405A
:1003E00060000020520800205C0000200000002077
:1003F00000BFFEE770B504460D4608E0202108481E
:1004000000F0C2FF284600F00BFE601EC4B2002CB4
:10041000F4DC00222021024800F0C0FF70BD000083
:100420000008014010B50124034801F023FF00B18A
:10043000FF24204610BD00002801002010B5012433
:1004400001220849084802F0C1FA00B1FF24064819
:100450000068C06840F0100003490968C860204681
:1004600010BD0000500000207001002010B50248AF
:1004700000F086FC10BD00009000002030B590F820
:1004800040500124AC40C56B6C60046863604468F4
:10049000102C04D10468A2600468E16003E00468E1
:1004A000A1600468E26030BD704710B5012400F01F
:1004B0000FF8012800D0FF24FFF7B4FF012800D077
:1004C000FF24FFF7BBFF012800D0FF24204610BD0A
:1004D00010B5012400222103064800F05FFF4FF40D
:1004E000FA7000F09DFD01221103024800F056FF52
:1004F000204610BD000C014010B54FF4005000F034
:10050000A5FD10BD72B603E0BC210A20FFF772FF03
:10051000FAE70000F8B5044600260020009000BF6E
:1005200094F82400012801D10220F8BD012084F8AC
:10053000240000BF2046FFF76FFE0646002E6CD158
:10054000A06A20F4885040F00200A062022001F06E
:1005500049F935490968B1FBF0F04000009002E02C
:100560000098401E009000980028F9D12046FFF71F
:10057000C1FE2068806840F008002168886000F0B3
:1005800013FF054616E000F00FFF401B0A2811D9A3
:100590002068806800F0080060B1A06A20F00200C6
:1005A00040F01000A06200BF002084F8240000BFCB
:1005B0000120BAE72068806800F008000028E2D136
:1005C0002068806840F004002168886000F0ECFE3C
:1005D000054616E000F0E8FE401B0A2811D9206805
:1005E000806800F0040060B1A06A20F0020040F0D2
:1005F0001000A06200BF002084F8240000BF01208A
:1006000093E72068806800F004000028E2D1A06A27
:1006100020F0020040F00100A06200BF002084F83A
:10062000240000BF304680E7100000207047000023
:1006300038B5024600230020009000BF92F8240045
:10064000012801D1022038BD012082F8240000BF1A
:100650004868072812D21068406B0C79641E04EBBE
:1006600084051F24AC40A0430D796D1E05EB850564
:100670000C68AC4020431468606327E048680D288C
:1006800012D21068006B0C79E41F04EB84051F2460
:10069000AC40A0430D79ED1F05EB85050C68AC401F
:1006A00020431468206311E01068C06A0C790D3C87
:1006B00004EB84051F24AC40A0430D790D3D05EBF0
:1006C00085050C68AC4020431468E06208680A287D
:1006D00012D31068C0680C780A3C04EB4405072468
:1006E000AC40A0430D780A3D05EB45058C68AC4055
:1006F00020431468E0600FE0106800690C7804EB98
:1007000044050724AC40A0430D7805EB45058C68F3
:10071000AC402043146820610868102802D00868A3
:10072000112827D1174C1068A0421ED1106880688C
:1007300000F40000F0B91068806840F4000014680C
:10074000A0600868102815D10F4800680F4CB0FB56
:10075000F4F000EB80004000009002E00098401EA2
:10076000009000980028F9D104E0906A40F0200041
:100770009062012300BF002082F8240000BF1846C9
:1007800061E70000002401401000002040420F00FB
:100790000121014A117070475C00002070477047CA
:1007A00010B504462068406800F0200020282FD1B2
:1007B0002068006800F00200022829D1A06A00F039
:1007C000100018B9A06A40F40070A0622068806828
:1007D00000F46020B0F5602F13D1207B88B9206829
:1007E000406820F0200021684860A06A20F48070F2
:1007F000A062A06A00F4805018B9A06A40F001001D
:10080000A0622046FFF7C4FF6FF012002168086065
:100810002068406800F0800080283BD12068006894
:1008200000F00400042835D1A06A00F0100018B9C7
:10083000A06A40F40050A0622068806800F4E040A4
:10084000B0F5E04F0DD02068406800F48060D0B96A
:100850002068806800F46020B0F5602F13D1207B01
:1008600088B92068406820F0800021684860A06A4C
:1008700020F48050A062A06A00F4807018B9A06AC9
:1008800040F00100A0622046FFF7D0FE6FF00C00A0
:10089000216808602068406800F0400040280FD1BF
:1008A0002068006800F0010050B1A06A40F4803078
:1008B000A062204600F0A8F86FF0010021680860EF
:1008C00010BD00002DE9F041044600270025002658
:1008D000A84614B90120BDE8F081A06810B1207DC0
:1008E00000B100BFA06A30B90020E06284F82400A3
:1008F000204600F08BF82046FFF78EFC0746A06AE2
:1009000000F01000002873D1002F71D1A06A20F4EC
:10091000885040F00200A062E16960680843217BD2
:1009200040EA41000643A068B0F5807F02D0A0688D
:10093000012802D14FF4807000E000200543207DA3
:10094000012811D1207B38B9A069401E4FF4006105
:1009500041EA4030054307E0A06A40F02000A06271
:10096000E06A40F00100E0622068406820F46940DD
:100970002843216848602068806821490840304346
:1009800021688860A068B0F5807F02D0A068012847
:1009900002D14FF4807000E00020B0F5807F03D1D9
:1009A000208A401E4FEA00582068C06A20F4700078
:1009B00040EA08002168C862206880681149084040
:1009C000B04208D10020E062A06A20F0020040F0AE
:1009D0000100A06211E0A06A20F0020040F01000C7
:1009E000A062E06A40F00100E062012705E0FFE755
:1009F000A06A40F01000A062012738466BE70000B3
:100A0000FDF7E1FFFE0E1FFF7047000010B586B036
:100A1000044600200290039004900590304920681D
:100A200088425BD100BF2F48806940F400702D4997
:100A300088610846806900F40070019000BF00BF23
:100A400000BF0846806940F004008861084680695C
:100A500000F00400019000BF00BF00BF084680699D
:100A600040F0080088610846806900F008000190A5
:100A700000BF00BFD02002900320039002A91A48B3
:100A800000F0F2FA012002900320039002A9174817
:100A900000F0EAFA16481749086000204860002173
:100AA000144881608021C160490001618900416171
:100AB000202181610902C16100F030FA08B1FFF71D
:100AC00021FD00BF0B482062446200BF00220521C7
:100AD000122000F035FE122000F022FE06B010BDFC
:100AE000002401400010024000080140000C0140B9
:100AF00008000240900000202DE9F04104460D4618
:100B00001646002757492068884203D05649206876
:100B1000884205D15348001D006800F4702000E0B1
:100B2000002000287ED100BF94F82400012802D1C3
:100B30000220BDE8F081012084F8240000BF204697
:100B4000FFF7D8FB0746002F6DD1A06A40F6016180
:100B5000884340F48070A06243492068884209D1EC
:100B60004048001D006800F4702008B9012002E030
:100B7000002000E0012078B1A06A20F48010A0627B
:100B80002068406800F4806000B3A06A20F4005040
:100B900040F48050A06219E0A06A40F48010A06286
:100BA00030492068884203D02F492068884205D107
:100BB0002C48001D006800F4806000E0002028B18F
:100BC000A06A20F4005040F48050A062A06A00F4B3
:100BD000805020B1E06A20F00600E06201E00020D1
:100BE000E06200BF002084F8240000BF1F48216A93
:100BF00088621F48216AC8621E48216A08636FF034
:100C00000200216808602068806840F480702168D4
:100C10008860226802F14C0133462A46206A00F0BF
:100C2000B1F901E01AE014E02068806800F4602067
:100C3000B0F5602F06D12068806840F4A0002168DC
:100C400088600CE02068806840F48010216888602B
:100C500005E000BF002084F8240000E001273846AA
:100C600067E70000002401400028014075020008E9
:100C7000E5020008C70200080146002291F82100A1
:100C8000022808D00420886300BF002081F82000DB
:100C900000BF012070470868006820F00E000B6854
:100CA00018600868006820F001000B68186091F86F
:100CB000403001209840CB6B5860012081F8210022
:100CC00000BF002081F8200000BF1046E2E70000CE
:100CD00070B50446002594F82100022803D00420B2
:100CE000A063012548E02068006820F00E0021681C
:100CF00008602068006820F00100216808601F4932
:100D00002068884201D1012026E01C491431206866
:100D1000884201D110201FE01849283120688842FC
:100D200001D1801518E015493C312068884201D175
:100D3000801411E0114950312068884202D14FF4EB
:100D4000803009E00D4964312068884202D14FF4B7
:100D5000801001E04FF08070084908394860012098
:100D600084F8210000BF002084F8200000BF606BE1
:100D700010B12046616B8847284670BD08000240CC
:100D800070B50446E06B05682068066894F840106A
:100D9000042088402840002846D006F0040000289F
:100DA00042D02068006800F0200028B92068006860
:100DB00020F004002168086057492068884201D16A
:100DC000042027E0544914312068884201D1402092
:100DD00020E0514928312068884201D1001519E0EE
:100DE0004D493C312068884202D14FF4804011E0E7
:100DF000494950312068884202D14FF4802009E0EF
:100E0000454964312068884202D14FF4800001E0F6
:100E10004FF08060404908394860E06A00287AD085
:100E20002046E16A884776E094F840100220884026
:100E30002840A0B306F0020088B32068006800F0E4
:100E4000200040B92068006820F00A00216808608E
:100E5000012084F8210030492068884201D1022015
:100E600028E02D4914312068884201D1202021E05A
:100E7000294928312068884201D140151AE02649C5
:100E80003C312068884202D14FF4005012E02249E0
:100E900050312068884203D14FF400300AE017E057
:100EA0001D4964312068884202D14FF4001001E0EE
:100EB0004FF0007018490839486000BF002084F8DE
:100EC000200000BFA06A30B32046A16A884722E014
:100ED00094F84010082088402840E0B106F008004F
:100EE000C8B12068006820F00E002168086094F8FE
:100EF000401001208840E16B48600120A06384F825
:100F0000210000BF002084F8200000BF206B10B13A
:100F10002046216B884770BD080002400146002230
:100F200009B901207047164B0868C01A1423B0FB9A
:100F3000F3F08000086412480838C863022081F882
:100F400021000868026843F6F0708243D1E901038A
:100F50001843CB6818430B6918434B6918438B69D6
:100F60001843CB6918430243086802600020886375
:100F7000012081F82100002081F8200000BFD1E786
:100F8000080002402DE9F04104460D4616461F4672
:100F90004FF0000800BF94F82000012802D1022081
:100FA000BDE8F081012084F8200000BF94F8210002
:100FB00001282CD1022084F821000020A0632068A1
:100FC000006820F00100216808603B46324629464F
:100FD0002046FFF753FAE06A30B12068006840F01D
:100FE0000E00216808600BE02068006820F0040013
:100FF000216808602068006840F00A0021680860E5
:101000002068006840F001002168086006E000BF29
:10101000002084F8200000BF4FF002084046BFE7E0
:1010200070B5044600F0C0F906462546681C10B1AC
:1010300004480078054400BF00F0B6F9801BA842C0
:10104000FAD370BD0C0000207047000010B50446B4
:1010500004480068204020B1024804602046FFF7A1
:10106000F3FF10BD140401402DE9F84703460022A8
:1010700094466EE14FF0010808FA02F4D1F80080BE
:1010800008EA0400A0427DD1DFF8DCA2D1F8048098
:10109000A8EB0A09D0453AD014DCB8F1030F50D0C0
:1010A00009DCB8F1000F31D0B8F1010F1CD0B8F154
:1010B000020F49D120E0B8F1110F18D0B8F1120F8A
:1010C00042D11EE0B9F5881F25D006DCB9F5803F76
:1010D00020D0B9F5801F37D11AE0B9F5001F18D01C
:1010E000B9F5041F30D117E0D1F80CC02DE0D1F8CC
:1010F0000C8008F1040C28E0D1F80C8008F1080CF1
:1011000023E0D1F80C8008F10C0C1EE000BF00BFFA
:1011100000BF00BF00BF00BFD1F80880B8F1000FCA
:1011200002D14FF0040C0BE0D1F80880B8F1010FA8
:1011300003D14FF0080C1C6102E04FF0080C5C6119
:1011400003E04FF0000C00E000BF00BFFF2801D813
:10115000984601E003F104084646FF2802D84FEA0A
:10116000820803E0A2F108084FEA88084746D6F84B
:1011700000804FF00F0909FA07F928EA09080CFA6C
:1011800007F900E088E048EA0908C6F80080D1F8CD
:10119000048008F08058B8F1805F7DD100BFDFF88F
:1011A000CC81D8F8188048F00108DFF8C091C9F860
:1011B0001880C846D8F8188008F00108CDF80080DB
:1011C00000BF00BF4FEAB9384FEA920958F82950DA
:1011D0004FEA82784FEA18794FF00F0808FA09F8B9
:1011E00025EA0805DFF88881434502D14FF0000861
:1011F00016E0DFF88081434502D14FF001080FE08F
:10120000DFF87481434502D14FF0020808E0DFF8AF
:101210006C81434502D14FF0030801E04FF0040810
:101220004FEA82794FEA197908FA09F848EA050580
:10123000DFF84C814FEA920948F82950D1F8048030
:1012400008F48038B8F5803F0AD1DFF83881D8F843
:10125000008048EA0008DFF82C91C9F8008009E016
:10126000DFF82081D8F8008028EA0008DFF8149120
:10127000C9F80080D1F8048008F40038B8F5003FC0
:1012800010D1DFF8008108F10408D8F8008048EA9E
:101290000008DFF8F09000E05AE009F10409C9F80D
:1012A00000800DE0DFF8DC8008F10408D8F8008049
:1012B00028EA0008DFF8CC9009F10409C9F8008099
:1012C000D1F8048008F48018B8F5801F0ED1DFF83B
:1012D000B48008F10808D8F8008048EA0008DFF870
:1012E000A49009F10809C9F800800DE0DFF89480A6
:1012F00008F10808D8F8008028EA0008DFF8849090
:1013000009F10809C9F80080D1F8048008F4001830
:10131000B8F5001F0ED1DFF86C8008F10C08D8F882
:10132000008048EA0008DFF85C9009F10C09C9F870
:1013300000800DE0DFF84C8008F10C08D8F8008040
:1013400028EA0008DFF83C9009F10C09C9F8008090
:10135000521CD1F8008028FA02F8B8F1000F7FF48F
:1013600089AEBDE8F88700000000111000100240AF
:1013700000080140000C0140001001400014014031
:10138000080001400004014010B5C26821EA0203D0
:1013900002EA010443EA0443036110BD0AB101619A
:1013A00001E00B04036170470148006870470000CA
:1013B0000400002070B504460CB9012070BD94F8FB
:1013C0003D0028B9002084F83C00204600F0DAF8FF
:1013D000242084F83D002068006820F00100216886
:1013E00008602068006840F40040216808602068B8
:1013F000006820F400402168086000F005FC054604
:101400005C496068884206D85B48854201D2012069
:1014100007E0002005E05948854201D2012000E0A4
:101420000020012800D1C9E75548B5FBF0F6206837
:10143000406820F03F003043216848604D496068B3
:10144000884201D8701C07E04FF4967070434FF447
:101450007A71B0FBF1F0401C2168096A21F03F016C
:1014600008432168086243496068884214D8681EAE
:1014700061684900B0FBF1F0401CC0F30B00042888
:1014800001D204203DE0681E61684900B0FBF1F024
:10149000401CC0F30B0034E0A06838B9681E6168D6
:1014A00001EB4101B0FBF1F0401C0AE0681E6168ED
:1014B00001EBC10202EB0111B0FBF1F0401C40F462
:1014C0008040C0F30B0008B901201AE0A06848B9B9
:1014D000681E616801EB4101B0FBF1F0401CC0F3F4
:1014E0000B000CE0681E616801EBC10202EB011108
:1014F000B0FBF1F0401CC0F30B0040F4804040F41E
:1015000000402168C9694CF6FF7291430843216885
:10151000C861D4E9070108432168096821F0C001C6
:10152000084321680860D4E90310084321688968EA
:1015300048F2FF329143084321688860D4E90501ED
:1015400008432168C96821F0FF0108432168C86089
:101550002068006840F001002168086000202064D5
:10156000202084F83D000020206384F83E0000BF66
:1015700024E70000A086010080841E0000093D00D1
:1015800040420F0010B586B0044600200290039040
:101590000490059015492068884225D100BF144861
:1015A000806940F00800124988610846806900F0AF
:1015B0000800019000BF00BFC020029012200390DD
:1015C0000320059002A90B48FFF74EFD00BF084815
:1015D000C06940F400100649C8610846C06900F4BB
:1015E0000010019000BF00BF06B010BD00540040C5
:1015F00000100240000C01400348006803490978CC
:101600000844014908607047040000200C000020D5
:1016100010B50848006840F0100006490860032033
:1016200000F0CCF8002000F007F800F049F80020A6
:1016300010BD00000020024070B588B004460025AF
:10164000002600222146192000F07AF8192000F027
:1016500067F800BF1648806940F40060144988614B
:101660000846806900F40060019000BF00BF02A935
:1016700003A800F0A1FA00F0D7FA45000D48B5FB29
:10168000F0F0461E0C480D49086040F2E7310B4867
:10169000C160466000210161816000F095FD20B9C4
:1016A000064800F0E7FD08B070BD0120FBE7000030
:1016B0000010024040420F00002C01403C0200207C
:1016C00008B500BF1448806940F0010012498861E4
:1016D0000846806900F00100009000BF00BF00BF15
:1016E0000846C06940F08050C8610846C06900F0F3
:1016F0008050009000BF00BF00220F21901E00F01C
:101700001FF800BF0549486820F0E06040F0007015
:10171000486000BF08BD000000100240000001400A
:1017200001460846002809DB00F01F0301229A4009
:1017300043099B0003F1E023C3F8002100BF704779
:101740002DE9F05F80460D461646002701F0D6FDD4
:10175000074639462A46334601F00700C0F1070A1A
:10176000BAF1040F02D94FF0040A01E0C0F1070AF0
:10177000D14600F1040ABAF1070F02D24FF0000A75
:1017800001E0A0F1030AD4464FF0010A0AFA09FA6F
:10179000AAF1010A0AEA020A0AFA0CFA4FF0010B4E
:1017A0000BFA0CFBABF1010B0BEA030B4AEA0B043F
:1017B0002146404601F0AAFDBDE8F09F00BF00F0C1
:1017C0000702064B19684FF6FF031940044B0B4301
:1017D00043EA0221014B196000BF70470CED00E0A5
:1017E0000000FA052DE9F04385B006463BA30FCB78
:1017F00001AC0FC43DA0006800904FF00008002528
:1018000000270024A146012E30D0022E55D0102EE4
:101810005ED137484468006800F0807000B301A8CA
:10182000C4F38341475C04F4803070B130484068B1
:10183000C0F340401DF8008004F4803040B12D48D2
:10184000B0FBF8F000FB07F502E02B4807FB00F5C2
:101850002748406800F48000B0F5800F01D1A94608
:1018600003E068000321B0FBF1F932E02048046A8C
:1018700004F44070B0F5807F05D104F0020010B18F
:101880004FF4004918E004F44070B0F5007F07D130
:101890001748406A00F0020010B149F640490BE0D9
:1018A00004F44070B0F5407F06D11148006800F4A0
:1018B000003008B14FF224490BE000F0B5F90C49B3
:1018C0004968C1F38131491C4900B0FBF1F900E0DE
:1018D00000BF00BF484605B0BDE8F0830203040521
:1018E000060708090A0B0C0D0E0F1010010200006C
:1018F0000010024000127A0000093D00F8B50446CD
:1019000000260025207800F0010000286BD0002779
:101910004348C06900F0805070B900BF4048C069BA
:1019200040F080503E49C8610846C06900F08050D0
:10193000009000BF00BF01273A48006800F48070A3
:10194000B0B93848006840F4807036490860FFF745
:101950002BFD064606E0FFF727FD801B642801D912
:101960000320F8BD2F48006800F480700028F2D0F2
:101970002B48006A00F440752DB3A08800F4407035
:10198000A84220D02648006A20F44075012026494C
:101990000860002008602248056205F0010090B14F
:1019A000FFF702FD064608E0FFF7FEFC801B41F250
:1019B0008831884201D90320D3E71948006A00F032
:1019C00002000028F0D01648006A20F440706168D8
:1019D000084313490862012F04D10846C06920F06A
:1019E0008050C86100BF207800F00200022807D1B3
:1019F0000B48406820F44040A1680843084948600B
:101A0000207800F01000102807D10548406820F425
:101A10008000E1680843024948600020A1E7000017
:101A200000100240007000404004424270B504467D
:101A30000D460CB9012070BD5A48006800F007003F
:101A4000A8420ED25748006820F0070028435549A5
:101A500008600846006800F00700A84201D0012095
:101A6000E9E7207800F0020002281DD1207800F07C
:101A70000400042805D14C48406840F4E0604A491D
:101A80004860207800F00800082805D146484068E2
:101A900040F46050444948604348406820F0F000FA
:101AA000A168084340494860207800F0010078B3FD
:101AB0006068012806D13C48006800F4003090B905
:101AC0000120B8E76068022806D13748006800F0B6
:101AD000007040B90120AEE73348006800F0020012
:101AE00008B90120A7E73048406820F0030061688A
:101AF00008432D494860FFF757FC064609E0FFF709
:101B000053FC801B41F28831884202D9032092E7BE
:101B100007E02548406800F00C006168B0EB810FD9
:101B2000EDD12048006800F00700A8420ED91D48FA
:101B3000006820F0070028431A490860084600683A
:101B400000F00700A84201D0012074E7207800F0DF
:101B50000400042807D11448406820F4E060E168DC
:101B6000084311494860207800F00800082808D18F
:101B70000D48406820F46050216940EAC1000A49DC
:101B8000486000F061F808494968C1F30311074A49
:101B9000515CC8400649086006480068FFF74CFDE4
:101BA000002048E70020024000100240D435000821
:101BB00010000020080000200F2202600D4A526829
:101BC00002F0030242600B4A526802F0F0028260A7
:101BD000084A526802F4E062C260064A526802F49F
:101BE0006052D2080261044A126802F007020A60D9
:101BF00070470000001002400020024001480068C9
:101C0000704700001000002000B5FFF7F7FF0449FF
:101C10004968C1F30221034A515CC84000BD00007D
:101C200000100240E435000800B5FFF7E7FF044963
:101C30004968C1F3C221034A515CC84000BD00009D
:101C400000100240E4350008F0B585B00FF26C0CCE
:101C50009CE8E01001A8A0E8E0101CA52D68009504
:101C600000210022002300240020194D696801F0A2
:101C70000C05F5B1042D02D0082D19D101E015484D
:101C800019E001ADC1F38346AC5D01F4803555B177
:101C90000F4D6D68C5F340451DF805200D4D65439A
:101CA000B5FBF2F302E00C4D04FB05F3184602E02D
:101CB00000BF084800BF00BF05B0F0BD0203040527
:101CC000060708090A0B0C0D0E0F10100102000088
:101CD0000010024000127A0000093D00F8B50446E9
:101CE0000CB90120F8BD207800F00100002878D060
:101CF000F848406800F00C0004280CD0F548406813
:101D000000F00C00082811D1F248406800F480303F
:101D1000B0F5803F0AD1EF48006800F40030002899
:101D20005FD0606800285CD10120DBE700BF6068FD
:101D3000B0F5803F06D1E748006840F48030E549BF
:101D4000086028E0606858B9E248006820F48030F4
:101D5000E04908600846006820F4802008601AE026
:101D60006068B0F5A02F0BD1DA48006840F48020FD
:101D7000D84908600846006840F4803008600AE0EE
:101D8000D448006820F48030D249086008460068D2
:101D900020F48020086000BF606888B1FFF704FB72
:101DA000054606E0FFF700FB401B642801D903202D
:101DB00098E7C848006800F400300028F2D010E02E
:101DC000FFF7F2FA054606E0FFF7EEFA401B64283B
:101DD00001D9032086E7BF48006800F400300028DE
:101DE000F2D1207800F00200022857D1B9484068AB
:101DF00000F00C0050B1B748406800F00C00082813
:101E000018D1B448406800F4803098B9B1480068EF
:101E100000F0020020B12069012801D0012061E713
:101E2000AC48006820F0F800616940EAC100A949A7
:101E3000086033E02069E8B10120A7490860FFF796
:101E4000B3FA054606E0FFF7AFFA401B022801D9B6
:101E5000032047E79F48006800F002000028F2D006
:101E60009C48006820F0F800616940EAC100994987
:101E7000086013E0002098490860FFF795FA0546CE
:101E800006E0FFF791FA401B022801D9032029E759
:101E90009048006800F002000028F2D1207800F09D
:101EA000080008282DD1A069B8B101208B4908602D
:101EB000FFF77AFA054606E0FFF776FA401B02289C
:101EC00001D903200EE78348406A00F00200002891
:101ED000F2D0012000F054FF13E000207F49086099
:101EE000FFF762FA054606E0FFF75EFA401B02289C
:101EF00001D90320F6E67748406A00F00200002886
:101F0000F2D1207800F00400042873D10027714832
:101F1000C06900F0805070B900BF6E48C06940F0E1
:101F200080506C49C8610846C06900F0805000903C
:101F300000BF00BF01276A48006800F48070B0B994
:101F40006748006840F4807065490860FFF72CFA24
:101F5000054606E0FFF728FA401B642801D9032054
:101F6000C0E65F48006800F480700028F2D000BF2F
:101F7000E068012806D15748006A40F00100554941
:101F8000086227E0E06858B95248006A20F0010072
:101F9000504908620846006A20F00400086219E00F
:101FA000E06805280BD14B48006A40F0040049491D
:101FB00008620846006A40F0010008620AE04548ED
:101FC000006A20F00100434908620846006A20F0D8
:101FD0000400086200BFE068A0B1FFF7E5F905461C
:101FE00009E0FFF7E1F9401B41F28831884202D94C
:101FF000032077E622E03748006A00F0020000285C
:10200000EFD012E0FFF7D0F9054608E0FFF7CCF972
:10201000401B41F28831884201D9032062E62D48F5
:10202000006A00F002000028F0D1012F05D12948F4
:10203000C06920F080502749C86100BFE069C8B37B
:102040002448406800F00C00082860D0E0690228AD
:1020500048D1002020490866FFF7A6F9054606E0AA
:10206000FFF7A2F9401B022801D903203AE61948DC
:10207000006800F000700028F2D1206AB0F5803FBF
:1020800007D11448406820F40030A1680843114982
:102090004860D4E9080108430E49496821F47411E5
:1020A00008430C49486001200B490866FFF77CF99A
:1020B000054607E03DE0FFF777F9401B022801D90C
:1020C00003200FE60348006800F000700028F2D0FB
:1020D0002FE0000000100240000042428004424213
:1020E00000700040002014490866FFF75DF90546BE
:1020F00006E0FFF759F9401B022801D90320F1E55A
:102100000E48006800F000700028F2D111E0E0698C
:10211000012800D1E6E50948466806F48031206AC6
:10212000814204D106F47011606A814201D001201D
:10213000D8E50020D6E50000000042420010024031
:102140007047704730B502460B4600BF92F83C001E
:10215000012801D1022030BD012082F83C0000BFDF
:10216000022082F83D00106844681068816824F0FD
:1021700070041868044310684460104D1068A84249
:102180000BD01068B0F1804F07D00D4D1068A842F9
:1021900003D00C4D1068A84205D121F08001586889
:1021A000014310688160012082F83D0000BF0020DB
:1021B00082F83C0000BF00BFCDE70000002C0140CA
:1021C000000400400008004010B504460CB901208E
:1021D00010BD94F83D0028B9002084F83C0020464A
:1021E00000F026F8022084F83D00211D206800F050
:1021F00045FE012084F8460000BF84F83E0001211E
:102200003F200155402001554120015500BF00BF2E
:10221000012084F842004320015544200155452007
:10222000015500BF012084F83D000020D0E70000E8
:1022300038B504460D492068884215D100BF0C48C6
:10224000C06940F002000A49C8610846C06900F050
:102250000200009000BF00BF002205211D20FFF7F3
:102260006FFA1D20FFF75CFA38BD00000004004043
:1022700000100240014691F83D00012801D00120E4
:102280007047022081F83D000868C06840F00100F6
:102290000B68D860124B086898420BD00868B0F100
:1022A000804F07D00F4B0868984203D00E4B086848
:1022B00098420CD10868806800F00702062A0CD00A
:1022C0000868006840F001000B68186005E00868C5
:1022D000006840F001000B6818600020D0E70000A3
:1022E000002C014000040040000800402DE9F041AE
:1022F00004460D4600BF94F83C00012802D102209C
:10230000BDE8F081012084F83C0000BF022084F881
:102310003D002068866826F0770626F47F46206810
:1023200086602868502833D00CDC202850D004DC8C
:1023300000284BD0102851D149E0302849D04028FE
:102340004CD139E060282DD0702807D0B0F5805FDF
:1023500003D0B0F5005F41D10DE040E0D5E90213B4
:102360006A68206800F0C4FD2068866846F0770639
:102370002068866033E0D5E902136A68206800F0BF
:10238000B7FD2068806840F480402168886026E0BE
:10239000EA686968206800F0BFFD5021206800F0FD
:1023A000B2FD1CE0EA686968206800F0C8FD6021A1
:1023B000206800F0A8FD12E0EA686968206800F073
:1023C000ABFD4021206800F09EFD08E000BF00BF8B
:1023D00000BF2968206800F096FD00E000BF00BF44
:1023E000012084F83D0000BF002084F83C0000BFBD
:1023F00000BF85E7704710B5044620680069C0F348
:102400004000D8B12068C068C0F34000B0B16FF0A0
:10241000020021680861012020772068806900F0AF
:10242000030018B12046FFF7E5FF05E0204600F065
:10243000ADF8204600F0ABF8002020772068006956
:10244000C0F38000D8B12068C068C0F38000B0B18C
:102450006FF00400216808610220207720688069FD
:1024600000F4407018B12046FFF7C4FF05E0204695
:1024700000F08CF8204600F08AF8002020772068D1
:102480000069C0F3C000D8B12068C068C0F3C000C4
:10249000B0B16FF00800216808610420207720683F
:1024A000C06900F0030018B12046FFF7A3FF05E064
:1024B000204600F06BF8204600F069F800202077F5
:1024C00020680069C0F30010D8B12068C068C0F36C
:1024D0000010B0B16FF0100021680861082020776B
:1024E0002068C06900F4407018B12046FFF782FFF1
:1024F00005E0204600F04AF8204600F048F80020A9
:1025000020772068006900F0010058B12068C06899
:1025100000F0010030B16FF0010021680861204631
:1025200000F036F820680069C0F3C01058B1206888
:10253000C068C0F3C01030B16FF08000216808613E
:102540002046FFF7FDFD20680069C0F3801058B1F8
:102550002068C068C0F3801030B16FF0400021687F
:102560000861204600F020F820680069C0F34010A0
:1025700058B12068C068C0F3401030B16FF020003F
:10258000216808612046FFF7DCFD10BD70477047E9
:1025900010B5044603492068884201D1FFF72CF8A2
:1025A00010BD0000002C01407047704770470000CC
:1025B0002DE9F84F0446206805682068C668206841
:1025C00047694FF00009CA4605F00F09B9F1000F3D
:1025D0000AD105F0200038B106F0200020B12046D5
:1025E00000F0F6FCBDE8F88FB9F1000F71D007F0EC
:1025F000010018B906F4907000286AD005F00100B7
:1026000030B106F4807018B1206C40F001002064F5
:1026100005F0040030B107F0010018B1206C40F063
:102620000200206405F0020030B107F0010018B18B
:10263000206C40F00400206405F0080048B106F06A
:10264000200010B907F0010018B1206C40F008001C
:102650002064206C68B305F0200028B106F020004B
:1026600010B1204600F0B4FC20684069C0F3801A25
:10267000206C00F0080010B9BAF1000F22D02046FB
:1026800000F07BFC2068406900F04000B0B1206899
:10269000406920F0400021684861A06B50B1564865
:1026A000A16B4863A06BFEF713FB10B1A06B416BED
:1026B00088470CE02046FFF779FF08E02046FFF747
:1026C00075FF04E02046FFF771FF0020206489E7D2
:1026D000FFE7206B012878D105F01000002874D0A6
:1026E00006F01000002870D000BF00200090206885
:1026F0000068009020684068009000BF00BF20681C
:10270000406900F04000C0B3A06B006840681FFA49
:1027100080F8B8F1000F2FD0A08D40452CDDA4F833
:102720002E80A06B806920281FD02068C06820F40C
:1027300080702168C8602068406920F0010021682D
:1027400048612068406920F04000216848612020ED
:1027500084F83E00002020632068C06820F010004C
:102760002168C860A06BFEF787FAA08DE28D801A01
:1027700081B22046FFF719FF34E7FFE7A08DE18D16
:10278000401A1FFA80F8E08DE8B1B8F1000F1AD0B6
:102790002068C06820F490702168C8602068406993
:1027A00020F0010021684861202084F83E000020CC
:1027B00020632068C06820F010002168C86041468E
:1027C0002046FFF7F2FE0DE7FFE705F0800030B18D
:1027D00006F0800018B1204600F00DFD02E705F07C
:1027E000400030B106F0400018B1204600F0E0FB98
:1027F000F8E600BFF6E60000672F000810B50446B3
:102800000CB9012010BDA06900B100E000BF94F830
:102810003D0028B9002084F83C00204600F028F84C
:10282000242084F83D002068C06820F4005021680E
:10283000C860204600F03EFC2068006920F490400B
:10284000216808612068406920F02A0021684861F9
:102850002068C06840F400502168C86000202064EF
:10286000202084F83D0084F83E000020CAE70000E4
:1028700010B586B0044600200290039004900590A5
:102880004C492068884237D100BF4B48806940F4EA
:102890008040494988610846806900F48040019081
:1028A00000BF00BF00BF0846806940F00400886197
:1028B0000846806900F00400019000BF00BF481581
:1028C0000290022003900320059002A93B48FEF7E6
:1028D000CBFB4FF48060029000200390049002A98B
:1028E0003648FEF7C1FB002207212520FEF728FF0E
:1028F0002520FEF715FF5BE031492068884224D18E
:1029000000BF2D48C06940F400302B49C86108461B
:10291000C06900F40030019000BF00BF00BF08464E
:10292000806940F0040088610846806900F0040076
:10293000019000BF00BF0C20029002200390059080
:1029400002A91E48FEF790FB32E01E49206888422B
:102950002ED100BF1848C06940F480201649C861D4
:102960000846C06900F48020019000BF00BF00BF8E
:102970000846806940F0080088610846806900F0D8
:102980000800019000BF00BF0815029002200390CC
:102990000320059002A90C48FEF766FB4FF4006087
:1029A000029000200390049002A90748FEF75CFB08
:1029B00006B010BD00380140001002400008014080
:1029C0000044004000480040000C014070B504463F
:1029D0000D46164694F83E00202816D105B10EB9D2
:1029E000012070BD00BF94F83C00012801D10220F5
:1029F000F7E7012084F83C0000BF00202063324646
:102A00002946204600F0D4FBEBE70220E9E77047B7
:102A1000704700BFFEE700000EB500200090019057
:102A200002902948294908608115284881600021C1
:102A300001730121017581614FF46021C1610020A2
:102A400022494860052121480161FDF73BFF08B19B
:102A5000FDF758FD0420009001200190062002900F
:102A600069461A48FDF7E4FD08B1FDF74BFD062065
:102A700000900220019069461448FDF7D9FD08B185
:102A8000FDF740FD072000900320019069460F48A4
:102A9000FDF7CEFD08B1FDF735FD082000900420BC
:102AA000019069460948FDF7C3FD08B1FDF72AFD0D
:102AB000112000900520019069460448FDF7B8FDFB
:102AC00008B1FDF71FFD0EBD00240140600000208D
:102AD00008B500BF0A48406940F001000849486154
:102AE0000846406900F00100009000BF00BF0022CE
:102AF00006210B20FEF724FE0B20FEF711FE08BD79
:102B00000010024000B585B00020019002900390B3
:102B1000049000BF3E48806940F010003C49886145
:102B20000846806900F01000009000BF00BF00BFA1
:102B30000846806940F0200088610846806900F0FE
:102B40002000009000BF00BF00BF0846806940F031
:102B5000040088610846806900F00400009000BF0E
:102B600000BF00BF0846806940F008008861084641
:102B7000806900F00800009000BF00BF0022202103
:102B80002448FEF70BFC00224FF440512248FEF788
:102B900005FC012204212148FEF700FC4FF40050FF
:102BA00001901F4802900020039001A91D48FEF7E4
:102BB0005BFA202001900120029000200390022067
:102BC000049001A91348FEF74FFA4FF440500190CA
:102BD00001200290002003900120049001A90E48DA
:102BE000FEF742FA04200190012002900390032096
:102BF000049001A90948FEF737FA00220C21282089
:102C0000FEF79EFD2820FEF78BFD05B000BD0000FD
:102C10000010024000080140000C01400014014077
:102C2000000011100010014010B50B480B4908605E
:102C30000B484860002109488160C1604FF4804121
:102C40000161002141618161C1610162FEF7B2FB56
:102C500008B1FDF757FC10BD00540040D40000201F
:102C6000A086010000B587B0002003900490059075
:102C700006900190029014481449086040F60F60D5
:102C800048600021114881606321C1600021016119
:102C90008161FFF799FA08B1FDF734FC4FF48050D9
:102CA000039003A90948FFF721FB08B1FDF72AFCAF
:102CB00000200190029001A90448FFF743FA08B1EF
:102CC000FDF720FC07B000BD0004004028010020F3
:102CD00010B50B480B4908604FF4E1304860002103
:102CE00008488160C16001610C214161002181615E
:102CF000C161FFF783FD08B1FDF704FC10BD0000C2
:102D0000003801407001002010B50B480B490860E5
:102D10004FF4E1304860002108488160C1600161E2
:102D20000C21416100218161C161FFF767FD08B19C
:102D3000FDF7E8FB10BD000000440040B401002096
:102D400010B50B480B4908604FF4E1304860002192
:102D500008488160C16001610C21416100218161ED
:102D6000C161FFF74BFD08B1FDF7CCFB10BD0000C2
:102D700000480040F801002000BFFEE700BFFEE76A
:102D800008B508490968C9084FF47A72B1FBF2F135
:102D90004143009100BF00BF00994A1E00920029E4
:102DA000F9D108BD1000002010B500BF502080F3FD
:102DB0001188BFF34F8FBFF36F8F00BF00F066FB2A
:102DC00018B14FF080500449086000BF002080F324
:102DD000118800BF10BD000004ED00E000B593B005
:102DE000282109A8FDF7F3F9142104A8FDF7EFF94C
:102DF0000020009001900290039002200990012091
:102E00000D9010200E9002201090002111914FF48F
:102E10004011129109A8FEF761FF08B1FDF772FB9E
:102E20000F20049002200590002006904FF480604F
:102E300007900890022104A8FEF7F8FD08B1FDF7FD
:102E400061FB02200090002002906846FEF756FDCC
:102E500008B1FDF757FB13B000BD704710B502482D
:102E6000FFF7C9FA10BD00003C02002010B502486F
:102E7000FFF7C1FA10BD00002801002010B502685C
:102E8000184B984208D0B0F1804F05D0164B9842AD
:102E900002D0164B984203D122F070024B681A43BD
:102EA000104B984208D0B0F1804F05D00E4B98429D
:102EB00002D00E4B984203D122F44072CB681A43E1
:102EC00022F080034C6943EA040202608B68C3620B
:102ED0000B688362034B984201D10B6903630123A2
:102EE000436110BD002C0140000400400008004078
:102EF00030B50C46816821F47F4142EA0325254321
:102F00002943816030BD0A46816821F0700142F09A
:102F1000070319438160704730B50B461446026AB7
:102F2000056A25F001050562816921F0F00141EA99
:102F3000041122F00A021A438161026230BD30B5E9
:102F40000B461446056A25F0100505628169026A80
:102F500021F4704141EA043122F0A00242EA031256
:102F60008161026230BD70B505466C6A0020E08563
:102F7000E0842046FFF71AFB70BD0168C96821F4A0
:102F800090710268D1600168496921F0010102680D
:102F90005161016B012905D10168C96821F0100157
:102FA0000268D160202180F83E1000210163704743
:102FB00010B504462068C06820F040002168C86051
:102FC000202084F83D002046FFF722FD002010BDA0
:102FD000F8B5044694F83E00222869D1A068B0F5FF
:102FE000805F0CD1206950B90025A66A206840682E
:102FF000C0F308003080A06A801CA06215E0A56ABA
:103000000026A068B0F5805F03D0A06828B92069C9
:1030100018B920684068287004E02068406800F013
:103020007F002870A06A401CA062E08D401E80B224
:10303000E085A8BB2068C06820F020002168C86037
:103040002068C06820F480702168C86020684069EA
:1030500020F0010021684861202084F83E00206BA8
:1030600001281ED1002020632068C06820F01000D5
:103070002168C8602068006800F0100010280AD19C
:1030800000BF002000902068006800902068406821
:10309000009000BF00BFA18D2046FFF786FA03E035
:1030A00004E02046FFF7B3FC0020F8BD0020FCE759
:1030B0000220FAE770B504462168096921F44051FD
:1030C000E2681143226811612269A16811436269B3
:1030D00041EA02052168C96841F20C629143294323
:1030E0002268D1602168496921F44071A2691143C5
:1030F000226851612D4A2168914202D1FEF794FD68
:1031000001E0FEF781FD00EBC00101EB00116268F8
:103110009200B1FBF2F100EBC00202EB0012636817
:103120009B00B2FBF3F26423B2FBF3F202EBC203A7
:1031300003EB0212A1EB8201322202EB01116422A5
:10314000B1FBF2F101F0F00100EBC00202EB001262
:1031500063689B00B2FBF3F26423B2FBF3F201EB72
:10316000021200EBC00101EB001163689B00B1FB90
:10317000F3F100EBC00303EB00136668B600B3FB8A
:10318000F6F36426B3FBF6F303EBC30606EB031377
:10319000A1EB8301322303EB01116423B1FBF3F1B3
:1031A00001F00F0111442268916070BD00380140A8
:1031B00010B5034699629A85DA85002018642220AA
:1031C00083F83E0000BF002083F83C0000BF186871
:1031D000C06840F480701C68E0601868406940F086
:1031E00001001C6860611868C06840F020001C681D
:1031F000E060002010BD014691F83D00212828D153
:103200008868B0F5805F0BD1086948B90A6A1088F0
:10321000C0F308000B685860086A801C086205E06B
:103220000B6A581C086218780B685860C88C401EDE
:1032300080B2C88458B90868C06820F080000B6864
:10324000D8600868C06840F040000B68D860002073
:1032500070470220FCE7000008B5244800680068B9
:10326000C0F34010E0B12148FFF7A2F92048B0F8C0
:103270000004C0F30E0040F2FF31884210DA1D490D
:103280000B781B49B1F80014C1F30E00411C184A19
:10329000B2F8002461F30E021549A1F800240B5482
:1032A000124800680068C0F30010B0B100BF0020F1
:1032B00000900E480068006800900C480068406864
:1032C000009000BF00BF0A48B0F8000420F400409E
:1032D00000F500400649A1F8000401220549034811
:1032E000FFF774FB0148FFF763F908BD7001002088
:1032F000500400205000002000BFFEE70248006894
:10330000C0F30220704700000CED00E010B500286B
:1033100004DB0A07130E054A135406E00A07140ECD
:10332000034A00F00F031B1FD45410BD00E400E05B
:1033300018ED00E002E008C8121F08C1002AFAD107
:1033400070477047002001E001C1121F002AFBD125
:103350007047FEF75DF9FFF741FDFFF7D3FBFFF77D
:10336000B7FBFFF7D1FCFFF7B3FCFFF7E9FCFFF772
:1033700053FBFFF777FCFFF757FCFDF703F8012835
:1033800001D0FDF7BFF800BFFEE700000A49096859
:10339000096809B9012100E0002121B14FF0FF3196
:1033A000064A116006E004490968C968C868034A0A
:1033B00041681160704700001800002044000020A0
:1033C00001460A69D1E901309860D1E901035860EA
:1033D0005068884201D188685060002008611068F8
:1033E000401E10601068704742684A6093688B60A6
:1033F000936859609160086103685B1C03607047C3
:103400001D48006818B101201C49086032E0002006
:103410001A4908601A480068B0FA80F0C0F11F012C
:1034200001EB8100174A52F8200008B1012000E0AA
:10343000002050B900BF502080F31188BFF34F8F98
:10344000BFF36F8F00BF00BFFEE701EB81020D4BA2
:1034500003EB820042685268426000F10802436850
:10346000934202D14268526842604268D268064B79
:103470001A6000BF704700004C0000203800002098
:103480002C00002084020020140000202DE9F041CF
:103490004FF0000844480068002877D1434800688E
:1034A000451C4248056015BB41480068006808B9E2
:1034B000012000E0002050B900BF502080F31188A7
:1034C000BFF34F8FBFF36F8F00BF00BFFEE73848D9
:1034D000076838480068364908603648076036484B
:1034E0000068401C34490860FFF750FF00BF3348B4
:1034F000006885423CD300BF2D480068006808B9C9
:10350000012000E0002020B14FF0FF302B4908607F
:103510002DE027480068C068C4686668B54202D2DA
:103520002648066023E0201DFFF74AFFA06A18B175
:1035300004F11800FFF744FF94F82C100120884094
:103540001F49096808431E490860E16A01EB8101CF
:103550001C4A02EB8100211DFFF746FF1A49E06A71
:103560000968C96A8842C7D34FF00108C4E700BFA1
:1035700015480068C06A00EB8000124951F820002D
:10358000012801D94FF0010805E0FFE70F48006866
:10359000401C0E4908600E48006808B14FF0010851
:1035A0004046BDE8F08100004C00002028000020CB
:1035B000180000201C0000203C00002044000020D7
:1035C0002C00002084020020140000203400002081
:1035D0003800002000000000000000000102030489
:1035E0000607080900000000010203040C36000869
:1035F0000000002060000000343300086C36000832
:1036000060000020000C00004433000801000000AE
:103610000000000010000000010000000024F40081
:10362000000000000000000000000000000000009A
:10363000000000000000000000000000000000008A
:10364000000000000000000000000000000000007A
:10365000000000000000000000000000000000006A
:0C3660000000000000000000000000005E
:04000005080000ED02
:00000001FF
