:020000040800F2
:10000000580C00209D0100082F2800089F2200089E
:100010002D280008B9030008452D00080000000045
:1000200000000000000000000000000005010008C2
:10003000F303000800000000490100083929000806
:10004000B7010008B7010008B7010008B7010008B0
:10005000B7010008B7010008B7010008B7010008A0
:10006000B7010008B7010008B7010008BD03000888
:10007000B7010008B7010008B7010008B701000880
:10008000B7010008B701000809020008B70100081D
:10009000B7010008B7010008B7010008B701000860
:1000A000B7010008D1290008B7010008B70100080E
:1000B000B7010008DD290008B7010008B7010008F2
:1000C000B7010008B7010008B7010008B701000830
:1000D000B7010008C52C0008B7010008B7010008E7
:1000E00089040008B7010008B7010008DFF810D044
:1000F00000F078F800480047B32D0008AFF3008007
:10010000580C0020224B19680868B0E8F00F80F303
:100110000988BFF36F8F4FF0000080F311884EF015
:100120000D0E70470000000006480068006880F36C
:10013000088862B661B6BFF34F8FBFF36F8F00DFE1
:1001400000BF00BF08ED00E0EFF30980BFF36F8F41
:100150000F4B1A6820E9F00F106008B54FF05000FF
:1001600080F31188BFF34F8FBFF36F8F02F070FEE3
:100170004FF0000080F31188BDE808401968086856
:10018000B0E8F00F80F30988BFF36F8F704700BFAE
:1001900010000020EFF305807047000006488047FC
:1001A00006480047FEE7FEE7FEE7FEE7FEE7FEE75C
:1001B000FEE7FEE7FEE7FEE7CF290008ED000008B6
:1001C000D2B201E000F8012B491EFBD27047002299
:1001D000F6E710B513460A4604461946FFF7F0FF46
:1001E000204610BD064C074D06E0E06840F00103D4
:1001F00094E8070098471034AC42F6D3FFF77AFF33
:100200008C2F0008AC2F0008014800F04BBA00000A
:100210005C00002070B5044600688168C943C907C6
:1002200017D1816821F00101816000F0C5FE05460B
:100230000AE000BF00F0C0FE401B022804D920687D
:100240008068C043C00706D020688068C043C007EC
:10025000F0D0002070BDA06A40F01000A062E06AFB
:1002600040F00100E062012070BD10B50146406A17
:10027000826A12F0500F05D0006A026BBDE8104090
:1002800008461047816A41F40071816201688968FB
:10029000C1F3424107290CD1017B51B9816A21F494
:1002A00080718162816AC90403D4816A41F00101CD
:1002B000816200F0EFF910BD10B5406A816A41F02B
:1002C00040018162C16A41F00401C16200F0E9F9B4
:1002D00010BD10B5406A00F0E3F910BDF8B5002676
:1002E0000446009600688168C943C9072DD081681B
:1002F00041F001018160164816490068B0FBF1F039
:1003000000E0401E00900028FBD100F055FE05469D
:1003100016E000BF00F050FE401B022810D92068F4
:100320008068C043C0070BD0A06A40F01000A062F4
:10033000E06A40F00100E06284F824600120F8BD2A
:1003400020688068C043C007E4D10020F8BD0000E9
:100350000C00002040420F0070B50125124800F04B
:10036000ADF8E0B9052211490F4800F001FBB0B922
:100370000F4900200F4E087004462021304600F03F
:100380000DFE642000F0FAFC641C032CF5DB00F089
:100390003FF8012803D102F04BFA012801D000F008
:1003A00077F8284670BD00005C0000204E08002051
:1003B0004E00002000080140FEE70000014800F068
:1003C000CDBB00008C00002030B590F840500124D7
:1003D000AC40C56B6C60046863604368102B0368B5
:1003E00003D099600068C26030BD9A600068C16047
:1003F00030BD704710B5044601F0B6F90349B0FBB3
:10040000F1F16143491EFDD210BD000060EC5300C4
:1004100070B5012400F022F8012800D0FF240C4818
:1004200001F010FC00B1FF2401252A4609490A48C1
:1004300001F01EFF00B1FF2507480068C16841F0C8
:100440001001C160012D00D0FF24204670BD0000C6
:10045000240100204C0000206C01002070B5012414
:10046000084E250300222946304600F09FFD4FF438
:10047000FA7000F083FC01222946304600F096FD18
:10048000204670BD000C01404FF4005000F08ABCC3
:1004900072B6094C4FF4FA752021204600F07EFD1B
:1004A000322000F06BFC2021204600F077FD28462A
:1004B00000F064FCF0E7000000080140F8B50025FA
:1004C0000446009590F82400012808D0012084F803
:1004D00024002046FFF79EFE060002D053E00220D3
:1004E000F8BDA06A20F4885040F00200A06202200B
:1004F00000F0AAFF26490968B1FBF0F0400000E0D7
:10050000401E00900028FBD12046FFF7E7FE206840
:10051000816841F00801816000F04EFD074608E067
:1005200000F04AFDC01B0A2803D920688068000734
:1005300015D4206880680007F2D42068816841F0F3
:100540000401816000F038FD074612E000F034FD40
:10055000C01B0A280DD920688068400709D5A06A09
:1005600020F0020040F01000A06284F82450012026
:10057000F8BD206880684007E8D4A06A20F0020037
:1005800040F00100A06284F824503046F8BD00001D
:100590000C00002070470000F8B50024009490F88B
:1005A00024202546012A12D0012280F824204A68FE
:1005B0001F23072A0DD20668776B521E02EB8202B8
:1005C00093409F430B6893401F43776319E00220D9
:1005D000F8BD06680D2A0AD2376BD21F02EB8202E1
:1005E00093409F430B6893401F43376309E0F76ACA
:1005F0000D3A02EB820293409F430B6893401F43E6
:10060000F7620A68072306680A2A0AD3F7680A3AD3
:1006100002EB420293409F438B6893401F43F76075
:1006200008E0376902EB420293409F438B68934096
:100630001F4337610A68102A01D0112A20D1124BBA
:1006400002689A4217D193681B0219D4936843F445
:10065000000393600968102912D10C490C4A0968FB
:10066000B1FBF2F101EB8101490000E0491E00916C
:100670000029FBD104E0816A41F02001816201245C
:1006800080F824502046F8BD002401400C000020D2
:1006900040420F0001490120087070474E000020C1
:1006A0007047704710B5044600684168890626D532
:1006B0000168890723D5A16AC90603D4A16A41F458
:1006C0000071A1628168C1F34241072910D1217BE9
:1006D00071B9416821F020014160A06A20F4807066
:1006E000A062A06AC00403D4A06A40F00100A06226
:1006F0002046FFF7CFFF21686FF0120008602068E6
:10070000416809062ED5016849072BD5A16AC9069B
:1007100003D4A16A41F40051A1628168C1F302319E
:10072000072909D04168490515D48168C1F34241C0
:10073000072910D1217B71B9416821F08001416006
:10074000A06A20F48050A062A06AC00503D4A06A09
:1007500040F00100A0622046FFF71CFF21686FF007
:100760000C0008602068416849060DD50068C00784
:100770000AD0A06A40F48030A062204600F094F8CD
:1007800021686FF00100086010BD00002DE9F04104
:100790004FF0000704003D467ED0A06A002628B92D
:1007A000E66284F82460204600F080F82046FFF7D7
:1007B00031FDA16AC90600D420B1A06A40F0100042
:1007C000A06269E0A16A21F4885141F00201A162AE
:1007D0006268E169237B0A4347EA43010A43A1684F
:1007E0004FF48077B94209D0012907D05FF00001AA
:1007F00094F814C0BCF1010F02D00AE03946F7E7C3
:10080000F3B1A36A43F02003A362E36A43F0010358
:10081000E3622368D3F804C02CF4694C4CEA010C61
:10082000C3F804C021688B68DFF870C003EA0C03CA
:1008300013438B60A168B9420BD0012909D00CE0A9
:10084000DFF85CC0A3690CEB43330B4343F4006156
:10085000DFE7218A0D05A5F580152168CB6A23F411
:1008600070032B43CB62216889680E4B194091427B
:1008700008D1E662A16A21F0020141F00101A16202
:10088000BDE8F081A06A20F0020040F01000A062F4
:10089000E06A40F00100E0620120F1E7FDF7E1FFCE
:1008A00000E0FFFFFE0E1FFF7047000070B586B02E
:1008B0000026054600960196029603960068264992
:1008C000884246D12549886940F40070886188696A
:1008D00000F400700490886940F004008861886921
:1008E00000F004000490886940F00800886188697D
:1008F000032400F008000490D020CDE900046946EC
:10090000174800F05BFA0120CDE90004694615485C
:1009100000F054FA154C1448C4E900068020C4E9DC
:10092000026040002061800060612020A061000220
:10093000E061204600F0BCF908B1FFF7A9FD2C6288
:10094000002205211220656200F04CFD122000F00B
:100950003BFD06B070BD00000024014000100240C5
:1009600000080140000C0140080002408C000020FB
:100970002DE9F047894604463B4900683B4F0E1D70
:100980009046884201D0B84207D1306810F4702FE9
:1009900003D001252846BDE8F08794F824000128FB
:1009A0000CD0012084F824002046FFF797FC0500B6
:1009B0004FF0000004D084F82400EBE70220EAE7BF
:1009C000A16A40F60162914341F48071A1622168FD
:1009D000B94218D1326812F4702F14D0A16A41F4D0
:1009E0008011A1623168490505D5A16A21F4005141
:1009F00041F48051A162A16AC9040AD5E16A21F0DB
:100A00000601E16206E0A26A22F48012A26249684D
:100A1000E9E7E06284F82400216A15488862216AC7
:100A20001448C862216A1448086321686FF0020004
:100A300008602068816841F48071816021684346C4
:100A40004A464C31206A00F061F920688168C1F3A0
:100A500042410729816803D041F48011816099E700
:100A600041F4A001FAE70000002401400028014001
:100A70006B020008D3020008B902000810B590F814
:100A800021100022022905D00421816380F8202052
:100A9000012010BD01680B6823F00E030B60016894
:100AA0000B6823F001030B6090F84030C46B012108
:100AB00001FA03F3636080F8211080F820201046CB
:100AC00010BD000010B590F821100024022903D0B9
:100AD0000421816301243DE001680A6822F00E02CE
:100AE0000A6001680A6822F001020A601A4A016875
:100AF000914201D1012121E0174A1432914201D1E2
:100B000010211BE0144A2832914201D1891515E0C9
:100B1000114A3C32914201D189140FE00E4A503201
:100B2000914202D14FF4803108E00B4A6432914285
:100B300002D14FF4801101E04FF08071064A083A6B
:100B40005160012180F82110002180F82010416BB4
:100B500001B18847204610BD080002402DE9F05F32
:100B6000C16B0C6801680B68D0F840C0042202FA1F
:100B70000CF2494DDFF824A1494E4A4FDFF828B165
:100B8000DFF828E122422CD05A072AD50A689206BB
:100B900003D40A6822F004020A600168A94201D164
:100BA000042219E0514501D1402215E0B14202D1A1
:100BB0004FF4806210E0B94202D14FF480420BE062
:100BC000594502D14FF4802206E0714502D14FF41D
:100BD000800201E04FF080622F4908394A60C16A03
:100BE0003BE04FF0020808FA0CF818EA040F4FF047
:100BF00000094FF0010235D05FEA837832D50B68E7
:100C00009B0605D40B6823F00A030B6080F82120B3
:100C10000168A94201D1022219E0514501D12022E7
:100C200015E0B14202D14FF4007210E0B94202D196
:100C30004FF400520BE0594502D14FF4003206E068
:100C4000714502D14FF4001201E04FF000721249D9
:100C500008394A6080F82090816A00291AD0BDE8DE
:100C6000F05F0847082505FA0CF5254212D01B074E
:100C700010D50B6823F00E030B6090F84010C36B87
:100C800002FA01F15960826380F8212080F82090F7
:100C9000016BE2E7BDE8F09F080002401C00024043
:100CA0003000024044000240580002406C00024004
:100CB00030B528B308C8134914221944B1FBF2F126
:100CC0008900C16310498163022141771A6843F6A4
:100CD000F0718A43D0E900142143D0E902452C4346
:100CE0002143046921434469214384692143114319
:100CF000196000214163012242770177084630BD27
:100D0000012030BDF8FFFDBF0000024070B5044671
:100D100090F82000002501280CD0012084F8200044
:100D200094F821600020012E06D084F820000225CE
:100D3000284670BD022070BD022684F82160A063A1
:100D40002068066826F0010606602046FFF73CFB97
:100D5000E06A00282068016802D041F00E0106E038
:100D600021F0040101602068016841F00A0101607E
:100D70002068016841F001010160D9E770B50446BF
:100D800000F01AF90546601C02D0044800780444BB
:100D900000F012F9401BA042FAD370BD0000002001
:100DA00070470000044910B50A68024202D008608A
:100DB000FFF7F6FF10BD0000140401402DE9F84FC5
:100DC000DFF8B891002409F1040A0AF1040B234664
:100DD0000F270BF1040EC9E00125A5402A40AA42C5
:100DE0007DD1674ED1F804C0ACEB0608B44532D0D3
:100DF00014DCBCF1030F3AD009DCBCF1000F2AD09F
:100E0000BCF1010F1CD0BCF1020F31D11DE0BCF1CF
:100E1000110F17D0BCF1120F2AD119E0B8F5881FB5
:100E200019D006DCB8F5803F15D0B8F5801F1FD16A
:100E300011E0B8F5001F0ED0B8F5041F18D10AE074
:100E4000CB6815E0CB681B1D12E0CB6808330FE0C0
:100E5000CB680C330CE08B682BB1012B4FF00803EF
:100E600003D0456104E0042302E0056100E00023B3
:100E7000FF2A01D8064601E000F104064FEA840586
:100E800001D9A5F12005D6F8008007FA05FC28EA6B
:100E90000C0803FA05F548EA0508C6F800804D6815
:100EA000ED0062D5374DAE6946F00106AE61AD6921
:100EB00024F0030605F001050095334D06EB050C03
:100EC000DCF80850A607360F07FA06F825EA0805E9
:100ED000DFF8B880404503D14FF0000817E044E048
:100EE000DFF8AC80404502D14FF001080FE0DFF899
:100EF000A480404502D14FF0020808E0DFF8988056
:100F0000404502D14FF0030801E04FF0040808FA11
:100F100006F848EA0508CCF808804D68D9F8006062
:100F2000ED034D4601D5164300E096432E604D6813
:100F3000DAF80060AD03554601D5164300E096434C
:100F40002E604D68DBF80060ED025D4601D516436A
:100F500000E096432E604D68DEF80060AD027546F5
:100F600001D5164300E096432E60641C0D682A46A6
:100F7000E5407FF431AFBDE8F88F00000004014088
:100F80000000111000100240000001400008014064
:100F9000000C01400010014000140140C26821EA29
:100FA00002030A4043EA0241016170470AB101614C
:100FB00070470904FBE700000148806870470000A3
:100FC0000000002070B5040025D094F83D000025F5
:100FD00020B984F83C50204600F050F9242084F8D1
:100FE0003D002068016821F001010160206801686E
:100FF00041F4004101602068016821F40041016072
:1010000000F0B8FB4D4A6168914201D84C4900E0BC
:101010004C49884201D2012070BD4B492368B0FB86
:10102000F1F15E6826F03F060E435E60636893420E
:1010300006D94FF4967359434FF47A73B1FBF3F129
:101040002368491C1E6A26F03F0631431962616815
:10105000914210D84900401EB0FBF1F2521CC2F37D
:101060000B02042A01D2042022E0B0FBF1F0401C64
:10107000C0F30B001CE0A268F2B301EBC10303EB69
:101080000116431EB3FBF6F35B1C43F480431B05C0
:1010900049D092B301EBC10202EB0111401EB0FB3B
:1010A000F1F0401CC0F30B0040F4804040F40040DD
:1010B0002168CA694CF6FF739A431043C861D4E9AA
:1010C000071001432068026822F0C002114301604A
:1010D000D4E9030101432068826848F2FF339A4350
:1010E00011438160D4E9050108432168CA6822F0F0
:1010F000FF021043C86001E00EE016E020680168BE
:1011000041F0010101602564202084F83D00256341
:1011100084F83E50002070BD01EB4106431EB3FB36
:10112000F6F35B1CB3E70120C2E701EB4101401E6F
:10113000B0FBF1F0401CC0F30B00B7E7A086010044
:1011400080841E0000093D0040420F002DE9FF4F42
:1011500083B09A46DDE9119793460446DDF8408056
:10116000FFF72AFF054694F83D0020287FD1192378
:10117000012240492046009501F024F9002876D14B
:1011800094F83C00012872D0012084F83C002068CB
:101190000168C90703D1016841F0010101602068BD
:1011A000016821F400610160212084F83D004020A5
:1011B00084F83E0000262664C4F82480A4F82A900F
:1011C000608D20852C48E062CDE9007553465A4673
:1011D0002046049901F07CF870B930E02A4639467F
:1011E000204601F06EF958B1206C042804D1206823
:1011F000016841F400710160012007B0BDE8F08F83
:10120000606A216800780861606A401C6062218D14
:10121000491E89B22185628D521E628522685369FA
:10122000DB435B070BD469B100781061606A401C36
:101230006062208D401E2085608D401E6085208D5F
:101240000028CBD12A463946204601F095F80028DF
:10125000CAD154F83D0B016841F4007101602020AF
:1012600004F81E09E67766770020C6E7FFE702204C
:10127000C3E70000020010000000FFFF10B586B0B9
:101280000021009101910291039100680F49884269
:101290001AD10F4CA06940F00800A061A06969460E
:1012A00000F008000490C02000901220019003205C
:1012B00003900848FFF782FDE06940F40010E06108
:1012C000E06900F40010049006B010BD0054004026
:1012D00000100240000C014002488168027811446D
:1012E0008160704700000020074810B5016841F098
:1012F00010010160032000F095F8002000F006F8CE
:1013000000F03EF8002010BD0020024000B501466C
:1013100087B00022192000F065F8192000F054F879
:101320001348816941F400618161806905A900F475
:1013300000600690684600F0F7F900F02BFA0D49BE
:101340004000B0FBF1F10D480B4A491E02604160BC
:1013500040F2E7320021C0E90321816000F026FC61
:1013600010B1012007B000BD044800F06BFCF9E7A4
:101370000010024040420F00002C014038020020C3
:101380000F4808B5816941F001018161816901F06F
:1013900001010091C16941F08051C161C069002221
:1013A00000F0805000900F21901E00F01BF80548BF
:1013B000416821F0E06141F00071416008BD00002A
:1013C0000010024000000140002809DB00F01F026D
:1013D000012191404009800000F1E020C0F8001197
:1013E00070470000F0B40E4B1B680C46C3F3022399
:1013F000C3F10705042D00D90425191D072901D2C1
:10140000002300E0DB1E012606FA05F1491E2140FB
:1014100099409E40761E16403143F0BC01F0AABCB4
:101420000CED00E0064900F0070208684FF6FF03E4
:10143000184040EA0220034A104308607047000049
:101440000CED00E00000FA0510B529A401461DCC02
:1014500086B08DE81D002AA02A4C00680490002068
:10146000012923D002293AD010291DD161682268B0
:10147000D20119D5C1F38342C9031DF8020009D571
:10148000616804AAC1F34041515C1F4AB2FBF1F10B
:10149000484301E01D4948436168490204D44000C3
:1014A0005FF00301B0FBF1F006B010BD226AC2F399
:1014B0000121012903D1920701D5C803F4E70229CC
:1014C00005D1626A920702D549F64040ECE703294C
:1014D000EAD121688903E7D54FF22440E4E700F020
:1014E00059F96168C1F38131491C4900DAE700000C
:1014F00002030405060708090A0B0C0D0E0F101055
:10150000010200000010024000127A0000093D00B4
:101510002DE9F84305460078354CC00754D0E06902
:101520000026C00008D4E06940F08050E061E06926
:10153000012600F0805000902E480168C90512D4A1
:101540000168804641F480710160FFF735FD074670
:1015500005E000BFFFF730FDC01B642823D8D8F892
:101560000000C005F6D5206A10F4407021D0A9888B
:1015700001F4407181421CD0206A1F49012220F4ED
:1015800040700A6000220A602062C00711D0FFF795
:1015900013FD074641F2883808E000BFFFF70CFD55
:1015A000C11B414502D90320BDE8F883206A8007AA
:1015B000F4D5206A696820F44070084320621EB1A7
:1015C000E06920F08050E0612878800705D56068E8
:1015D000A96820F44040084360602878C00605D51B
:1015E0006068E96820F48000084360600020DBE761
:1015F0000010024000700040400442422DE9F047D4
:101600000F46050061D0434E306800F00700B84235
:1016100009D2306820F0070038433060306800F0AD
:101620000700B84251D128683B4C810712D54007CA
:1016300003D5606840F4E06060602878000703D557
:10164000606840F4605060606068A96820F0F00055
:10165000084360602878C00728D06868012810D047
:101660002168022810D0890700292EDA616821F04C
:10167000030101436160FFF79FFC804641F2883916
:101680000DE021688903EFE78901EDE7FFF794FC9E
:10169000A0EB0801494502D90320BDE8F087606846
:1016A000696800F00C00B0EB810FEFD1306800F0FA
:1016B0000700B8420BD9306820F00700384330608B
:1016C000306800F00700B84201D00120E5E7287833
:1016D000400705D56068E96820F4E0600843606071
:1016E0002878000706D56068296920F4605040EA30
:1016F000C100606000F05EF86168084AC1F3031140
:10170000515CC8400649086006480068FFF7FEFDC6
:101710000020C2E70020024000100240742F0008A1
:101720000C000020040000200F2202600C4A5368C5
:1017300003F003034360536803F0F00383605368CE
:1017400003F4E063C36052684FF4E06303EAD2023B
:1017500002610448006800F007000860704700005C
:10176000001002400020024001480068704700005D
:101770000C0000200448054900684968044AC1F388
:101780000221515CC84070470C000020001002404C
:10179000842F00080448054900684968044AC1F3D9
:1017A000C221515CC84070470C000020001002406C
:1017B000842F000812A185B00FC98DE80F0014A076
:1017C000144A006804905168134801F00C03042B7C
:1017D00010D0082B0ED1C1F38343C9031DF80300B9
:1017E0000AD5516804AAC1F34041515C0A4A5043EA
:1017F000B0FBF1F005B0704708494843FAE7000034
:1018000002030405060708090A0B0C0D0E0F101041
:10181000010200000010024000127A0000093D00A1
:101820002DE9F84F040070D02078C04DC00749D092
:101830006868C0F38100012807D06868C0F38100A0
:10184000022809D16868C00306D52868800339D505
:1018500060680028E7D035E06068B0F5803F0BD0C5
:1018600010B1B0F5A02F11D0286820F48030286086
:10187000286820F4802002E0286840F48030286046
:10188000606890B1FFF798FB06460AE0286840F4CC
:1018900080202860F0E700BFFFF78EFB801B6428E4
:1018A00073D828688003F7D50CE0FFF785FB064660
:1018B00005E000BFFFF780FB801B6428F0D8286894
:1018C0008003F7D420789A4E80074FF001094FF03B
:1018D000000839D5686810F00C0F07D06868C0F3AD
:1018E0008100022809D16868C00306D428688007EF
:1018F00014D52069012808D110E02069B0B1C6F8DC
:101900000090FFF759FB074605E00AE1FFF754FB9B
:10191000C01B0228C4D828688007F7D528686169E9
:1019200020F0F80040EAC10028600DE0C6F8008011
:10193000FFF742FB074604E0FFF73EFBC01B02280F
:1019400023D828688007F7D4207800072CD5794859
:10195000A169D9B1C0F80090FFF72EFB074604E05B
:10196000FFF72AFBC01B02280FD8686A8007F7D54B
:1019700071484FF4FA510068B0FBF1F0009000BFDD
:101980000098411E0091FAD20EE080E0C0F800807D
:10199000FFF712FB074604E0FFF70EFBC01B02280F
:1019A00075D8686A8007F7D42078400760D5E86961
:1019B0000027C00008D4E86940F08050E861E86979
:1019C000012700F0805000905C480168C90513D4DD
:1019D0000168834641F480710160FFF7EDFA8246A9
:1019E00006E000BFFFF7E8FAA0EB0A0064284ED833
:1019F000DBF80000C005F5D5E06801280AD008B181
:101A0000052813D0286A20F001002862286A20F0F7
:101A1000040002E0286A40F001002862E06841F218
:101A2000883B98B1FFF7C8FA82460BE0286A40F07D
:101A300004002862EEE700BFFFF7BEFAA0EB0A0140
:101A400059455AD8286A8007F6D50CE0FFF7B4FA52
:101A5000824605E0FFF7B0FAA0EB0A0159454CD8E1
:101A6000286A8007F6D41FB1E86920F08050E86149
:101A7000E06988B36968C1F38101022944D0022872
:101A8000C6F8608004D0FFF797FA044638E034E0E7
:101A9000FFF792FA074604E0FFF78EFAC01B022810
:101AA0002BD828688001F7D4206AB0F5803F05D193
:101AB0006868A16820F4003008436860D4E9080130
:101AC0000843696821F4741108436860C6F860909F
:101AD000FFF772FA044606E025E000BFFFF76CFA54
:101AE000001B022809D828688001F7D51BE000BF39
:101AF000FFF762FA001B022802D90320BDE8F88F25
:101B000028688001F4D40EE00128F7D06868226AC2
:101B100000F48031914204D1616A00F4701088426F
:101B200001D00120EAE70020E8E7000000100240B1
:101B300000004242800442420C000020007000403D
:101B40007047704770B590F83C20012A26D00124D8
:101B500080F83C40022280F83D2003685A689D6866
:101B600022F070060A6832435A600D4B02689A42AE
:101B700008D0B2F1804F05D00A4B9A4202D00A4BEE
:101B80009A4204D1496825F080031943916080F896
:101B90003D40002180F83C10084670BD022070BD19
:101BA000002C0140000400400008004010B5040073
:101BB00003D094F83D0010B107E0012010BD0020D3
:101BC00084F83C00204600F01FF8022084F83D0015
:101BD000211D206800F008FF012084F8460084F8E9
:101BE0003E0084F83F0084F8400084F8410084F807
:101BF000420084F8430084F8440084F8450084F8E7
:101C00003D00002010BD000008B500680B49884267
:101C100012D10B48C16941F00201C161C0690022C3
:101C200000F00200009005211D20FFF7DBFBBDE85E
:101C300008401D20FFF7C8BB08BD0000000400409D
:101C40000010024090F83D10012901D0012070479A
:101C5000022180F83D100168CA6842F00102CA60A2
:101C600000680B49884208D0B0F1804F05D009497F
:101C7000884202D00849884204D1816801F00701F6
:101C8000062903D0016841F001010160002070477E
:101C9000002C0140000400400008004070B50446DC
:101CA00090F83C00012817D0012584F83C50022010
:101CB00084F83D002068826822F0770222F47F4297
:101CC00082600868502830D00DDC20284DD005DC1B
:101CD00098B310283BD148E0022070BD302844D092
:101CE000402834D139E0602828D0702806D0B0F5DB
:101CF000805F2CD0B0F5005F29D10AE0CB68D1E934
:101D00000121206800F0A6FE2068816841F077017B
:101D100009E0CB68D1E90121206800F09BFE206832
:101D2000816841F48041816011E0CA684968206897
:101D300000F0A2FE5021206807E016E0CA6849685A
:101D4000206800F0AAFE6021206800F08DFE84F873
:101D50003D50002084F83C0070BDCA684968206886
:101D600000F08AFE40212068EFE722680146104615
:101D7000EBE7704770B50446006801694FF0000555
:101D8000C943890715D4C168C943890711D4E91E1D
:101D9000016101202077206880698007204602D0F9
:101DA000FFF7E7FF04E000F098F8204600F096F80F
:101DB000257720680169C943490717D4C168C94319
:101DC000490713D46FF004010161022020772068D5
:101DD000806910F4407F204602D0FFF7CAFF04E07C
:101DE00000F07BF8204600F079F82577206801693B
:101DF000C943090716D4C168C943090712D46FF053
:101E000008010161042020772068C069800720460E
:101E100002D0FFF7AEFF04E000F05FF8204600F0CC
:101E20005DF8257720680169C943C90617D4C168E0
:101E3000C943C90613D46FF010010161082020774F
:101E40002068C06910F4407F204602D0FFF791FF60
:101E500004E000F042F8204600F040F825772068C2
:101E60000169C943C90708D1C168C943C90704D179
:101E7000891E0161204600F033F820680169C943DA
:101E8000090609D4C168C943090605D46FF0800169
:101E900001612046FFF754FE20680169C9434906E5
:101EA00009D4C168C943490605D46FF040010161F6
:101EB000204600F01FF820680169C94389060BD449
:101EC000C168C943890607D46FF02001016120462B
:101ED000BDE87040FFF735BE70BD70477047000029
:101EE00000680349884201D1FFF7F6B97047000046
:101EF000002C01407047704770470000F8B5026839
:101F000004461068D168536910F00F0F4FF00005B8
:101F100053D003F0010601F4907737435FD0C20736
:101F200005D0CA0503D5226C42F0010222644207A3
:101F300005D5DA0703D0226C42F002022264820740
:101F400005D5DA0703D0226C42F0040222640207AE
:101F500007D501F02002324303D0226C42F0080280
:101F60002264226C002A34D0800604D5880602D56B
:101F7000204600F0D3FD20684069216CC0F380103A
:101F8000090700D430B3204600F0B0FD2068416955
:101F900049061BD5416921F040014161A06BA8B100
:101FA00058494163A06BFEF78DFD002811D0A06B4E
:101FB000416B01B0BDE8F040084783060FD58B06A2
:101FC0000DD52046BDE8F84000F0A8BD2046FFF73B
:101FD00093FFF8BD2046FFF78FFF2564F8BD266B01
:101FE0002023012E52D1C60650D5CE064ED51068FC
:101FF00050680090506940062AD5A16B0868406877
:102000000004000CEAD0A68D8642E7D9E0858869F5
:10201000202818D0D06820F48070D06020684169F2
:1020200021F0010141612068416921F040014161D5
:1020300084F83E3025632068C16821F01001C1603A
:10204000A06BFEF71BFDA08DE18D401A81B219E057
:10205000A08DE18D401A81B2E08D0028BED000290C
:10206000BCD0D06820F49070D0602068426922F023
:102070000102426184F83E3025632068C26822F084
:102080001002C2602046FFF736FFF8BD05062BD5CB
:102090000D0629D594F83D002128F6D1A068B0F5A9
:1020A000805F01D12069B0B1206A411C21622168A2
:1020B00000784860E08C401E0004000CE084E4D10D
:1020C0002068C16821F08001C1602068C16841F0CA
:1020D0004001C160F8BD206A0088C0F3080050606C
:1020E000206A801C2062E5E74006F3D54806F1D55A
:1020F000D168204621F04001D16084F83D3000F0E5
:10210000CDF8F8BDDD2A000870B5040004D094F8BD
:102110003D00002510B106E0012070BD84F83C5060
:10212000204600F023F8242084F83D002068C16890
:1021300021F40051C160204600F04CFD2068016987
:1021400021F4904101612068416921F02A01416137
:102150002068C16841F40051C1602564202084F8E2
:102160003D0084F83E00002070BD0000F0B585B051
:102170000024009401940294039403683848364F75
:102180003649022203260515BB4228D18B6943F448
:1021900080438B618B6903F4804304938B6943F024
:1021A00004038B618969039601F0040104914115D0
:1021B000CDE9001269460646FEF700FECDE900545F
:1021C000694630460294FEF7F9FD002207212520DA
:1021D000FFF708F92520FFF7F7F805B0F0BD214F0C
:1021E000BB4215D1CB6943F40033CB61CB6903F417
:1021F000003304938B6943F004038B618969039274
:1022000001F0040104910C21CDE90012694620E09F
:1022100015488342E1D1C86940F48020C861C8698B
:1022200000F480200490886940F008008861886983
:10223000CDE9005200F00800CDE903600B4D69467E
:102240002846FEF7BBFDE814CDE9000469462846A0
:102250000294FEF7B3FDC0E70038014000100240D1
:10226000000801400044004000480040000C0140CC
:1022700090F83E30202B0ED159B152B190F83C303D
:10228000012B08D0012380F83C300023036300F0C9
:10229000FDBC012070470220704770477047FEE781
:1022A00001684A69D24352050FD46FF480624A61D3
:1022B000002140F8301F202242738173026942F0EE
:1022C0000402026101730120704700207047000082
:1022D0002DE9F843044600680D46DDE908970168DA
:1022E0009846164641F4807101604B4600224FF03B
:1022F00001112046009700F065F848B12068006899
:10230000C00502D54FF4007020640320BDE8F883B7
:10231000216805F0FE0008613B464A461549204603
:1023200000F084F888B920684169806900903A46D5
:102330004946204600F0C5F848B1206C042804D175
:102340002068016841F4007101600120DEE7F5B208
:10235000B8F1010F09D02168300A08613A464946B0
:10236000204600F0AEF80028E7D120680561002083
:10237000CCE700000200010070B516460D46044689
:102380000DE02046FFF78CFF08B1012070BD681CEE
:1023900005D0FEF711FE801BA84207D835B1206892
:1023A0004069C0434007ECD4002070BD002044F8D1
:1023B000300F20216173A073216941F02001216158
:1023C0002073E2E72DE9F0471E4690460D4604468D
:1023D000C1F30747DDF8209008E0701C06D0FEF737
:1023E000EBFDA0EB0900B0420FD876B12068012FB9
:1023F00018D0806925EA00000004000C14D00021E8
:102400004145EAD00020BDE8F087002044F8300FB5
:1024100020216173A073216941F0200121612073A3
:102420000120F0E74069E5E70121E9E72DE9F04700
:102430009A4691460E46044600254FF02008C1F307
:10244000074725E020684069C043400514D4206850
:10245000016841F40071016021686FF48060486197
:10246000256384F83D8084F83E50206C40F00400E1
:10247000206484F83C501FE0B9F1FF3F08D0FEF71C
:102480009BFDA0EB0A0149450CD8B9F1000F09D01A
:102490002068012F13D0806926EA00000004000C98
:1024A0000BD0CFE744F8305F84F80D80A573206926
:1024B00040F02000206125730120BDE8F0874069CD
:1024C000EAE770B516460D4604460DE02046FFF7D4
:1024D000E7FE08B1012070BD681C05D0FEF76CFD59
:1024E000801BA84207D835B120684069C043000668
:1024F000ECD4002070BD002044F8300F202161731F
:10250000A073216941F0200121612073E2E70000FE
:10251000FEB50021274800910191254A02910260F1
:1025200092158260017301240475052505614FF43D
:1025300060224160C0E90642FEF728F908B1FDF7C4
:10254000A7FF0426CDE900640624694619480294D1
:10255000FEF722F808B1FDF79BFF0220CDE900400D
:1025600069461448FEF718F808B1FDF791FF0720F7
:1025700000900320019069460E48FEF70DF808B15F
:10258000FDF786FF0820CDE9000669460948FEF7F9
:1025900003F808B1FDF77CFF1120CDE9000569467D
:1025A0000448FDF7F9FF002801D0FDF771FFFEBDDB
:1025B000002401405C000020094808B5416941F051
:1025C000010141614069002200F0010000900621F4
:1025D0000B20FEF707FFBDE808400B20FEF7F4BE16
:1025E000001002402DE9F04385B0002535480095E4
:1025F000019502950395816941F01001816181691E
:1026000001F010010491816941F02001816181692B
:1026100001F020010491816941F004018161816927
:1026200001F004010491816941F008018161806930
:10263000254F00F008000490002220213846FEF7C4
:10264000B5FCDFF888804FF4405600223146404602
:10265000FEF7ACFCDFF87890012204214846FEF733
:10266000A5FC781400901B48CDE9010569461A487D
:10267000FEF7A4FB202001248DE831000220039006
:1026800069463846FEF79AFB0096CDE90145694652
:1026900040460394FEF792FB0420CDE9000403209A
:1026A000CDE9024069464846FEF788FB00220C212E
:1026B0002820FEF797FE2820FEF786FE05B0BDE82D
:1026C000F08300000010024000080140000C0140AF
:1026D0000014014000001110001001400D4810B519
:1026E0000B4901600C49416000214FF48042816038
:1026F000C0E9031241618161C1610162FEF762FCC0
:10270000002803D0BDE81040FDF7C2BE10BD000098
:1027100000540040D0000020A086010010B586B013
:1027200000241748009401940294039404941349DC
:102730000594016040F60F61C0E901146321C0E90E
:1027400003148461FFF732FA08B1FDF7A1FE4FF4DC
:102750008050009069460A48FFF7A0FA08B1FDF7DB
:1027600097FE049404A906480594FFF7EBF90028A6
:1027700001D0FDF78DFE06B010BD00000004004042
:10278000240100200C4810B50A4901604FF4E131E2
:102790004160002181600C22C160C0E904128161A6
:1027A000C161FFF7B1FC002803D0BDE81040FDF780
:1027B0006FBE10BD003801406C0100200C4810B500
:1027C0000A4901604FF4E1314160002181600C222F
:1027D000C160C0E904128161C161FFF795FC002866
:1027E00003D0BDE81040FDF753BE10BD00440040CB
:1027F000B00100200C4810B50A4901604FF4E131E6
:102800004160002181600C22C160C0E90412816135
:10281000C161FFF779FC002803D0BDE81040FDF747
:1028200037BE10BD00480040F4010020FEE7FEE77F
:1028300010B54FF4FA70FEF7A1FAAE2000F084FA5A
:10284000002877D0202000F07FFA002872D01020D6
:1028500000F07AFA00286DD0B02000F075FA002858
:1028600068D0C82000F070FA002863D0002000F083
:102870006BFA00285ED0102000F066FA002859D0CC
:10288000402000F061FA002854D0812000F05CFA6A
:1028900000284FD0FF2000F057FAE8B3A12000F045
:1028A00053FAC8B3A62000F04FFAA8B3A82000F04E
:1028B0004BFA88B33F2000F047FA68B3A42000F039
:1028C00043FA48B3D32000F03FFA28B3002000F0C9
:1028D0003BFA08B3D52000F037FAE8B1F02000F059
:1028E00033FAC8B1D92000F02FFAA8B1222000F0A5
:1028F0002BFA88B1DA2000F027FA68B1122000F034
:1029000023FA48B1DB2000F01FFA28B1202000F0A4
:102910001BFA08B18D2000E00CE000F015FA48B178
:10292000142000F011FA28B1AF2000F00DFA08B120
:10293000012010BD002010BD10B5502080F311887B
:10294000BFF34F8FBFF36F8F00F0B0FA18B1044997
:102950004FF080500860002080F3118810BD000007
:1029600004ED00E030B593B028216846FDF72FFC58
:1029700014210AA8FDF72BFC0024022501200F9446
:10298000049000951020059012944FF44010CDE96A
:1029900008401194109407956846FEF741FF90B9DE
:1029A0000F20CDE90A056802CDE90C400E90022106
:1029B0000AA8FEF723FE30B90FA80F951194FEF771
:1029C000A7FD002801D0FDF763FD13B030BD7047AF
:1029D0000148FFF7CFB90000380200200148FFF797
:1029E000C9B9000024010020F0B50268164B174C4D
:1029F000174D4FF08047984205D0B84203D0A0420F
:102A000001D0A84203D122F070064A6832439842AE
:102A100005D0B84203D0A04201D0A84203D122F48D
:102A20004074CA6822434C6922F08002224302604B
:102A30008A68C2620A688262984201D109690163A8
:102A400001214161F0BD0000002C01400004004064
:102A50000008004010B5846842EA032224F47F4451
:102A60000A432243826010BD826822F070020A434A
:102A700042F007018160704710B5036A046A24F0D0
:102A800001040462846924F0F00444EA021423F08F
:102A90000A020A438461026210BD10B5036A23F082
:102AA000100303628369046A23F4704343EA023229
:102AB00024F0A00343EA01118261016210BD00000D
:102AC00010B5044620210448FEF768FA2046BDE808
:102AD0001040FDF78FBC00000008014010B5406AAF
:102AE0000021C185C184FFF707FA10BD0168CA68DB
:102AF00022F49072CA6001684A6922F001024A61B8
:102B0000016B012904D10168CA6822F01002CA6071
:102B1000202180F83E1000210163704708B590F82D
:102B20003E10222901D0022008BD82684FF4805354
:102B30009A4201D1016921B1816A9A421BD04AB1FE
:102B40000AE00268816A5268C2F308020A80816A58
:102B5000891C08E0026972B10268526802F07F02C3
:102B60000A70816A491C8162C18D491E0904090CE1
:102B7000C18503D019E002685268F1E70168CA68AC
:102B800022F02002CA600168CA6822F48072CA601A
:102B900001684A6922F001024A61202180F83E1052
:102BA000016B012903D0FFF778FB002008BD00214D
:102BB00001630168CA6822F01002CA6001680A68ED
:102BC000D20602D50A6849680091818DFFF793F912
:102BD000EBE7000070B5044600680169E26821F483
:102BE0004051114301612169A068084361690843AC
:102BF0002168CA6841F20C639A430243CA602068A4
:102C00004169A26921F44071114341611E49206864
:102C1000884202D1FEF7BEFD01E0FEF7ABFD00EBFE
:102C2000C00101EB0012606864218000B2FBF0F388
:102C3000B3FBF1F36FF018067343B2FBF0F5B2FB90
:102C4000F0F605EB8305322303EB0515B5FBF1F533
:102C5000B6FBF1F605F0F00505EB0615B2FBF0F654
:102C6000B2FBF0F0B0FBF1F06FF01802504306EB4E
:102C7000800003EB0010B0FBF1F0216800F00F00C2
:102C80002844886070BD0000003801408162828560
:102C9000C28500210164222280F83E2080F83C1089
:102CA0000168CA6842F48072CA6001684A6942F0E9
:102CB00001024A610068C16841F02001C160002042
:102CC0007047000038B51C4D286800681B4CC04395
:102CD000800619D42846FFF711F9B4F8000440F231
:102CE000FF31C0F30E0088420ED215480178B4F8C7
:102CF0000004B4F80024C0F30E002318401C60F355
:102D00000E02A4F80024197028680168C943C90696
:102D100008D4016840680090B4F8000440F4004012
:102D2000A4F80004012206490348FFF7A1FABDE810
:102D300038400148FFF7E2B86C0100204C04002045
:102D40004C000020FEE7000011B5012483B04FF4D1
:102D50007A72214603A88DE80700234600227821D5
:102D60000348FEF7F3F900B1FF2404B0204610BD7C
:102D7000D00000200907090E002804DB00F1E02044
:102D800080F80014704700F00F0000F1E02080F898
:102D9000141D704702E008C8121F08C1002AFAD1AA
:102DA00070477047002001E001C1121F002AFBD1CB
:102DB0007047FEF799FAFFF7D5FDFFF713FCFFF711
:102DC000FBFBFFF7FBFCFFF7DDFCFFF713FDFFF755
:102DD0009FFBFFF7A3FCFFF781FCFDF7BDFA01287D
:102DE00001D0FDF755FB0A20FFF76AFEFBE7000064
:102DF00006484168096829B14168C968C9684968D5
:102E0000016370474FF0FF31FAE700001000002027
:102E1000D0E9013201699A60D0E901235A604A6819
:102E2000824201D182684A60002202610868401E25
:102E300008600868704742684A6093688B609368CE
:102E40005960916008610168491C01607047000089
:102E50001448816B11B10121416270470021416228
:102E60008169B1FA81F1C1F11F0101EB81020E49C3
:102E700051F822306BB101EB820101F108034A687D
:102E800052684A609A4201D152684A60D168016032
:102E90007047502080F31188BFF34F8FBFF36F8FBF
:102EA000FEE7000010000020800200202DE9F04124
:102EB0002E4C0027A06B40B1206A401C2062606A43
:102EC00000B101273846BDE8F0816669761C66616D
:102ED00013D16068006838B1502080F31188BFF3C7
:102EE0004F8FBFF36F8FFEE76068A1686160A060DD
:102EF000A06A401CA062FFF77BFF206BDFF87080A8
:102F0000864209D36068006880B16068C068C5689F
:102F1000686886420DD220632068C06A00EB800199
:102F200058F821000128CAD90127C8E74FF0FF301F
:102F3000F1E7281DFFF76CFFA86A18B105F118002A
:102F4000FFF766FFE86A0121A26981401143A16190
:102F500000EB800108EB8100291DFFF76CFFE86A98
:102F60002168C96A8842CDD30127CBE71000002031
:102F700080020020000000000000000001020304A5
:102F8000060708090000000001020304AC2F000836
:102F9000000000205C000000942D000808300008AC
:102FA0005C000020FC0B0000A42D000801000000C4
:102FB00010000000000000000024F40000000000E9
:102FC0000000000000000000000000000000000001
:102FD00000000000000000000000000000000000F1
:102FE00000000000000000000000000000000000E1
:102FF00000000000000000000000000000000000D1
:083000000000000000000000C8
:04000005080000ED02
:00000001FF
