:020000040800F2
:10000000780C00209D0100088F3800087135000829
:100010008D380008F50E0008953D0008000000002E
:1000200000000000000000000000000005010008C2
:10003000391200080000000049010008913800084A
:10004000B7010008B7010008B7010008B7010008B0
:10005000B7010008B7010008B7010008B7010008A0
:10006000B7010008B7010008B7010008D91100085E
:10007000B7010008B7010008B7010008B701000880
:10008000B7010008B7010008ED080008B701000833
:10009000B7010008B7010008B7010008B701000860
:1000A000B701000829390008B7010008B7010008A6
:1000B000B701000835390008B7010008B70100088A
:1000C000B7010008B7010008B7010008B701000830
:1000D000B7010008ED3B0008B7010008B7010008B0
:1000E00065160008B7010008B7010008DFF810D056
:1000F00000F0EAFB00480047FD3F0008AFF3008036
:10010000780C0020224B19680868B0E8F00F80F3E3
:100110000988BFF36F8F4FF0000080F311884EF015
:100120000D0E70470000000006480068006880F36C
:10013000088862B661B6BFF34F8FBFF36F8F00DFE1
:1001400000BF00BF08ED00E0EFF30980BFF36F8F41
:100150000F4B1A6820E9F00F106008B54FF05000FF
:1001600080F31188BFF34F8FBFF36F8F03F09AFFB7
:100170004FF0000080F31188BDE808401968086856
:10018000B0E8F00F80F30988BFF36F8F704700BFAE
:1001900014000020EFF305807047000006488047F8
:1001A00006480047FEE7FEE7FEE7FEE7FEE7FEE75C
:1001B000FEE7FEE7FEE7FEE727390008ED0000084E
:1001C000202A04DB203A21FA02F00021704721FAAC
:1001D00002F3D040C2F12002914008431946704713
:1001E000D2B201E000F8012B491EFBD27047002279
:1001F000F6E710B513460A4604461946FFF7F0FF26
:10020000204610BD30B505462A460B4612F8010BB4
:1002100013F8014B08B1A042F8D01CB1002802D05D
:100220006D1CF1E7284630BDF0B480EA0102D40F1E
:100230004200B2EB410F02D20246084611464A0084
:1002400042D0C30DDDB2C1F3C752AD1A202D35DA4D
:10025000C1F3160141F4000204B15242C5F1200677
:1002600002FA06F12A411044B3EBD05F23D0C4B1A7
:10027000012DA0EBC35009DCF0BC4FF0004202EAB4
:10028000C352DBB200F5000000F092BA400000F16A
:10029000807000EBC350A0F1807040EAD17049003B
:1002A00009E0490841EAC071A0EBC35000F5000025
:1002B000400800EBC350F0BC00F071BA614201226B
:1002C00002EB4101001BF6E7F0BC704781F00041F2
:1002D000AAE780F00040A7E780EA010210B502F02B
:1002E0000043400022D04A001FD0010E01EB1261F2
:1002F000C0F35600C2F3560240F4000042F400027C
:10030000A0FB022000047F39140400D0401C50EAF6
:10031000124001D44000491EC2B20C0604EBD010BA
:10032000401C4008802A02D003E0002010BD20F0CD
:100330000100002900DA0020184310BD30B480EA23
:10034000010202F0004530F0004221F0004013D0DD
:1003500090B1C30DD40DC2F31601C0F31600E41A18
:1003600041F4000140F400027D34914201D3641C49
:1003700000E04900002C02DA30BC002070474FF446
:1003800000000023914201D3891A034340084FEA39
:100390004101F7D151B1914202D14FF0004105E046
:1003A00002D24FF0010101E06FF0010103EBC450F4
:1003B000284430BC00F0F3B92DE9FE4F804681EAB5
:1003C0000300C00F0C46009021F0004123F00045CF
:1003D000B8EB0200A94105D24046214690461C4692
:1003E0000B46024623F00040104347D0270DC7F3C9
:1003F0000A00C3F30A510290401A019040286BDAB8
:10040000C3F3130040F4801B0098924620B10023F0
:10041000D2EB030A63EB0B0B01985946C0F1400283
:10042000504600F09BF906460D4650465946019A43
:1004300000F0A3F910EB08006141002487EA115293
:1004400084EAE7731A4340D0009A62B3019A012A02
:100450004FEA075215DC001B61EB02014FF000422E
:1004600002EA0752CDE90042001C41F580113246F4
:100470002B4600F0DAF903B0BDE8F08F4046214684
:10048000F9E7001B61EB0201001C41F58013001825
:100490005B412018A2F5001747EB030140EAD57035
:1004A000B6196D4111E06D084FEA360645EAC07590
:1004B0004FEA0752001B61EB0201001C41F580115D
:1004C00049084FEA30000019514132462B4603B02B
:1004D000BDE8F04F00F09AB90098012240000023D7
:1004E000D0EB020263EBE073009821464FEAE07420
:1004F000B8EB000061EB0401E9E783F000435BE740
:1005000081F0004158E72DE9FE4F81EA030404F031
:10051000004421F0004100944FF0000B23F0004311
:1005200050EA01045ED052EA03045BD0C3F30A54DC
:10053000C1F30A552C44A4F2F3340194A0FB0254F5
:10054000C1F3130141F48011C3F3130343F4801387
:1005500001FB024400FB034E840A970A44EA8154DB
:1005600047EA8357A4FB076802958D0A05FB0785B8
:100570004FEA932C04FB0C542705029D4FEA0658C2
:1005800047EA1637B5EB08056EEB070C870E920E9F
:1005900047EA811742EA8312A7FB0201B6EB0B017F
:1005A00064EB00042B0D43EA0C335E1844EB1C5043
:1005B000DA465146E7FB0201C5F313044FEA0B3359
:1005C00043EA14534FEA0432019C43EA0603A4F1C0
:1005D0000C040294009CCDE900B400F026F903B0AD
:1005E000BDE8F08F00200146F9E72DE9F04D81EAE2
:1005F000030404F0004B21F0004514464FF0000ABC
:1006000023F0004150EA050220D054EA01021DD037
:10061000C5F30A570246C5F31303C1F31300C1F330
:100620000A5640F4801543F48013A7EB0608101B0C
:10063000D64608F2FD3873EB050002D308F1010835
:1006400001E092185B41B8F1000F03DA0020014687
:10065000BDE8F08D00204FF48011064684460EE080
:10066000171B73EB050705D3121B63EB050306434A
:100670004CEA010C49084FEA300092185B4150EAFD
:100680000107EDD152EA030012D082EA040083EAA6
:100690000501084305D0101BAB4106D201220023FF
:1006A00006E000224FF0004302E06FF00102531019
:1006B0001AEB06004CEB085110EB0A0041EB0B0162
:1006C000BDE8F04D00F0A2B896230022114600F0DC
:1006D0006FB800F0004230F000400AD0C10D01F5C3
:1006E0006071C0F3160042EA0151C208400711438D
:1006F000704700200146704701F0004330B421F0FC
:10070000004150EA010206D00A0DA2F56072C1F361
:100710001301002A02DC30BC00207047440F44EA79
:10072000C104C100E01830BC00EBC25000F037B883
:1007300030B50B46014600202022012409E021FAB1
:1007400002F59D4205D303FA02F5491B04FA02F5AE
:100750002844151EA2F10102F1DC30BD202A04DB81
:10076000203A00FA02F1002070479140C2F12003C4
:1007700020FA03F3194390407047202A06DBCB1779
:10078000203A41FA02F043EAE07306E041FA02F34C
:10079000D040C2F120029140084319467047002919
:1007A000A8BF7047401C490008BF20F001007047F7
:1007B00010B4B0FA80FC00FA0CF050EA010404BF57
:1007C00010BC704749B1CCF1200421FA04F411FAAD
:1007D0000CF118BF012121430843A3EB0C01CB1DF1
:1007E0004FEA00614FEA102042BF002010BC704762
:1007F00000EBC35010440029A4BF10BC7047401C3C
:10080000490008BF20F0010010BC704710B5141E4D
:1008100073F1000408DA401C41F1000192185B41B9
:100820001A4301D120F0010010BD2DE9F04D924690
:100830009B4611B1B1FA81F202E0B0FA80F22032A7
:100840009046FFF78BFF04460F4640EA0A0041EA54
:100850000B0153465A46084313D0114653EA010090
:1008600019D0C8F140025046FFF7AAFC05460E46D3
:10087000504659464246FFF771FF084305D0012014
:1008800004E020463946BDE8F08D0020054346EAE5
:10089000E0762C4337430A986305E40AA0EB08008E
:1008A0000022FD0A44EA47540A3002D500200146DE
:1008B000E9E7010510196941DDE9084500196941B9
:1008C000BDE8F04DA2E70000064C074D06E0E068E9
:1008D00040F0010394E8070098471034AC42F6D387
:1008E000FFF708FCE041000800420008014800F062
:1008F000EFBF00006400002070B504460068816806
:10090000C943C9071CD1816821F00101816001F050
:1009100041FD05460FE000BF01F03CFD401B0228F1
:1009200009D9A06A40F01000A062E06A40F001001E
:10093000E062012070BD20688068C043C007EBD032
:10094000002070BD10B50146406A826A12F0500F57
:1009500005D0006A026BBDE8104008461047816A66
:1009600041F40071816201688968C1F3424107293D
:100970000CD1017B51B9816A21F480718162816A55
:10098000C90403D4816A41F00101816200F098FF3B
:1009900010BD10B5406A816A41F040018162C16AB0
:1009A00041F00401C16200F092FF10BD10B5406A31
:1009B00000F08CFF10BD0000F8B50026044600963C
:1009C00000688168C943C90728D0816841F00101E6
:1009D0008160134813490068B0FBF1F000E0401E4D
:1009E00000900028FBD101F0D5FC054611E000BFC6
:1009F00001F0D0FC401B02280BD9A06A40F0100087
:100A0000A062E06A40F00100E06284F82460012006
:100A1000F8BD20688068C043C007E9D10020F8BD58
:100A20001000002040420F002DE9F05F2548C088EB
:100A3000FFF74AFE2449FFF781FC82462349FFF76E
:100A40004BFCFFF746FE8046894651465046FFF76D
:100A500043FC06461E49FFF73FFCFFF73AFE0446FB
:100A60000D4651463046FFF737FC8346FFF731FE0F
:100A7000184A194BFFF747FD06460F4651465846A0
:100A8000FFF72AFCFFF725FE4FF06632134BFFF706
:100A90003AFD32463B46FFF78FFC22462B46FFF7D6
:100AA0008BFC42464B46FFF787FC00220C4BFFF7BE
:100AB00083FC00220B4BFFF798FDBDE8F05FFFF7CA
:100AC0001BBE00005200002000007A44006063C595
:100AD000008022449A99999999DD87C066662740DB
:100AE000405ED240008066402DE9F84F254880885E
:100AF000FFF7EAFD2449FFF721FC83462349FFF76E
:100B0000EBFBFFF7E6FD8046894659465846FFF75E
:100B1000E3FB04461E49FFF7DFFBFFF7DAFD05465E
:100B20000E4659462046FFF7D7FB0090FFF7D1FD50
:100B30004FF0333A5246174BFFF7E5FC07460C4699
:100B400059460098FFF7C8FBFFF7C3FD5246124B0A
:100B5000FFF7D9FC3A462346FFF72EFC2A463346D8
:100B6000FFF72AFC42464B46FFF726FC00220B4BC0
:100B7000FFF722FC00220A4BFFF737FDBDE8F84FD4
:100B8000FFF7BABD5200002000007A44004616C7A5
:100B900000981E47332EA9C033936340806BE74013
:100BA0000000544070B501251C4801F08FF8012168
:100BB0001A4800F0F3FF1A4C1A48217839B3012281
:100BC000202101F0E2FB1849088840F6E442504336
:100BD00040F6FF72B0FBF2F06080488840F6E443D4
:100BE0005843B0FBF2F0A08088885843B0FBF2F085
:100BF000E080C8885843B0FBF2F020810889584350
:100C0000B0FBF2F0608100202070284670BD002209
:100C1000202101F0BAFB0025F7E700006400002066
:100C20005200002000080140560800202DE9F05F26
:100C300026480089FFF748FD2549FFF77FFB8246DC
:100C4000FFF747FD234A244BFFF75DFC80468946AA
:100C500051465046FFF740FB0446FFF73AFD1F4A56
:100C60001F4BFFF750FC05460E4651462046FFF746
:100C700033FB8346FFF72DFD4FF06632194BFFF72C
:100C800042FC07460C4651465846FFF725FBFFF746
:100C900020FD154A154BFFF736FC3A462346FFF771
:100CA0008BFB2A463346FFF787FB42464B46FFF74E
:100CB00083FB00220E4BFFF77FFB00220D4BFFF75B
:100CC00094FCBDE8F05FFFF717BD00005200002064
:100CD00000007A441F85EB51B86E6DC046B6F3FD37
:100CE000D438254066866BC0F6285C8FC23531400B
:100CF00000B09E4000408F402DE9F05F25484088BD
:100D0000FFF7E2FC2449FFF719FB82462349FFF76E
:100D1000E3FAFFF7DEFC8046894651465046FFF76E
:100D2000DBFA06461E49FFF7D7FAFFF7D2FC044666
:100D30000D4651463046FFF7CFFA8346FFF7C9FC10
:100D40004FF03332174BFFF7DEFB06460F46514696
:100D50005846FFF7C1FAFFF7BCFC4FF06632124B62
:100D6000FFF7D1FB32463B46FFF726FB22462B46D8
:100D7000FFF722FB42464B46FFF71EFB00220B4BC0
:100D8000FFF71AFB00220A4BFFF72FFCBDE8F05FCC
:100D9000FFF7B2BC5200002000007A44005CAFC6EE
:100DA00000CC2546335EA1C066A66540008BD140CD
:100DB000002CBA40064810B54089FFF785FC05496C
:100DC000FFF7BCFABDE810404FF08141FFF72CBAA5
:100DD0005200002000007A4470B51D4D00242021EF
:100DE000284601F0CAFA642001F0B2F9641C0A2C0A
:100DF000F5DB18A002F0D0FF1B4800F07DFC08B125
:100E00001AA012E005221D49174800F0BFFF08B1E3
:100E10001BA00AE01F49002008701FA002F0BCFFC1
:100E200000F0B0FA012804D020A002F0B5FF00F0D5
:100E30001DFC23A002F0B0FF00F072F926A002F022
:100E4000ABFF2C210A2000F057F82948006870BD3C
:100E5000000801404C454420696E69742073756335
:100E6000636573730D0A0000640000204144432051
:100E7000696E6974206661696C0D0A00560800206D
:100E800041444320444D4120696E69742066616984
:100E90006C0D0A005200002041444320696E6974C1
:100EA00020737563636573730D0A000045535038F2
:100EB00032363620696E6974206661696C0D0A00ED
:100EC0004553503832363620696E69742073756325
:100ED000636573730D0A0000445448313120696E14
:100EE000697420737563636573730D0A00000000F5
:100EF00000000020FEE7000070B50E4604460A4DD3
:100F000008E02021284601F038FA304601F020F9A7
:100F1000641EE4B2002CF4D12846BDE870400022E3
:100F2000202101F032BA00000008014070B527A06E
:100F300002F032FF0124002500F0F8F901283ED12B
:100F4000002000F0D1FA012839D105E02DA130A010
:100F50006D1C00F043FA04462AA12DA000F03EFAD1
:100F600008B90A2DF2DB012C14D1002507E02AA3D1
:100F70002DA231A108206D1C00F048FB044626A3D9
:100F800029A22DA1082000F041FB08B90A2DEEDBB3
:100F9000012C01D0204670BD2BA236A13AA000F052
:100FA00079FA01280BD13AA000F056FA012806D1AF
:100FB00040F25B7141A000F02FFA012801D0FF2020
:100FC00070BD4BA002F0E8FEE4E700005468652025
:100FD000496E7465726E6574206F66205468696E20
:100FE000677320636C6F756420706C6174666F72D8
:100FF0006D20697320636F6E6E65637465640D0A9E
:1010000000000000313233343536373839300000D3
:101010006E6F76613700000075732E706F6F6C2EE7
:101020006E74702E6F7267006E74702E736A7475B2
:101030002E6564752E636E00636E2E6E74702E6F57
:1010400072672E636E0000004232313044443946EC
:1010500037343932383841453746384134383546E7
:1010600030414241304330433035363737413931F2
:1010700000000000746573745F3026683566623462
:101080005851684F6F440000313233343536000018
:101090003132333435367C7365637572656D6F64D8
:1010A000653D335C2C7369676E6D6574686F643D74
:1010B000686D6163736861317C0000006835666249
:1010C000345851684F6F442E696F742D61732D6DC4
:1010D0007174742E636E2D7368616E676861692E1A
:1010E000616C6979756E63732E636F6D000000002B
:1010F00054686520636C6F756420706C6174666FF2
:10110000726D206973207375636365737366756CA4
:101110006C7920636F6E6E65637465640D0A000000
:1011200010B500F009F800F097F804464FF47A7013
:1011300001F00EF8204610BD1FB5002002900420DB
:1011400000900120019003200C4C0390694620463A
:1011500001F01EF800220421204601F016F91420A7
:1011600000F0F6FF01220421204601F00EF904B040
:101170001E20BDE8104000F061B8000000100140E2
:101180002DE9FC410E4680460125FFF7D5FF00F012
:1011900063F8012802D0FF20BDE8FC8100246F46DF
:1011A00000F08EF83855641CE4B2052CF8D39DF895
:1011B00000109DF801009DF803300A189DF8020008
:1011C00003441A449DF804309A4202D1317088F8E1
:1011D00000002846E0E70000014800F0A9BE00003A
:1011E0009400002030B590F840500124AC40C56B0D
:1011F0006C60046863604368102B036803D09960D7
:101200000068C26030BD9A600068C16030BD08B53A
:1012100000208DF800006946FFF7B2FF9DF800003E
:1012200008BD08B500208DF8000001466846FFF7AC
:10123000A7FF9DF8000008BD7047000010B50446E8
:1012400001F0E8FB0349B0FBF1F16143491EFDD217
:1012500010BD000060EC53007FB50024012604207F
:10126000164DCDE90264009001946946284600F0CD
:101270008FFF04E0641CE4B20120FFF7DFFF0421CC
:10128000284601F075F810B1642CF3D30EE0642CFD
:101290000CD204E0641CE4B20120FFF7CFFF04216C
:1012A000284601F065F820B1642C05D3FF2004B076
:1012B00070BD642CEED3F9E73046F8E7001001402A
:1012C0002DE9F0410020184E05464006070E002487
:1012D00004E0641CE4B20120FFF7B0FF04213046B3
:1012E00001F046F808B1642CF3D3002404E0641C38
:1012F000E4B20120FFF7A2FF0421304601F038F8E4
:1013000008B9642CF3D32820FFF798FF0421304656
:1013100001F02EF800B101206D1C3843EDB2082D0C
:10132000D3D3BDE8F08100000010014070B5012565
:1013300000244FF47A7000F00BFF4FF4FA76334636
:10134000002208A108A000F015F918B109A002F0C8
:1013500023FD04E0641CE4B200250A2CEFD32846E8
:1013600070BD00004F4B000041542B524553544F69
:1013700052450000524553544F5245204F4B0D0AE1
:101380000000000070B5012400F0DEF8012800D054
:10139000FF24012251030D4800F0F7FF0C4801F033
:1013A000A7FD00B1FF2401252A460A490A4802F098
:1013B0005BF800B1FF2508480068C16841F01001E2
:1013C000C160012D00D0FF24204670BD000C0140FB
:1013D0002C010020500000207401002000B59FB0B7
:1013E0000B46024606A1684602F0E6FC41F288334D
:1013F000002208A1684600F0BDF81FB000BD000043
:1014000041542B43574A41503D222573222C22251B
:10141000732200004F4B000000B59FB00B46024600
:1014200006A1684602F0C8FC4FF4FA73002209A135
:10143000684600F09FF81FB000BD000041542B4DDE
:10144000515454434F4E4E3D302C222573222C25AF
:10145000642C30004F4B000000B59FB0024606A13F
:10146000684602F0A9FC4FF4FA73002208A168460E
:1014700000F080F81FB000BD41542B4D515454432F
:101480004C49454E5449443D302C222573220000DE
:101490004F4B000000B59FB00B460092024606A1DC
:1014A00001A802F089FC4FF4FA7300220DA101A8F3
:1014B00000F060F81FB000BD41542B4D51545455FD
:1014C0005345524346473D302C312C222573222C64
:1014D000222573222C222573222C302C302C222200
:1014E000000000004F4B000040F6C41328B1012853
:1014F00007D0022809D00020704706A208A109A041
:1015000006E004A206A10AA002E002A204A10BA028
:1015100000F030B86E6F206368616E676500000090
:101520004F4B000041542B43574D4F44453D310034
:1015300041542B43574D4F44453D320041542B43BA
:10154000574D4F44453D330070B50124084E2503E7
:1015500000222946304600F018FF4FF4FA7000F0E0
:10156000F7FD01222946304600F00FFF204670BDEE
:10157000000C01402DE9F041214C0E469846B4F88C
:101580000014154601276FF30E01A4F80014B4F8F7
:10159000001421F40041A4F80014014619A002F03F
:1015A00065FB012800D0FF2756EA050015D008F595
:1015B0007A7000F0CDFDB4F800140020C1F30E01E4
:1015C00060540F490FA002F0E7FB76B131466DB1D0
:1015D0000B48FEF717FE70B902E03846BDE8F0810F
:1015E00029460748FEF70EFE04E029460448FEF7A8
:1015F00009FEC0B208B10120F0E7FF20EEE70000CD
:101600005404002025730D0A0000000010B5A0B09E
:101610000124CDE900230B46024608A102A802F0EE
:10162000CBFB4FF4FA6300220DA102A8FFF7A2FF43
:10163000012800D0FF2420B0204610BD41542B4388
:101640004950534E54504346473D312C25642C227B
:101650002573222C222573222C22257322000000C0
:101660004F4B00004FF4005000F086BD72B6BC2115
:101670000A20FFF741FCFAE770B512A002F08CFBDC
:10168000FFF790FA08B1012500E00025FFF734FBD1
:10169000184C2060FFF7CAFA6060FFF7C5F9A06038
:1016A000FFF722FAE060FFF785FB2061FFF7B9FD45
:1016B0002075FFF7ACFD182020751F2060752846A7
:1016C00070BD00005468652073797374656D207374
:1016D000746172747320746F20636F6C6C656374D3
:1016E00020656E7669726F6E6D656E7420646174CC
:1016F000610D0A0060080020F8B500250446009539
:1017000090F82400012808D0012084F82400204605
:10171000FFF7F2F8060002D04BE00220F8BDA06A05
:1017200020F4885040F00200A062022000F0E2FFA6
:1017300022490968B1FBF0F0400000E0401E009033
:101740000028FBD12046FFF737F92068816841F077
:101750000801816000F01EFE074604E000F01AFE5A
:10176000C01B0A2811D8206880680007F6D42068BA
:10177000816841F00401816000F00CFE07460EE034
:1017800000F008FEC01B0A2809D9A06A20F0020058
:1017900040F01000A06284F824500120F8BD2068B9
:1017A00080684007ECD4A06A20F0020040F00100FD
:1017B000A06284F824503046F8BD000010000020DC
:1017C00070470000F8B50024009490F824202546C6
:1017D000012A12D0012280F824204A681F23072AF8
:1017E0000DD20668776B521E02EB820293409F4334
:1017F0000B6893401F43776319E00220F8BD066829
:101800000D2A0AD2376BD21F02EB820293409F430C
:101810000B6893401F43376309E0F76A0D3A02EB08
:10182000820293409F430B6893401F43F7620A680C
:10183000072306680A2A0AD3F7680A3A02EB42022B
:1018400093409F438B6893401F43F76008E03769DC
:1018500002EB420293409F438B6893401F433761E2
:101860000A68102A01D0112A20D1124B02689A422C
:1018700017D193681B0219D4936843F40003936053
:101880000968102912D10C490C4A0968B1FBF2F120
:1018900001EB8101490000E0491E00910029FBD1C4
:1018A00004E0816A41F020018162012480F8245023
:1018B0002046F8BD002401401000002040420F00E7
:1018C000014901200870704752000020704770479E
:1018D00010B5044600684168890626D50168890765
:1018E00023D5A16AC90603D4A16A41F40071A1629B
:1018F0008168C1F34241072910D1217B71B9416848
:1019000021F020014160A06A20F48070A062A06AEA
:10191000C00403D4A06A40F00100A0622046FFF793
:10192000CFFF21686FF01200086020684168090647
:101930002ED5016849072BD5A16AC90603D4A16A2F
:1019400041F40051A1628168C1F30231072909D035
:101950004168490515D48168C1F34241072910D176
:10196000217B71B9416821F080014160A06A20F4B7
:101970008050A062A06AC00503D4A06A40F00100B4
:10198000A0622046FFF71CFF21686FF00C00086082
:101990002068416849060DD50068C0070AD0A06AD2
:1019A00040F48030A062204600F094F821686FF087
:1019B0000100086010BD00002DE9F0414FF0000764
:1019C00004003D467ED0A06A002628B9E66284F86D
:1019D0002460204600F080F82046FEF78DFFA16AC3
:1019E000C90600D420B1A06A40F01000A06269E0EE
:1019F000A16A21F4885141F00201A1626268E169A3
:101A0000237B0A4347EA43010A43A1684FF48077E6
:101A1000B94209D0012907D05FF0000194F814C041
:101A2000BCF1010F02D00AE03946F7E7F3B1A36A2F
:101A300043F02003A362E36A43F00103E3622368F7
:101A4000D3F804C02CF4694C4CEA010CC3F804C070
:101A500021688B68DFF870C003EA0C0313438B60C6
:101A6000A168B9420BD0012909D00CE0DFF85CC0B5
:101A7000A3690CEB43330B4343F40061DFE7218A96
:101A80000D05A5F580152168CB6A23F470032B435F
:101A9000CB62216889680E4B1940914208D1E662F9
:101AA000A16A21F0020141F00101A162BDE8F081CB
:101AB000A06A20F0020040F01000A062E06A40F04E
:101AC0000100E0620120F1E7FDF7E1FF00E0FFFF28
:101AD000FE0E1FFF7047000070B586B00026054659
:101AE000009601960296039600682649884246D1E0
:101AF0002549886940F400708861886900F40070A5
:101B00000490886940F004008861886900F004004E
:101B10000490886940F0080088618869032400F017
:101B200008000490D020CDE900046946174800F071
:101B30002FFB0120CDE900046946154800F028FB81
:101B4000154C1448C4E900068020C4E90260400036
:101B50002061800060612020A0610002E0612046D9
:101B600000F090FA08B1FFF781FD2C6200220521F8
:101B70001220656200F08CFD122000F07BFD06B0A3
:101B800070BD000000240140001002400008014028
:101B9000000C014008000240940000202DE9F843A9
:101BA00000260D460446009600F0F4FB80462068AF
:101BB0008168C90508D5A06A40F02000A06284F8B9
:101BC00024600120BDE8F8834168C90503D4C06AD8
:101BD00010F4700F26D0022000F08CFD38490968FF
:101BE000B1FBF0F72068036936490B424FEA610107
:101BF0004FEAA1121BD1C3684FEA611C13EA0C0F14
:101C000015D103690B4221D1C06810421ED11420A6
:101C10001FE0681C06D045B300F0BCFBA0EB080039
:101C2000A84222D8206800688007F2D52AE003691C
:101C30000B4202D1C168114206D0026922490A4210
:101C400006D1C068084203D1542002E0292000E0F8
:101C5000FC204743009813E0681C0ED02DB100F023
:101C600099FBA0EB0800A84207D9A06A40F0040045
:101C7000A06284F824600320A4E70098401C009030
:101C8000B842E9D321686FF012000860A06A40F4FE
:101C90000070A06220688068C0F3424007280CD121
:101CA000207B50B9A06A20F48070A062A06AC004B2
:101CB00003D4A06A40F00100A062002082E7000087
:101CC00010000020244992244992240070B5044653
:101CD00090F8240001280DD0012084F8240020462B
:101CE000FEF76AFE02004FF0000005D084F82400E1
:101CF000104670BD022070BDA16A40F201239943D5
:101D000041F48071A1621F4D23681F49AB4218D175
:101D10000E6816F4702F14D0A66A46F48016A662D8
:101D20000E68760505D5A66A26F4005646F4805658
:101D3000A662A66AF6040AD5E66A26F00606E662F8
:101D400006E0A66A26F48016A6625E68E9E7E0620D
:101D500084F824006FF00200186020688368C3F3E1
:101D60004243072B05D1A84208D1096811F4702F0E
:101D700004D0816841F480118160B9E7816841F441
:101D8000A001F9E700280140042401402DE9F047B3
:101D9000894604463B4900683B4F0E1D90468842E9
:101DA00001D0B84207D1306810F4702F03D001255C
:101DB0002846BDE8F08794F8240001280CD00120C3
:101DC00084F824002046FEF7F7FD05004FF00000E0
:101DD00004D084F82400EBE70220EAE7A16A40F689
:101DE0000162914341F48071A1622168B94218D126
:101DF000326812F4702F14D0A16A41F48011A162EC
:101E00003168490505D5A16A21F4005141F480519A
:101E1000A162A16AC9040AD5E16A21F00601E16262
:101E200006E0A26A22F48012A2624968E9E7E06251
:101E300084F82400216A15488862216A1448C8621F
:101E4000216A1448086321686FF002000860206866
:101E5000816841F480718160216843464A464C3173
:101E6000206A00F03DF920688168C1F342410729EA
:101E7000816803D041F48011816099E741F4A001A9
:101E8000FAE700000024014000280140450900084D
:101E9000AD0900089309000810B590F8211000243E
:101EA000022903D00421816301243DE001680A680E
:101EB00022F00E020A6001680A6822F001020A603C
:101EC0001A4A0168914201D1012121E0174A1432D6
:101ED000914201D110211BE0144A2832914201D1D4
:101EE000891515E0114A3C32914201D189140FE065
:101EF0000E4A5032914202D14FF4803108E00B4A31
:101F00006432914202D14FF4801101E04FF08071B0
:101F1000064A083A5160012180F82110002180F81A
:101F20002010416B01B18847204610BD08000240D7
:101F30002DE9F05FC16B0C6801680B68D0F840C0F8
:101F4000042202FA0CF2494DDFF824A1494E4A4F0F
:101F5000DFF828B1DFF828E122422CD05A072AD531
:101F60000A68920603D40A6822F004020A60016833
:101F7000A94201D1042219E0514501D1402215E0C6
:101F8000B14202D14FF4806210E0B94202D14FF465
:101F900080420BE0594502D14FF4802206E07145A2
:101FA00002D14FF4800201E04FF080622F490839DE
:101FB0004A60C16A3BE04FF0020808FA0CF818EAE0
:101FC000040F4FF000094FF0010235D05FEA83782B
:101FD00032D50B689B0605D40B6823F00A030B600F
:101FE00080F821200168A94201D1022219E051455F
:101FF00001D1202215E0B14202D14FF4007210E06D
:10200000B94202D14FF400520BE0594502D14FF4CE
:10201000003206E0714502D14FF4001201E04FF0AA
:102020000072124908394A6080F82090816A0029BC
:102030001AD0BDE8F05F0847082505FA0CF52542DF
:1020400012D01B0710D50B6823F00E030B6090F81D
:102050004010C36B02FA01F15960826380F82120BD
:1020600080F82090016BE2E7BDE8F09F0800024095
:102070001C00024030000240440002405800024070
:102080006C00024030B528B308C813491422194423
:10209000B1FBF2F18900C1631049816302214177EC
:1020A0001A6843F6F0718A43D0E900142143D0E95D
:1020B00002452C4321430469214344692143846937
:1020C00021431143196000214163012242770177C6
:1020D000084630BD012030BDF8FFFDBF00000240C2
:1020E00070B5044690F82000002501280CD001208E
:1020F00084F8200094F821600020012E06D084F896
:1021000020000225284670BD022070BD022684F8FA
:102110002160A0632068066826F00106066020465C
:10212000FFF760F8E06A00282068016802D041F0FB
:102130000E0106E021F0040101602068016841F011
:102140000A0101602068016841F001010160D9E7DE
:1021500070B5044600F01EF90546601C02D0044824
:102160000078044400F016F9401BA042FAD370BD79
:102170000400002070470000044910B50A680242BC
:1021800002D00860FFF7F6FF10BD00001404014004
:102190002DE9F84FDFF8B891002409F1040A0AF19B
:1021A000040B23460F270BF1040EC9E00125A540BF
:1021B0002A40AA427DD1674ED1F804C0ACEB060894
:1021C000B44532D014DCBCF1030F3AD009DCBCF1C9
:1021D000000F2AD0BCF1010F1CD0BCF1020F31D18D
:1021E0001DE0BCF1110F17D0BCF1120F2AD119E07C
:1021F000B8F5881F19D006DCB8F5803F15D0B8F5C2
:10220000801F1FD111E0B8F5001F0ED0B8F5041FD4
:1022100018D10AE0CB6815E0CB681B1D12E0CB6833
:1022200008330FE0CB680C330CE08B682BB1012B2B
:102230004FF0080303D0456104E0042302E0056188
:1022400000E00023FF2A01D8064601E000F1040661
:102250004FEA840501D9A5F12005D6F8008007FAD8
:1022600005FC28EA0C0803FA05F548EA0508C6F853
:1022700000804D68ED0062D5374DAE6946F001062D
:10228000AE61AD6924F0030605F001050095334DFC
:1022900006EB050CDCF80850A607360F07FA06F81F
:1022A00025EA0805DFF8B880404503D14FF0000863
:1022B00017E044E0DFF8AC80404502D14FF0010860
:1022C0000FE0DFF8A480404502D14FF0020808E09B
:1022D000DFF89880404502D14FF0030801E04FF04D
:1022E000040808FA06F848EA0508CCF808804D68A2
:1022F000D9F80060ED034D4601D5164300E0964342
:102300002E604D68DAF80060AD03554601D51643DE
:1023100000E096432E604D68DBF80060ED025D46FC
:1023200001D5164300E096432E604D68DEF800604C
:10233000AD02754601D5164300E096432E60641C3D
:102340000D682A46E5407FF431AFBDE8F88F000004
:102350000004014000001110001002400000014084
:1023600000080140000C0140001001400014014031
:102370008068084000D001207047C26821EA02034B
:102380000A4043EA0241016170470AB101617047A6
:102390000904FBE701488068704700000400002042
:1023A00070B5040025D094F83D00002520B984F8CC
:1023B0003C50204600F0B8F8242084F83D00206806
:1023C000016821F0010101602068016841F40041C9
:1023D00001602068016821F40041016000F020FBE9
:1023E0004D4A6168914201D84C4900E04C4988420D
:1023F00001D2012070BD4B492368B0FBF1F15E684A
:1024000026F03F060E435E606368934206D94FF4A0
:10241000967359434FF47A73B1FBF3F12368491C67
:102420001E6A26F03F06314319626168914210D856
:102430004900401EB0FBF1F2521CC2F30B02042A09
:1024400001D2042022E0B0FBF1F0401CC0F30B00ED
:102450001CE0A268F2B301EBC10303EB0116431EBB
:10246000B3FBF6F35B1C43F480431B0549D092B3E6
:1024700001EBC10202EB0111401EB0FBF1F0401C68
:10248000C0F30B0040F4804040F400402168CA696A
:102490004CF6FF739A431043C861D4E90710014317
:1024A0002068026822F0C00211430160D4E90301F0
:1024B00001432068826848F2FF339A4311438160E8
:1024C000D4E9050108432168CA6822F0FF021043DD
:1024D000C86001E00EE016E02068016841F00101EB
:1024E00001602564202084F83D00256384F83E5077
:1024F000002070BD01EB4106431EB3FBF6F35B1CED
:10250000B3E70120C2E701EB4101401EB0FBF1F04F
:10251000401CC0F30B00B7E7A086010080841E00BA
:1025200000093D0040420F0010B586B00021009127
:1025300001910291039100680F4988421AD10F4C12
:10254000A06940F00800A061A069694600F0080099
:102550000490C020009012200190032003900848AE
:10256000FFF716FEE06940F40010E061E06900F456
:102570000010049006B010BD00540040001002404E
:10258000000C014002488168027811448160704764
:1025900004000020074810B5016841F010010160F7
:1025A000032000F095F8002000F006F800F03EF857
:1025B000002010BD0020024000B5014687B0002277
:1025C000192000F065F8192000F054F813488169CB
:1025D00041F400618161806905A900F40060069002
:1025E000684600F0F7F900F02BFA0D494000B0FB07
:1025F000F1F10D480B4A491E0260416040F2E7329A
:102600000021C0E90321816000F026FC10B1012007
:1026100007B000BD044800F06BFCF9E70010024071
:1026200040420F00002C0140400200200F4808B536
:10263000816941F001018161816901F0010100912D
:10264000C16941F08051C161C069002200F0805031
:1026500000900F21901E00F01BF80548416821F002
:10266000E06141F00071416008BD000000100240CF
:1026700000000140002809DB00F01F020121914009
:102680004009800000F1E020C0F800117047000010
:10269000F0B40E4B1B680C46C3F30223C3F10705CD
:1026A000042D00D90425191D072901D2002300E0BB
:1026B000DB1E012606FA05F1491E214099409E4085
:1026C000761E16403143F0BC01F08ABB0CED00E0F1
:1026D000064900F0070208684FF6FF03184040EA79
:1026E0000220034A10430860704700000CED00E030
:1026F0000000FA0510B529A401461DCC86B08DE86E
:102700001D002AA02A4C006804900020012923D033
:1027100002293AD010291DD161682268D20119D549
:10272000C1F38342C9031DF8020009D5616804AAF8
:10273000C1F34041515C1F4AB2FBF1F1484301E053
:102740001D4948436168490204D440005FF0030119
:10275000B0FBF1F006B010BD226AC2F301210129DD
:1027600003D1920701D5C803F4E7022905D1626AB3
:10277000920702D549F64040ECE70329EAD12168E7
:102780008903E7D54FF22440E4E700F059F9616886
:10279000C1F38131491C4900DAE700000203040556
:1027A000060708090A0B0C0D0E0F1010010200009D
:1027B0000010024000127A0000093D002DE9F843A4
:1027C00005460078354CC00754D0E0690026C000AB
:1027D00008D4E06940F08050E061E069012600F033
:1027E000805000902E480168C90512D401688046C7
:1027F00041F480710160FFF7CDFD074605E000BFA1
:10280000FFF7C8FDC01B642823D8D8F80000C00516
:10281000F6D5206A10F4407021D0A98801F44071E7
:1028200081421CD0206A1F49012220F440700A60B6
:1028300000220A602062C00711D0FFF7ABFD0746F7
:1028400041F2883808E000BFFFF7A4FDC11B4145F5
:1028500002D90320BDE8F883206A8007F4D5206AF6
:10286000696820F44070084320621EB1E06920F0DE
:102870008050E0612878800705D56068A96820F459
:102880004040084360602878C00605D56068E96864
:1028900020F48000084360600020DBE70010024065
:1028A00000700040400442422DE9F0470F46050009
:1028B00061D0434E306800F00700B84209D230685A
:1028C00020F0070038433060306800F00700B8425D
:1028D00051D128683B4C810712D5400703D5606869
:1028E00040F4E06060602878000703D5606840F439
:1028F000605060606068A96820F0F0000843606084
:102900002878C00728D06868012810D021680228DC
:1029100010D0890700292EDA616821F003010143F4
:102920006160FFF737FD804641F288390DE021688C
:102930008903EFE78901EDE7FFF72CFDA0EB080124
:10294000494502D90320BDE8F0876068696800F056
:102950000C00B0EB810FEFD1306800F00700B842F7
:102960000BD9306820F0070038433060306800F041
:102970000700B84201D00120E5E72878400705D5D7
:102980006068E96820F4E060084360602878000728
:1029900006D56068296920F4605040EAC100606093
:1029A00000F05EF86168084AC1F30311515CC84049
:1029B0000649086006480068FFF7FEFD0020C2E7F0
:1029C0000020024000100240C84100081000002012
:1029D000080000200F2202600C4A536803F0030332
:1029E0004360536803F0F0038360536803F4E063CB
:1029F000C36052684FF4E06303EAD2020261044804
:102A0000006800F0070008607047000000100240F6
:102A100000200240014800687047000010000020BC
:102A20000448054900684968044AC1F30221515C21
:102A3000C84070471000002000100240D841000834
:102A40000448054900684968044AC1F3C221515C41
:102A5000C84070471000002000100240D841000814
:102A600012A185B00FC98DE80F0014A0144A0068A8
:102A700004905168134801F00C03042B10D0082B6C
:102A80000ED1C1F38343C9031DF803000AD5516871
:102A900004AAC1F34041515C0A4A5043B0FBF1F033
:102AA00005B0704708494843FAE7000002030405EF
:102AB000060708090A0B0C0D0E0F1010010200008A
:102AC0000010024000127A0000093D002DE9F84F85
:102AD000040070D02078C04DC00749D06868C0F3AA
:102AE0008100012807D06868C0F38100022809D15D
:102AF0006868C00306D52868800339D56068002857
:102B0000E7D035E06068B0F5803F0BD010B1B0F58C
:102B1000A02F11D0286820F480302860286820F485
:102B2000802002E0286840F480302860606890B11E
:102B3000FFF730FC06460AE0286840F48020286051
:102B4000F0E700BFFFF726FC801B642873D82868D5
:102B50008003F7D50CE0FFF71DFC064605E000BF3B
:102B6000FFF718FC801B6428F0D828688003F7D48E
:102B700020789A4E80074FF001094FF0000839D5B0
:102B8000686810F00C0F07D06868C0F38100022855
:102B900009D16868C00306D42868800714D5206965
:102BA000012808D110E02069B0B1C6F80090FFF705
:102BB000F1FB074605E00AE1FFF7ECFBC01B02282A
:102BC000C4D828688007F7D52868616920F0F80024
:102BD00040EAC10028600DE0C6F80080FFF7DAFB8C
:102BE000074604E0FFF7D6FBC01B022823D828685D
:102BF0008007F7D4207800072CD57948A169D9B18E
:102C0000C0F80090FFF7C6FB074604E0FFF7C2FBE1
:102C1000C01B02280FD8686A8007F7D571484FF4A7
:102C2000FA510068B0FBF1F0009000BF0098411E1F
:102C30000091FAD20EE080E0C0F80080FFF7AAFB16
:102C4000074604E0FFF7A6FBC01B022875D8686A98
:102C50008007F7D42078400760D5E8690027C000D6
:102C600008D4E86940F08050E861E869012700F085
:102C7000805000905C480168C90513D40168834600
:102C800041F480710160FFF785FB824606E000BFDA
:102C9000FFF780FBA0EB0A0064284ED8DBF80000A9
:102CA000C005F5D5E06801280AD008B1052813D081
:102CB000286A20F001002862286A20F0040002E05F
:102CC000286A40F001002862E06841F2883B98B130
:102CD000FFF760FB82460BE0286A40F004002862A0
:102CE000EEE700BFFFF756FBA0EB0A0159455AD8A3
:102CF000286A8007F6D50CE0FFF74CFB824605E01A
:102D0000FFF748FBA0EB0A0159454CD8286A800719
:102D1000F6D41FB1E86920F08050E861E06988B31B
:102D20006968C1F38101022944D00228C6F8608095
:102D300004D0FFF72FFB044638E034E0FFF72AFB0E
:102D4000074604E0FFF726FBC01B02282BD82868A3
:102D50008001F7D4206AB0F5803F05D16868A1688A
:102D600020F4003008436860D4E90801084369682A
:102D700021F4741108436860C6F86090FFF70AFBFD
:102D8000044606E025E000BFFFF704FB001B022815
:102D900009D828688001F7D51BE000BFFFF7FAFAD1
:102DA000001B022802D90320BDE8F88F28688001A3
:102DB000F4D40EE00128F7D06868226A00F480316C
:102DC000914204D1616A00F47010884201D0012060
:102DD000EAE70020E8E7000000100240000042425D
:102DE000800442421000002000700040704770478D
:102DF00070B590F83C20012A26D0012480F83C4090
:102E0000022280F83D2003685A689D6822F070060F
:102E10000A6832435A600D4B02689A4208D0B2F1F8
:102E2000804F05D00A4B9A4202D00A4B9A4204D1F5
:102E3000496825F080031943916080F83D400021E6
:102E400080F83C10084670BD022070BD002C014087
:102E5000000400400008004010B5040003D094F8BE
:102E60003D0010B107E0012010BD002084F83C00B7
:102E7000204600F01FF8022084F83D00211D206844
:102E800000F05EFD012084F8460084F83E0084F8DE
:102E90003F0084F8400084F8410084F8420084F840
:102EA000430084F8440084F8450084F83D00002085
:102EB00010BD000008B500680B49884212D10B48CC
:102EC000C16941F00201C161C069002200F0020045
:102ED000009005211D20FFF7DBFBBDE808401D2009
:102EE000FFF7C8BB08BD000000040040001002400E
:102EF00090F83D10012901D001207047022180F88F
:102F00003D100168CA6842F00102CA6000680B49BE
:102F1000884208D0B0F1804F05D00949884202D0DC
:102F20000849884204D1816801F00701062903D0CD
:102F3000016841F00101016000207047002C014050
:102F4000000400400008004070B5044690F83C00C2
:102F5000012817D0012584F83C50022084F83D0058
:102F60002068826822F0770222F47F42826008683B
:102F7000502830D00DDC20284DD005DC98B3102827
:102F80003BD148E0022070BD302844D0402834D1E5
:102F900039E0602828D0702806D0B0F5805F2CD0AA
:102FA000B0F5005F29D10AE0CB68D1E901212068A2
:102FB00000F0FCFC2068816841F0770109E0CB68F3
:102FC000D1E90121206800F0F1FC2068816841F41A
:102FD0008041816011E0CA684968206800F0F8FC0F
:102FE0005021206807E016E0CA684968206800F0B0
:102FF00000FD6021206800F0E3FC84F83D500020D3
:1030000084F83C0070BDCA684968206800F0E0FCA4
:1030100040212068EFE7226801461046EBE7704741
:1030200070B50446006801694FF00005C94389077F
:1030300015D4C168C943890711D4E91E0161012073
:103040002077206880698007204602D0FFF7E7FFDD
:1030500004E000F098F8204600F096F82577206804
:103060000169C943490717D4C168C943490713D443
:103070006FF004010161022020772068806910F45C
:10308000407F204602D0FFF7CAFF04E000F07BF843
:10309000204600F079F8257720680169C9430907BF
:1030A00016D4C168C943090712D46FF00801016141
:1030B000042020772068C0698007204602D0FFF7EF
:1030C000AEFF04E000F05FF8204600F05DF82577E1
:1030D00020680169C943C90617D4C168C943C90634
:1030E00013D46FF010010161082020772068C069B7
:1030F00010F4407F204602D0FFF791FF04E000F07B
:1031000042F8204600F040F8257720680169C9435D
:10311000C90708D1C168C943C90704D1891E016123
:10312000204600F033F820680169C943090609D434
:10313000C168C943090605D46FF0800101612046CA
:10314000FFF754FE20680169C943490609D4C168E4
:10315000C943490605D46FF040010161204600F0E3
:103160001FF820680169C94389060BD4C168C943A7
:10317000890607D46FF0200101612046BDE8704048
:10318000FFF735BE70BD7047704700000068034907
:10319000884201D1FFF7F6B970470000002C0140CA
:1031A0007047704770B5026804461068D16853696B
:1031B00010F00F0F52D003F0010501F490762E436A
:1031C0005FD0C20705D0CA0503D5226C42F00102C8
:1031D0002264420705D5DA0703D0226C42F00202CE
:1031E0002264820705D5DA0703D0226C42F004027C
:1031F0002264020707D501F020022A4303D0226C83
:1032000042F008022264226C002A33D0800604D5E2
:10321000880602D5204600F014FC20684069216C25
:10322000C0F38010090700D428B3204600F0FBFB50
:103230002068416949061AD5416921F04001416180
:10324000A06BA0B12D494163A06BFEF725FE0028BD
:1032500010D0A06B416BBDE870400847830610D5C5
:103260008B060ED52046BDE8704000F0EABB204634
:10327000FFF797FF70BD2046FFF793FF0020206403
:1032800070BD03062BD50B0629D594F83D002128E7
:10329000F6D1A068B0F5805F01D12069B0B1206A95
:1032A000411C2162216800784860E08C401E0004C7
:1032B000000CE084E4D12068C16821F08001C16085
:1032C0002068C16841F04001C16070BD206A00887B
:1032D000C0F308005060206A801C2062E5E74006C9
:1032E000F3D54806F1D5D168204621F04001D160E0
:1032F000202184F83D1000F03AF970BD173A00081B
:1033000070B5040004D094F83D00002510B106E02B
:10331000012070BD84F83C50204600F023F82420A2
:1033200084F83D002068C16821F40051C160204646
:1033300000F0CEFB2068016921F490410161206812
:10334000416921F02A0141612068C16841F40051BE
:10335000C1602564202084F83D0084F83E000020F0
:1033600070BD0000F0B585B0002400940194029473
:10337000039403683848364F364902220326051560
:10338000BB4228D18B6943F480438B618B6903F482
:10339000804304938B6943F004038B61896903962E
:1033A00001F0040104914115CDE900126946064679
:1033B000FEF7EEFECDE90054694630460294FEF772
:1033C000E7FE002207212520FFF762F92520FFF7FD
:1033D00051F905B0F0BD214FBB4215D1CB6943F483
:1033E0000033CB61CB6903F4003304938B6943F062
:1033F00004038B618969039201F0040104910C219B
:10340000CDE90012694620E015488342E1D1C86940
:1034100040F48020C861C86900F480200490886965
:1034200040F0080088618869CDE9005200F008008A
:10343000CDE903600B4D69462846FEF7A9FEE81466
:10344000CDE90004694628460294FEF7A1FEC0E7D4
:1034500000380140001002400008014000440040D4
:1034600000480040000C014090F83E30202B22D153
:10347000F9B1F2B190F83C30012B1CD08162828509
:10348000C28500210164222280F83E2080F83C1091
:103490000168CA6842F48072CA6001684A6942F0F1
:1034A00001024A610068C16841F02001C16000204A
:1034B0007047012070470220704770472DE9F8439C
:1034C000044690F83D001F4616460D4620284CD174
:1034D000C5B1BEB194F83C00012846D0012084F863
:1034E0003C004FF00008C4F84080212084F83D00E3
:1034F000FEF750FFA6848146E684A068B0F5805FA1
:1035000003D004E00120BDE8F883206928B12E46ED
:103510005FF0000584F83C800EE00026FAE7802189
:10352000204600F031FBA0B9AEB116F8010B2168BE
:103530004860E08C401EE084E08C4B464FF0000277
:1035400000970028EBD14FF04001204600F01CFB13
:1035500030B10320D7E735F8020BC0F30800E6E7E7
:10356000202084F83D000020CDE70220CBE7704703
:10357000FEE70000FEB50021274800910191254A91
:103580000291026092158260017301240475052581
:1035900005614FF460224160C0E90642FEF70CFA73
:1035A00008B1FEF763F80426CDE9006406246946F5
:1035B00019480294FEF706F908B1FEF757F8022001
:1035C000CDE9004069461448FEF7FCF808B1FEF763
:1035D0004DF8072000900320019069460E48FEF741
:1035E000F1F808B1FEF742F80820CDE90006694677
:1035F0000948FEF7E7F808B1FEF738F81120CDE9E1
:10360000000569460448FEF7DDF8002801D0FEF702
:103610002DF8FEBD0024014064000020094808B5D3
:10362000416941F0010141614069002200F001005F
:10363000009006210B20FFF72BF8BDE808400B2077
:10364000FFF718B8001002402DE9F04385B00024C0
:1036500035480094019402940394816941F010016B
:103660008161816901F010010491816941F02001BB
:103670008161816901F020010491816941F00401B7
:103680008161816901F004010491816941F00801BF
:1036900081618069254F00F0080004900022042118
:1036A0003846FEF772FEDFF888800022202140466F
:1036B000FEF76BFEDFF87C904FF440560022314657
:1036C0004846FEF762FE781400901B48CDE90104DD
:1036D00069463846FEF75CFD04200125CDE900056A
:1036E0000320CDE9024069463846FEF751FD20200F
:1036F000CDE900050220CDE9024069464046FEF7CB
:1037000047FD0096CDE90154694648460395FEF70A
:103710003FFD00220C212820FEF7BAFF2820FEF7EB
:10372000A9FF05B0BDE8F083001002400010014081
:1037300000080140000C0140000011100D4810B5B8
:103740000B4901600C49416000214FF480428160C7
:10375000C0E9031241618161C1610162FEF720FE8F
:10376000002803D0BDE81040FDF780BF10BD000069
:1037700000540040D8000020A086010010B586B09B
:10378000002417480094019402940394049413496C
:103790000594016040F60F61C0E901146321C0E99E
:1037A00003148461FFF758FB08B1FDF75FFF4FF486
:1037B0008050009069460A48FFF7C6FB08B1FDF744
:1037C00055FF049404A906480594FFF711FB00284F
:1037D00001D0FDF74BFF06B010BD00000004004013
:1037E0002C0100200C4810B50A4901604FF4E1316A
:1037F0004160002181600C22C160C0E90412816136
:10380000C161FFF77DFD002803D0BDE81040FDF742
:103810002DBF10BD00380140740100200C4810B5C8
:103820000A4901604FF4E1314160002181600C22BE
:10383000C160C0E904128161C161FFF761FD002828
:1038400003D0BDE81040FDF711BF10BD004400409B
:10385000B80100200C4810B50A4901604FF4E1316D
:103860004160002181600C22C160C0E904128161C5
:10387000C161FFF745FD002803D0BDE81040FDF70A
:10388000F5BE10BD00480040FC010020FEE7FEE749
:1038900010B5502080F31188BFF34F8FBFF36F8FA7
:1038A00000F02EFC18B104494FF080500860002051
:1038B00080F3118810BD000004ED00E030B593B036
:1038C00028216846FCF793FC14210AA8FCF78FFC1A
:1038D0000024022501200F940490009510200590EB
:1038E00012944FF44010CDE90840119410940795BC
:1038F0006846FFF7EBF890B90F20CDE90A0568029A
:10390000CDE90C400E9002210AA8FEF7CDFF30B998
:103910000FA80F951194FEF751FF002801D0FDF775
:10392000A5FE13B030BD70470148FFF779BB00001A
:10393000400200200148FFF773BB00002C0100206B
:10394000F0B50268164B174C174D4FF08047984260
:1039500005D0B84203D0A04201D0A84203D122F042
:1039600070064A683243984205D0B84203D0A0425C
:1039700001D0A84203D122F44074CA6822434C69A2
:1039800022F08002224302608A68C2620A68826270
:10399000984201D10969016301214161F0BD000034
:1039A000002C0140000400400008004010B584686D
:1039B00042EA032224F47F440A432243826010BD7A
:1039C000826822F070020A4342F00701816070476A
:1039D00010B5036A046A24F001040462846924F0C7
:1039E000F00444EA021423F00A020A4384610262EA
:1039F00010BD10B5036A23F0100303628369046AE3
:103A000023F4704343EA023224F0A00343EA011195
:103A10008261016210BD10B5406A0021C185C18478
:103A2000FFF7BFFB10BD0168CA6822F49072CA603C
:103A300001684A6922F001024A61202180F83E10A3
:103A4000704710B590F83E10222901D0022010BD19
:103A500082684FF480539A4201D1016921B1816A91
:103A60009A421BD04AB10AE00268816A5268C2F3E6
:103A700008020A80816A891C08E0026972B1026842
:103A8000526802F07F020A70816A491C8162C18D0E
:103A9000491E0904090CC18503D016E0026852686A
:103AA000F1E70168CA6822F02002CA600168CA68AA
:103AB00022F48072CA6001684A6922F001024A61F8
:103AC000202180F83E10FFF7F8FC002010BD000018
:103AD00070B5044600680169E26821F44051114361
:103AE00001612169A0680843616908432168CA68C7
:103AF00041F20C639A430243CA6020684169A2699B
:103B000021F44071114341611E492068884202D16D
:103B1000FEF796FF01E0FEF783FF00EBC00101EB2B
:103B20000012606864218000B2FBF0F3B3FBF1F394
:103B30006FF018067343B2FBF0F5B2FBF0F605EB3D
:103B40008305322303EB0515B5FBF1F5B6FBF1F662
:103B500005F0F00505EB0615B2FBF0F6B2FBF0F050
:103B6000B0FBF1F06FF01802504306EB800003EB5E
:103B70000010B0FBF1F0216800F00F0028448860CD
:103B800070BD0000003801402DE9F041984617460D
:103B90000E460446069D1DE0681C1BD02DB1FEF7A5
:103BA000F9FBA0EB0800A84214D92068C16821F4F1
:103BB000D071C1602068416921F00101416120207C
:103BC00084F83D0084F83E00002084F83C00032087
:103BD000BDE8F0812068006836EA000004D00020CB
:103BE000B842D9D00020F3E70120F9E738B51C4DE1
:103BF000286800681B4CC043800619D42846FFF78C
:103C0000D1FAB4F8000440F2FF31C0F30E0088424C
:103C10000ED215480178B4F80004B4F80024C0F3BB
:103C20000E002318401C60F30E02A4F80024197043
:103C300028680168C943C90608D401684068009033
:103C4000B4F8000440F40040A4F80004012206493E
:103C50000348FFF709FCBDE838400148FFF7A2BA66
:103C60007401002054040020500000200FB40D20E7
:103C70002DE9F04387B00A254FF001080FAC8DF80D
:103C800010008DF814504FF000094FF47A7640E0A0
:103C90005C280FD0252821D0481C0E9033460122E5
:103CA0003B48FFF70BFC10B3FF2007B0BDE8F00363
:103CB0005DF814FB491C0E9108786E2805D0722817
:103CC00013D13346012204A902E03346012205A99B
:103CD0002F48FFF7F3FB0028E6D117E0491C0E91AF
:103CE000087864281BD0732802D0491C0E9110E07C
:103CF00080CC08E03346012239462548FFF7DEFB39
:103D00000028D1D17F1C38780028F3D10E98401CB0
:103D10000E900E9908780028BAD14046C5E701CC2C
:103D20000027694600281FD007DA4FF02D028DF8D2
:103D30000020C0F1000001F1010142F2107300BF48
:103D400090FBF3F252EA070C06D002F1300701F8BB
:103D5000017B02FB1300012793FBF5F3002BEFDC43
:103D600081F800906F460EE030208DF800008DF84D
:103D70000190F7E73346012239460548FFF79EFBDD
:103D8000002891D17F1C38780028F3D1BEE70000CD
:103D900074010020FEE700000FB4054B10B503A925
:103DA000044A029800F03CF810BC5DF814FB0000D7
:103DB000E53F0008600000200FB4084B10B504A9CF
:103DC00002AA039800F02CF8044602A9002000F093
:103DD00003F9204610BC5DF814FB0000D93F000831
:103DE0000907090E002804DB00F1E02080F8001428
:103DF000704700F00F0000F1E02080F8141D7047BC
:103E000002E008C8121F08C1002AFAD170477047A3
:103E1000002001E001C1121F002AFBD17047000001
:103E20002DE9FF4F8BB09A460F460546002606E067
:103E300025280BD052460D9990476D1C761C28788A
:103E40000028F5D10FB03046BDE8F08F0024A04621
:103E50000122604900E0044315F8013F203B02FACB
:103E600003F00842F7D128782E2817D115F8010F52
:103E700044F004042A280ED06FF02F022878A0F115
:103E8000300109290AD808EB880102EB410100EB57
:103E900001086D1CF2E757F8048B6D1C287869281F
:103EA0003ED006DC0028CDD063280BD0642804D196
:103EB00036E0732810D075284BD052460D999047A4
:103EC000761C85E017F8040B8DF8000000208DF8B3
:103ED0000100E946012003E057F8049B4FF0FF3052
:103EE00061074FF0000401D40AE0641C44450DDA78
:103EF0008442FADB19F804100029F6D106E0641CAC
:103F00008442FCDB19F804100029F8D1264404E0AF
:103F100019F8010B52460D999047641EF8D257E0EC
:103F200001CF4FF00A0B002802DA40422D2102E0B7
:103F3000210504D52B218DF82410012103E0E10790
:103F400005D02021F7E70DF1200908910CE00021B0
:103F5000F9E701CF4FF00A0BF9E75946FCF7E8FB08
:103F600001F1300209F8012D0028F6D1ADEB09006E
:103F700000F1200B600701D44FF00108D84502DDA5
:103F8000A8EB0B0000E000208046002406E009A812
:103F90005246005D0D999047641C761C0898844237
:103FA000F5DB04E0302052460D999047761CB8F1BD
:103FB0000001A8F10108F5DC05E019F8010B5246F3
:103FC0000D999047761CBBF10001ABF1010BF4DCBD
:103FD0006D1C34E7092801000A68531C0B6010703F
:103FE0007047000013B54FF6FF730122694602487F
:103FF000FFF764FA00981CBDFC010020FEF7CAFA26
:10400000FFF75CFCFFF720FBFFF708FBFFF706FC60
:10401000FFF7E8FBFFF71EFCFFF7ACFAFFF7AEFB7C
:10402000FFF78CFBFCF7D8FE012801D0FDF71EFB43
:10403000FCF77CFF4FF49674FDF71EFB2046FEF75D
:1040400087F8F9E706484168096829B14168C968F5
:10405000C9684968016370474FF0FF31FAE7000013
:1040600014000020D0E9013201699A60D0E90123EF
:104070005A604A68824201D182684A600022026125
:104080000868401E08600868704742684A60936884
:104090008B6093685960916008610168491C0160F8
:1040A000704700001448816B11B1012141627047D3
:1040B000002141628169B1FA81F1C1F11F0101EB77
:1040C00081020E4951F822306BB101EB820101F1FE
:1040D00008034A6852684A609A4201D152684A60AD
:1040E000D16801607047502080F31188BFF34F8F73
:1040F000BFF36F8FFEE7000014000020880200204D
:104100002DE9F0412E4C0027A06B40B1206A401CE5
:104110002062606A00B101273846BDE8F081666917
:10412000761C666113D16068006838B1502080F356
:104130001188BFF34F8FBFF36F8FFEE76068A168F0
:104140006160A060A06A401CA062FFF77BFF206B4B
:10415000DFF87080864209D36068006880B16068CB
:10416000C068C568686886420DD220632068C06A4E
:1041700000EB800158F821000128CAD90127C8E7BF
:104180004FF0FF30F1E7281DFFF76CFFA86A18B168
:1041900005F11800FFF766FFE86A0121A269814076
:1041A0001143A16100EB800108EB8100291DFFF79D
:1041B0006CFFE86A2168C96A8842CDD30127CBE742
:1041C0001400002088020020000000000000000011
:1041D00001020304060708090000000001020304AD
:1041E000004200080000002064000000003E0008BB
:1041F0006442000864000020140C0000103E000817
:10420000010000000100000010000000000000009C
:104210000024F40000000000000000000000000086
:10422000000000000000000000000000000000008E
:10423000000000000000000000000000000000007E
:10424000000000000000000000000000000000006E
:10425000000000000000000000000000000000005E
:04426000000000005A
:04000005080000ED02
:00000001FF
