:020000040800F2
:10000000F03400209D010008BF460008BD400008F4
:10001000BD460008F112000845500008000000002D
:1000200000000000000000000000000005010008C2
:100030004117000800000000490100083D4B00087E
:10004000B7010008B7010008B7010008B7010008B0
:10005000B7010008B7010008B7010008B7010008A0
:10006000B7010008B7010008B7010008E116000851
:10007000B7010008B7010008B7010008B701000880
:10008000B7010008B7010008150A0008B701000809
:10009000B7010008B7010008B7010008B701000860
:1000A000B7010008D54B0008B7010008B7010008E8
:1000B000B7010008E14B0008B7010008B7010008CC
:1000C000B7010008B7010008B7010008B701000830
:1000D000B7010008994E0008B7010008B7010008F1
:1000E000F11F0008B7010008B7010008DFF810D0C1
:1000F00000F036FC00480047155A0008AFF30080B6
:10010000F0340020224B19680868B0E8F00F80F343
:100110000988BFF36F8F4FF0000080F311884EF015
:100120000D0E70470000000006480068006880F36C
:10013000088862B661B6BFF34F8FBFF36F8F00DFE1
:1001400000BF00BF08ED00E0EFF30980BFF36F8F41
:100150000F4B1A6820E9F00F106008B54FF05000FF
:1001600080F31188BFF34F8FBFF36F8F06F090F9C4
:100170004FF0000080F31188BDE808401968086856
:10018000B0E8F00F80F30988BFF36F8F704700BFAE
:1001900034000020EFF305807047000006488047D8
:1001A00006480047FEE7FEE7FEE7FEE7FEE7FEE75C
:1001B000FEE7FEE7FEE7FEE7D34B0008ED00000890
:1001C000202A04DB203A21FA02F00021704721FAAC
:1001D00002F3D040C2F12002914008431946704713
:1001E00040EA01039B0703D009E008C9121F08C0B9
:1001F000042AFAD203E011F8013B00F8013B521E39
:10020000F9D27047D2B201E000F8012B491EFBD2AF
:1002100070470022F6E710B513460A460446194611
:10022000FFF7F0FF204610BD30B505462A460B46C5
:1002300012F8010B13F8014B08B1A042F8D01CB121
:10024000002802D06D1CF1E7284630BDF0B480EAEA
:100250000102D40F4200B2EB410F02D2024608461F
:1002600011464A0042D0C30DDDB2C1F3C752AD1AE8
:10027000202D35DAC1F3160141F4000204B15242D7
:10028000C5F1200602FA06F12A411044B3EBD05F13
:1002900023D0C4B1012DA0EBC35009DCF0BC4FF05A
:1002A000004202EAC352DBB200F5000000F0CCBA13
:1002B000400000F1807000EBC350A0F1807040EA74
:1002C000D170490009E0490841EAC071A0EBC35070
:1002D00000F50000400800EBC350F0BC00F0ABBAE2
:1002E0006142012202EB4101001BF6E7F0BC7047BE
:1002F00081F00041AAE780F00040A7E780EA010210
:1003000010B502F00043400022D04A001FD0010E79
:1003100001EB1261C0F35600C2F3560240F4000034
:1003200042F40002A0FB022000047F39140400D034
:10033000401C50EA124001D44000491EC2B20C06D3
:1003400004EBD010401C4008802A02D003E00020BB
:1003500010BD20F00100002900DA0020184310BD74
:1003600030B480EA010202F0004530F0004221F092
:10037000004013D090B1C30DD40DC2F31601C0F3E9
:100380001600E41A41F4000140F400027D34914269
:1003900001D3641C00E04900002C02DA30BC0020CC
:1003A00070474FF400000023914201D3891A0343A0
:1003B00040084FEA4101F7D151B1914202D14FF0CB
:1003C000004105E002D24FF0010101E06FF00101B0
:1003D00003EBC450284430BC00F02DBA2DE9FE4F89
:1003E000804681EA0300C00F0C46009021F00041D6
:1003F00023F00045B8EB0200A94105D24046214652
:1004000090461C460B46024623F00040104347D05E
:10041000270DC7F30A00C3F30A510290401A019056
:1004200040286BDAC3F3130040F4801B0098924617
:1004300020B10023D2EB030A63EB0B0B0198594662
:10044000C0F14002504600F0D5F906460D46504630
:100450005946019A00F0DDF910EB080061410024D3
:1004600087EA115284EAE7731A4340D0009A62B3D4
:10047000019A012A4FEA075215DC001B61EB0201C9
:100480004FF0004202EA0752CDE90042001C41F55C
:10049000801132462B4600F014FA03B0BDE8F08F0D
:1004A00040462146F9E7001B61EB0201001C41F5C3
:1004B000801300185B412018A2F5001747EB0301D9
:1004C00040EAD570B6196D4111E06D084FEA360665
:1004D00045EAC0754FEA0752001B61EB0201001CA0
:1004E00041F5801149084FEA300000195141324668
:1004F0002B4603B0BDE8F04F00F0D4B900980122BC
:1005000040000023D0EB020263EBE0730098214629
:100510004FEAE074B8EB000061EB0401E9E783F017
:1005200000435BE781F0004158E72DE9FE4F81EA87
:10053000030404F0004421F0004100944FF0000B4C
:1005400023F0004350EA01045ED052EA03045BD07A
:10055000C3F30A54C1F30A552C44A4F2F3340194B2
:10056000A0FB0254C1F3130141F48011C3F3130340
:1005700043F4801301FB024400FB034E840A970AF4
:1005800044EA815447EA8357A4FB076802958D0A21
:1005900005FB07854FEA932C04FB0C542705029DAD
:1005A0004FEA065847EA1637B5EB08056EEB070C1D
:1005B000870E920E47EA811742EA8312A7FB0201D7
:1005C000B6EB0B0164EB00042B0D43EA0C335E1811
:1005D00044EB1C50DA465146E7FB0201C5F3130415
:1005E0004FEA0B3343EA14534FEA0432019C43EAC7
:1005F0000603A4F10C040294009CCDE900B400F0C1
:1006000060F903B0BDE8F08F00200146F9E72DE95D
:10061000F04D81EA030404F0004B21F0004514463C
:100620004FF0000A23F0004150EA050220D054EABE
:1006300001021DD0C5F30A570246C5F31303C1F3E7
:100640001300C1F30A5640F4801543F48013A7EB5E
:100650000608101BD64608F2FD3873EB050002D3DE
:1006600008F1010801E092185B41B8F1000F03DACC
:1006700000200146BDE8F08D00204FF480110646B1
:1006800084460EE0171B73EB050705D3121B63EBC3
:10069000050306434CEA010C49084FEA3000921862
:1006A0005B4150EA0107EDD152EA030012D082EA21
:1006B000040083EA0501084305D0101BAB4106D2B4
:1006C0000122002306E000224FF0004302E06FF019
:1006D000010253101AEB06004CEB085110EB0A0014
:1006E00041EB0B01BDE8F04D00F0DCB89623002291
:1006F000114600F0A9B80EB540F233410291002135
:10070000CDE900110A460B4600F0DBF803B000BD4E
:1007100020F00040C10DC0F3160040F400007F2916
:1007200001DA00207047962903DCC1F19601C84028
:100730007047963988407047C1F30A5210B5C1F32B
:10074000130140F2FF3341F480119A4201DA002094
:1007500010BD40F233439A42A2F2334203DC5242CC
:10076000FFF72EFD10BD904010BD00F0004230F0AC
:1007700000400AD0C10D01F56071C0F3160042EAD5
:100780000151C208400711437047002001467047DD
:1007900001F0004330B421F0004150EA010206D0DC
:1007A0000A0DA2F56072C1F31301002A02DC30BC0D
:1007B00000207047440F44EAC104C100E01830BC77
:1007C00000EBC25000F037B830B50B4601460020B0
:1007D0002022012409E021FA02F59D4205D303FA03
:1007E00002F5491B04FA02F52844151EA2F1010284
:1007F000F1DC30BD202A04DB203A00FA02F10020AF
:1008000070479140C2F1200320FA03F3194390404E
:100810007047202A06DBCB17203A41FA02F043EA60
:10082000E07306E041FA02F3D040C2F120029140A9
:100830000843194670470029A8BF7047401C49006B
:1008400008BF20F00100704710B4B0FA80FC00FA35
:100850000CF050EA010404BF10BC704749B1CCF160
:10086000200421FA04F411FA0CF118BF01212143EC
:100870000843A3EB0C01CB1D4FEA00614FEA1020A7
:1008800042BF002010BC704700EBC3501044002949
:10089000A4BF10BC7047401C490008BF20F00100F5
:1008A00010BC704710B5141E73F1000408DA401C28
:1008B00041F1000192185B411A4301D120F001007F
:1008C00010BD2DE9F04D92469B4611B1B1FA81F26F
:1008D00002E0B0FA80F220329046FFF78BFF044628
:1008E0000F4640EA0A0041EA0B0153465A460843C4
:1008F00013D0114653EA010019D0C8F14002504606
:10090000FFF75EFC05460E46504659464246FFF745
:1009100071FF084305D0012004E020463946BDE8B8
:10092000F08D0020054346EAE0762C4337430A98D1
:100930006305E40AA0EB08000022FD0A44EA4754DC
:100940000A3002D500200146E9E701051019694186
:10095000DDE9084500196941BDE8F04DA2E7000056
:10096000064C074D06E0E06840F0010394E80700FC
:1009700098471034AC42F6D3FFF7BCFBEC75000887
:100980000C76000870B521F0004303430CD0C1F38E
:100990000A550024D5EB040564EB0403D617AD1A01
:1009A000B34102DB0020014670BD201841EB02512B
:1009B00070BD0EB5C10F80EAE0700844CA0700217F
:1009C00040F233438DE80E000A460B46FFF779FFED
:1009D00003B000BD70B5C1F30A5201F00045002418
:1009E000C1F3130140F2FF3341F480119A4201DA5E
:1009F000002070BD40F233439A42A2F2334203DC3E
:100A00005242FFF7DDFB00E090402C43F1D0404222
:100A100070BD0000014801F069BC0000B400002076
:100A200070B5044600688168C943C9071CD1816854
:100A300021F00101816002F0BBF905460FE000BF23
:100A400002F0B6F9401B022809D9A06A40F0100054
:100A5000A062E06A40F00100E062012070BD206801
:100A60008068C043C007EBD0002070BD10B50146C0
:100A7000406A826A12F0500F05D0006A026BBDE82E
:100A8000104008461047816A41F400718162016894
:100A90008968C1F3424107290CD1017B51B9816AB0
:100AA00021F480718162816AC90403D4816A41F0B2
:100AB0000101816201F012FC10BD10B5406A816A2B
:100AC00041F040018162C16A41F00401C16201F05C
:100AD0000CFC10BD10B5406A01F006FC10BD000012
:100AE000F8B500260446009600688168C943C90726
:100AF00028D0816841F001018160134813490068E2
:100B0000B0FBF1F000E0401E00900028FBD102F0A5
:100B10004FF9054611E000BF02F04AF9401B0228D8
:100B20000BD9A06A40F01000A062E06A40F001001A
:100B3000E06284F824600120F8BD20688068C0432A
:100B4000C007E9D10020F8BD3000002040420F006E
:100B500010B50124084801F0DDFA28B9052207493B
:100B6000054801F021FE08B1FF2010BD0449002016
:100B70000870204610BD0000B40000209A3000200C
:100B8000960000202DE9F05F2548C088FFF7AEFDF4
:100B90002449FFF7E5FB82462349FFF7AFFBFFF748
:100BA000E4FD8046894651465046FFF7A7FB0646BE
:100BB0001E49FFF7A3FBFFF7D8FD04460D4651463B
:100BC0003046FFF79BFB8346FFF7CFFD184A194BD2
:100BD000FFF7ABFC06460F4651465846FFF78EFB23
:100BE000FFF7C3FD4FF06632134BFFF79EFC324612
:100BF0003B46FFF7F3FB22462B46FFF7EFFB42464F
:100C00004B46FFF7EBFB00220C4BFFF7E7FB002204
:100C10000B4BFFF7FCFCBDE8F05FFFF7B9BD000030
:100C20009600002000007A44006063C500802244E2
:100C30009A99999999DD87C066662740405ED240AF
:100C4000008066402DE9F84F25488088FFF74EFD6B
:100C50002449FFF785FB83462349FFF74FFBFFF746
:100C600084FD8046894659465846FFF747FB0446AF
:100C70001E49FFF743FBFFF778FD05460E46594630
:100C80002046FFF73BFB0090FFF76FFD4FF0333A34
:100C90005246174BFFF749FC07460C465946009849
:100CA000FFF72CFBFFF761FD5246124BFFF73DFCAF
:100CB0003A462346FFF792FB2A463346FFF78EFB60
:100CC00042464B46FFF78AFB00220B4BFFF786FBA1
:100CD00000220A4BFFF79BFCBDE8F84FFFF758BD19
:100CE0009600002000007A44004616C700981E4770
:100CF000332EA9C033936340806BE740000054401B
:100D000070B501251C4801F0EFFC01211A4801F0E3
:100D100053FC1A4C1A48217839B30122202102F0E1
:100D200042F81849088840F6E442504340F6FF7202
:100D3000B0FBF2F06080488840F6E4435843B0FBD3
:100D4000F2F0A08088885843B0FBF2F0E080C888B9
:100D50005843B0FBF2F0208108895843B0FBF2F011
:100D6000608100202070284670BD0022202102F002
:100D70001AF80025F7E70000B400002096000020D4
:100D8000000801409A3000202DE9F05F26480089D4
:100D9000FFF7ACFC2549FFF7E3FA8246FFF7E5FCD5
:100DA000234A244BFFF7C1FB8046894651465046F3
:100DB000FFF7A4FA0446FFF7D8FC1F4A1F4BFFF7C2
:100DC000B4FB05460E4651462046FFF797FA834688
:100DD000FFF7CBFC4FF06632194BFFF7A6FB074637
:100DE0000C4651465846FFF789FAFFF7BEFC154AF4
:100DF000154BFFF79AFB3A462346FFF7EFFA2A46D0
:100E00003346FFF7EBFA42464B46FFF7E7FA00227C
:100E10000E4BFFF7E3FA00220D4BFFF7F8FBBDE89E
:100E2000F05FFFF7B5BC00009600002000007A4498
:100E30001F85EB51B86E6DC046B6F3FDD438254022
:100E400066866BC0F6285C8FC235314000B09E408C
:100E500000408F402DE9F05F25484088FFF746FCB1
:100E60002449FFF77DFA82462349FFF747FAFFF747
:100E70007CFC8046894651465046FFF73FFA0646BD
:100E80001E49FFF73BFAFFF770FC04460D4651463A
:100E90003046FFF733FA8346FFF767FC4FF03332F3
:100EA000174BFFF742FB06460F4651465846FFF7E1
:100EB00025FAFFF75AFC4FF06632124BFFF735FB6D
:100EC00032463B46FFF78AFA22462B46FFF786FA60
:100ED00042464B46FFF782FA00220B4BFFF77EFAA1
:100EE00000220A4BFFF793FBBDE8F05FFFF750BC11
:100EF0009600002000007A44005CAFC600CC254676
:100F0000335EA1C066A66540008BD140002CBA407C
:100F1000064810B54089FFF7E9FB0549FFF720FABD
:100F2000BDE810404FF08141FFF790B996000020D6
:100F300000007A447CB505F059F9294D02242602B7
:100F4000287868B127480023CDE90040324626A121
:100F50002A4805F00BFD012802D129A004F0A0F8D1
:100F600020480023001FCDE9004032462DA1314822
:100F700005F0FCFC012802D12FA004F091F81949DA
:100F800003200839CDE9000100234FF4806234A129
:100F9000384805F0EBFC012802D127A004F080F8C6
:100FA00000221821012005F0F5FA0E4C0C3C2061BE
:100FB00010B131A004F074F8287848B10022022161
:100FC000012005F0E7FA606110B139A004F068F87B
:100FD000206805F0A5F9BDE87C4005F027B90000C0
:100FE0000000002014000020436F6E6E6563745F84
:100FF000496F745F5461736B00000000591500085D
:1010000063726561746520636F6E6E6563742069D9
:101010006F74207461736B207375636365737320E1
:101020000D0A00004765745F53656E736F725F54FD
:1010300061736B008D2000086372656174652067C1
:1010400065742073656E736F7220646174612074BF
:1010500061736B20737563636573730D0A00000021
:10106000446973706C61795F446174615F5461734A
:101070006B000000491B0008537563636565646578
:101080006420696E206372656174696E672074689C
:10109000652073656E736F722064617461206D6585
:1010A00073736167652071756575650D0A000000D1
:1010B00053756363656564656420696E206372655A
:1010C0006174696E672074686520696E7465726EFC
:1010D000657420737461747573206D6573736167D3
:1010E000652071756575650D0A00000070B5334D9A
:1010F00000242021284601F04EFE322001F036FD6A
:10110000641C0A2CF5DB2EA003F0CAFF03F009FBD8
:10111000012803D02FA003F0C3FF2FE032A003F07B
:10112000BFFF012335A200211E2003F079FC01231B
:1011300036A21946052003F073FCFFF709FD0128CC
:1011400006D037A003F0ACFF012339A2022112E040
:101150003BA003F0A5FF01233EA20221052003F0DE
:101160005FFC00F0B9FD01280AD03FA003F098FF12
:10117000012342A20321052003F052FC00F03CFFB2
:1011800043A003F08DFF012347A20321052003F0B4
:1011900047FC00F049FA4AA003F082FF01234EA267
:1011A0000421052003F03CFC03F08EFA2C210A20D8
:1011B00000F0A0F84D48406870BD000000080140F4
:1011C0004C454420696E697420737563636573735D
:1011D0000D0A00004F4C454420696E697420666119
:1011E000696C0D0A000000004F4C454420696E698F
:1011F0007420737563636573730D0A007374617291
:10120000742042535020696E697400004F4C45446D
:1012100020696E69742073756363657373000000E1
:1012200041444320696E6974206661696C0D0A004F
:1012300041444320696E6974206661696C00000056
:1012400041444320696E69742073756363657373E9
:101250000D0A000041444320696E69742073756370
:1012600063657373000000004553503832363620F2
:10127000696E6974206661696C0D0A006573703867
:1012800032363620696E6974206661696C00000030
:101290004553503832363620696E69742073756351
:1012A000636573730D0A000065737038323636203B
:1012B000696E697420737563636573730000000061
:1012C000445448313120696E6974207375636365D5
:1012D00073730D0A00000000445448313120696ED8
:1012E00069742073756363657373000000000020E8
:1012F000FEE7000070B50E4604460A4D08E02021C6
:10130000284601F048FD304601F030FC641EE4B28E
:10131000002CF4D12846BDE870400022202101F0C5
:1013200042BD00000008014070B529A003F0B8FEDE
:101330000124002500F0A4FC012843D1002000F086
:1013400099FD01283ED105E02FA132A06D1C00F0CF
:10135000EFFC04462CA12FA000F0EAFC08B90A2DEE
:10136000F2DB012C14D1002507E02CA32FA233A11E
:1013700008206D1C00F010FE044628A32BA22FA10C
:10138000082000F009FE08B90A2DEEDB012C01D07F
:10139000204670BD2DA238A13CA000F041FD0128DF
:1013A00010D13CA000F002FD01280BD140F25B718E
:1013B00043A000F0DBFC012804D14EA000F014FD96
:1013C000012801D0FF2070BD57A003F069FEDFE7C0
:1013D00054686520496E7465726E6574206F66206E
:1013E0005468696E677320636C6F756420706C61FC
:1013F00074666F726D20697320636F6E6E656374BF
:1014000065640D0A00000000313233343536373858
:10141000393000006E6F76613700000075732E70F2
:101420006F6F6C2E6E74702E6F7267006E74702EFC
:10143000736A74752E6564752E636E00636E2E6E0E
:1014400074702E6F72672E636E000000423231306E
:1014500044443946373439323838414537463841C3
:1014600034383546304142413043304330353637E9
:101470003741393100000000746573745F302668AD
:10148000356662345851684F6F440000313233344E
:10149000353600003132333435367C73656375720E
:1014A000656D6F64653D335C2C7369676E6D657443
:1014B000686F643D686D6163736861317C00000032
:1014C00068356662345851684F6F442E696F742DC9
:1014D00061732D6D7174742E636E2D7368616E6708
:1014E0006861692E616C6979756E63732E636F6DC7
:1014F000000000002F7379732F68356662345851ED
:10150000684F6F442F746573745F302F7468696E11
:10151000672F736572766963652F70726F7065727D
:1015200074792F736574000054686520636C6F755F
:101530006420706C6174666F726D206973207375BE
:10154000636365737366756C6C7920636F6E6E652B
:10155000637465640D0A0000114D124E4FF4FA7465
:1015600041F28837002322460F49286805F07AF8AF
:10157000012802D10DA003F093FD224618493068DE
:1015800005F020F9012802D116A003F089FD03F02F
:1015900057FD1DA003F084FD384604F09BFEE1E7F3
:1015A0001C00002018000020A80000204465736380
:1015B00072697074696F6E2053656E64696E67201E
:1015C0006E6574776F726B207374617475732064C9
:1015D000617461207375636365656465640D0A00F9
:1015E000D8300020526563656976696E672073653F
:1015F0006E736F72206461746120737563636565D7
:101600006465640D0A000000636F6E6E656374208C
:10161000696F74207461736B207461736B205275F1
:101620006E6E696E670D0A0010B500F009F800F0E3
:1016300097F804464FF47A7001F098FA204610BDEE
:101640001FB500200290042000900120019003208B
:101650000C4C03906946204601F0A8FA00220421B0
:10166000204601F0A0FB142001F080FA01220421A1
:10167000204601F098FB04B01E20BDE8104000F0A9
:1016800061B80000001001402DE9FC410E46804683
:101690000125FFF7D5FF00F063F8012802D0FF20F5
:1016A000BDE8FC8100246F4600F08EF83855641CBC
:1016B000E4B2052CF8D39DF800109DF801009DF8C8
:1016C00003300A189DF8020003441A449DF80430C0
:1016D0009A4202D1317088F800002846E0E7000005
:1016E000014801F033B90000E400002030B590F863
:1016F00040500124AC40C56B6C6004686360436873
:10170000102B036803D099600068C26030BD9A60F6
:101710000068C16030BD08B500208DF80000694642
:10172000FFF7B2FF9DF8000008BD08B500208DF856
:10173000000001466846FFF7A7FF9DF8000008BDBE
:101740007047000010B5044601F00AFF0349B0FBE2
:10175000F1F16143491EFDD210BD000060EC530061
:101760007FB5002401260420164DCDE902640090C7
:1017700001946946284601F019FA04E0641CE4B2B9
:101780000120FFF7DFFF0421284601F0FFFA10B126
:10179000642CF3D30EE0642C0CD204E0641CE4B29D
:1017A0000120FFF7CFFF0421284601F0EFFA20B116
:1017B000642C05D3FF2004B070BD642CEED3F9E790
:1017C0003046F8E7001001402DE9F0410020184EA6
:1017D00005464006070E002404E0641CE4B2012024
:1017E000FFF7B0FF0421304601F0D0FA08B1642CB5
:1017F000F3D3002404E0641CE4B20120FFF7A2FF4D
:101800000421304601F0C2FA08B9642CF3D3282031
:10181000FFF798FF0421304601F0B8FA00B101202B
:101820006D1C3843EDB2082DD3D3BDE8F081000024
:10183000001001402DE9F84F02F046FF0123A4A259
:101840000021022003F0ECF8002833D00123A3A2EA
:101850001946022003F0E4F800282BD002210123CE
:10186000A1A2084603F0DCF820B30123A1A20321C2
:10187000022003F0D5F8E8B10123A1A2042102203F
:1018800003F0CEF8B0B10123A0A20521022003F09D
:10189000C7F878B10123A0A20621022003F0C0F806
:1018A00040B101239FA20721022003F0B9F808B13B
:1018B000012000E000209D4C834620684043FEF755
:1018C0001AFFDFF86CA29B4D52462B46FEF72DFE09
:1018D00004F046F8984E00223346FEF726FE804676
:1018E0000F462068FEF707FF52462B46FEF71DFE07
:1018F00004F036F800223346FEF717FE0646894606
:101900002068FEF7F8FE52468C4BFEF70EFE04F000
:10191000D7FB00228A4BFEF708FE05468A46206860
:10192000FEF7E9FE2A465346FEF758FD32464B467F
:10193000FEF754FD42463B46FEF750FDFEF7FCFE27
:101940004FF47A61B0FBF1F04FF27B712060884276
:1019500001D90020206020787A4C00F11801233052
:1019600021756075E068FEF7D3FE0A25B0FBF5F23D
:101970000126022300216420009603F00DF80028C0
:101980007DD0E068FEF7C4FEB0FBF5F105FB110267
:10199000022300216E20009602F0FEFF00286ED088
:1019A000A068FEF7B5FEB0FBF5F20223012164202A
:1019B000009602F0F1FF002861D0A068FEF7A8FEB3
:1019C000B0FBF5F105FB1102022301216E20009608
:1019D00002F0E2FF002878D06068FEF799FEB0FBC5
:1019E000F5F2022319466420009602F0D5FF002884
:1019F0006BD06068FEF78CFEB0FBF5F105FB1102C1
:101A0000022319466E20009602F0C6FFB8B3206884
:101A1000FEF77EFEB0FBF5F2022303216420009660
:101A200002F0BAFF58B32068FEF772FEB0FBF5F182
:101A300005FB1102022303216E20009602F0ACFF89
:101A4000E8B1607D0223B0FBF5F20421642000962A
:101A500002F0A2FF98B1607D0223B0FBF5F105FB17
:101A6000110204216E20009602F096FF38B1207D0D
:101A70000223B0FBF5F205216420009600E024E08B
:101A800002F08AFF08B3207D0223B0FBF5F105FBCD
:101A9000110205216E20009602F07EFFA8B100968B
:101AA000227E02230621642002F076FF68B10096B0
:101AB000627E02230721642002F06EFF28B1BBF191
:101AC000000F02D00120BDE8F88F0020FBE70000E6
:101AD000434F322870706D293A000000434F287040
:101AE000706D293A000000004832532870706D294B
:101AF0003A0000004E48332870706D293A0000000B
:101B000048756D693A2825293A00000054656D70C2
:101B10002843293A00000000496E7465726E6574AE
:101B20003A0000004D5154543A000000A400002037
:101B30009A9999999999B93F0088C3409999C93F51
:101B40000088D340A4300020144D154EDFF8548097
:101B5000154F4FF4FA744FF47A7912492246183926
:101B6000286804F02FFE012802D110A003F098FA93
:101B7000307848B122464146386804F023FE0128F7
:101B800002D117A003F08CFAFFF754FE1FA003F058
:101B900087FA484604F09EFBDFE7000018000020AB
:101BA00000000020BC3000201C000020446973703D
:101BB0006C6179207461736B203A205265636569AA
:101BC00076696E672073656E736F722064617461ED
:101BD000207375636365656465640D0A0000000029
:101BE000446973706C6179207461736B203A206E64
:101BF0006574776F726B207374617475732073757D
:101C0000636365656465640D0A0000004469737070
:101C10006C617973207468652064617461207461FB
:101C2000736B2052756E6E696E670D0A00000000BE
:101C300070B50D46044602F047FD012322461946C1
:101C40000A2002F0EDFE08B1012400E00024012D7D
:101C50004FF0010308D006A206211E2002F0E0FE8C
:101C600020B11CB1012070BD03A2F5E7002070BDBA
:101C70006661696C000000007375636365737300CF
:101C800070B5012500244FF47A7000F06FFF4FF417
:101C9000FA763346002208A108A000F031F918B105
:101CA00009A003F0FDF904E0641CE4B200250A2C4D
:101CB000EFD3284670BD00004F4B000041542B521B
:101CC0004553544F52450000524553544F524520FE
:101CD0004F4B0D0A0000000070B5012400F0FAF827
:101CE000012800D0FF24012251030D4801F05BF8C8
:101CF0000C4801F0A3FE00B1FF2401252A460A4941
:101D00000A4802F057F900B1FF2508480068C16889
:101D100041F01001C160012D00D0FF24204670BDAC
:101D2000000C01407C01002094000020C401002030
:101D300000B59FB00B46024606A1684603F0C0F905
:101D400041F28833002208A1684600F0D9F81FB09C
:101D500000BD000041542B43574A41503D2225739A
:101D6000222C2225732200004F4B000000B59FB0AB
:101D70000B46024606A1684603F0A2F94FF4FA7337
:101D8000002209A1684600F0BBF81FB000BD0000AA
:101D900041542B4D515454434F4E4E3D302C22252F
:101DA00073222C25642C30004F4B000000B59FB0EF
:101DB000024606A1684603F083F94FF4FA73002245
:101DC00008A1684600F09CF81FB000BD41542B4D9F
:101DD000515454434C49454E5449443D302C2225DE
:101DE000732200004F4B000000B59FB0024606A1D1
:101DF000684603F065F94FF4FA73002207A16846BC
:101E000000F07EF81FB000BD41542B4D5154545387
:101E100055423D302C222573222C31004F4B0000BF
:101E200000B59FB00B460092024606A101A803F040
:101E300047F94FF4FA7300220DA101A800F060F8F1
:101E40001FB000BD41542B4D51545455534552437E
:101E500046473D302C312C222573222C222573221B
:101E60002C222573222C302C302C22220000000042
:101E70004F4B000040F6C41328B1012807D00228B8
:101E800009D00020704706A208A109A006E004A21C
:101E900006A10AA002E002A204A10BA000F030B843
:101EA0006E6F206368616E67650000004F4B000035
:101EB00041542B43574D4F44453D310041542B4332
:101EC000574D4F44453D320041542B43574D4F44ED
:101ED000453D330070B50124084E250300222946F4
:101EE000304600F060FF4FF4FA7000F03FFE012230
:101EF0002946304600F057FF204670BD000C0140D7
:101F00002DE9F041214C0E469846B4F800141546D0
:101F100001276FF30E01A4F80014B4F8001421F4A3
:101F20000041A4F80014014619A002F0F5FF0128B1
:101F300000D0FF2756EA050015D008F57A7000F0AA
:101F400015FEB4F800140020C1F30E0160540F49CF
:101F50000FA003F0A5F876B131466DB10B48FEF73E
:101F600063F970B902E03846BDE8F08129460748B8
:101F7000FEF75AF904E029460448FEF755F9C0B2C5
:101F800008B10120F0E7FF20EEE70000982C0020C8
:101F900025730D0A0000000010B5A0B00124CDE9A2
:101FA00000230B46024608A102A803F089F84FF46B
:101FB000FA6300220DA102A8FFF7A2FF012800D0BA
:101FC000FF2420B0204610BD41542B434950534EAE
:101FD00054504346473D312C25642C222573222C36
:101FE000222573222C222573220000004F4B000073
:101FF0004FF4005000F0CEBDBC210A20FFF77AF963
:10200000D0210A20FFF776F9F6E7000070B512A09C
:1020100003F046F8FEF774FE08B1012500E0002544
:10202000FEF718FF184C2060FEF7AEFE6060FEF76A
:10203000A9FDA060FEF706FEE060FEF769FF2061E3
:10204000FFF773FB2075FFF766FB182020751F2034
:102050006075284670BD00005468652073797374FC
:10206000656D2073746172747320746F20636F6C7C
:102070006C65637420656E7669726F6E6D656E74E3
:1020800020646174610D0A00C03000200C4C4FF4D4
:10209000FA7540F6B83600BFFFF7B8FF00232A46AE
:1020A0000849206804F0DEFA012802D106A002F0F7
:1020B000F7FF10A002F0F4FF304604F00BF9EBE755
:1020C00018000020C030002053656E64696E6720E0
:1020D00073656E736F7220646174612073756363DE
:1020E00065656465642E2050726F63656475726502
:1020F0000D0A00006765742073656E736F7220644B
:10210000617461207461736B2052756E6E696E67C5
:102110000D0A0000F8B500250446009590F824004B
:10212000012808D0012084F824002046FEF778FC1E
:10213000060002D04BE00220F8BDA06A20F48850CF
:1021400040F00200A062022001F07AF822490968FA
:10215000B1FBF0F0400000E0401E00900028FBD1F1
:102160002046FEF7BDFC2068816841F008018160CF
:1021700000F01EFE074604E000F01AFEC01B0A280D
:1021800011D8206880680007F6D42068816841F083
:102190000401816000F00CFE07460EE000F008FE2E
:1021A000C01B0A2809D9A06A20F0020040F01000E4
:1021B000A06284F824500120F8BD206880684007A0
:1021C000ECD4A06A20F0020040F00100A06284F884
:1021D00024503046F8BD0000300000207047000059
:1021E000F8B50024009490F824202546012A12D046
:1021F000012280F824204A681F23072A0DD206688E
:10220000776B521E02EB820293409F430B68934010
:102210001F43776319E00220F8BD06680D2A0AD231
:10222000376BD21F02EB820293409F430B689340AF
:102230001F43376309E0F76A0D3A02EB82029340CD
:102240009F430B6893401F43F7620A6807230668A1
:102250000A2A0AD3F7680A3A02EB420293409F43E4
:102260008B6893401F43F76008E0376902EB420236
:1022700093409F438B6893401F4337610A68102A3D
:1022800001D0112A20D1124B02689A4217D19368CB
:102290001B0219D4936843F4000393600968102962
:1022A00012D10C490C4A0968B1FBF2F101EB810132
:1022B000490000E0491E00910029FBD104E0816A39
:1022C00041F020018162012480F824502046F8BDAD
:1022D000002401403000002040420F00014901204D
:1022E00008707047960000207047704710B504468C
:1022F00000684168890626D50168890723D5A16A47
:10230000C90603D4A16A41F40071A1628168C1F3D6
:102310004241072910D1217B71B9416821F0200188
:102320004160A06A20F48070A062A06AC00403D457
:10233000A06A40F00100A0622046FFF7CFFF2168AD
:102340006FF0120008602068416809062ED5016808
:1023500049072BD5A16AC90603D4A16A41F40051EB
:10236000A1628168C1F30231072909D0416849059A
:1023700015D48168C1F34241072910D1217B71B97D
:10238000416821F080014160A06A20F48050A06281
:10239000A06AC00503D4A06A40F00100A0622046F4
:1023A000FFF71CFF21686FF00C000860206841688F
:1023B00049060DD50068C0070AD0A06A40F48030F5
:1023C000A062204600F094F821686FF001000860D8
:1023D00010BD00002DE9F0414FF0000704003D461C
:1023E0007ED0A06A002628B9E66284F824602046E0
:1023F00000F080F82046FEF713FBA16AC90600D45E
:1024000020B1A06A40F01000A06269E0A16A21F446
:10241000885141F00201A1626268E169237B0A43AD
:1024200047EA43010A43A1684FF48077B94209D0D3
:10243000012907D05FF0000194F814C0BCF1010F2E
:1024400002D00AE03946F7E7F3B1A36A43F020036C
:10245000A362E36A43F00103E3622368D3F804C094
:102460002CF4694C4CEA010CC3F804C021688B6859
:10247000DFF870C003EA0C0313438B60A168B94214
:102480000BD0012909D00CE0DFF85CC0A3690CEB8C
:1024900043330B4343F40061DFE7218A0D05A5F5C3
:1024A00080152168CB6A23F470032B43CB6221682B
:1024B00089680E4B1940914208D1E662A16A21F069
:1024C000020141F00101A162BDE8F081A06A20F0A3
:1024D000020040F01000A062E06A40F00100E062FB
:1024E0000120F1E7FDF7E1FF00E0FFFFFE0E1FFF17
:1024F0007047000070B586B000260546009601962C
:102500000296039600682649884246D12549886983
:1025100040F400708861886900F400700490886954
:1025200040F004008861886900F004000490886924
:1025300040F0080088618869032400F008000490D6
:10254000D020CDE900046946174800F02FFB012098
:10255000CDE900046946154800F028FB154C1448E5
:10256000C4E900068020C4E90260400020618000C8
:1025700060612020A0610002E061204600F090FA36
:1025800008B1FFF739FD2C62002205211220656297
:1025900000F024FE122000F013FE06B070BD000013
:1025A000002401400010024000080140000C0140DE
:1025B00008000240E40000202DE9F84300260D4603
:1025C0000446009600F0F4FB804620688168C90547
:1025D00008D5A06A40F02000A06284F824600120A1
:1025E000BDE8F8834168C90503D4C06A10F4700FD0
:1025F00026D0022000F024FE38490968B1FBF0F72C
:102600002068036936490B424FEA61014FEAA11283
:102610001BD1C3684FEA611C13EA0C0F15D1036983
:102620000B4221D1C06810421ED114201FE0681C4B
:1026300006D045B300F0BCFBA0EB0800A84222D8AE
:10264000206800688007F2D52AE003690B4202D1B6
:10265000C168114206D0026922490A4206D1C06807
:10266000084203D1542002E0292000E0FC20474327
:10267000009813E0681C0ED02DB100F099FBA0EB80
:102680000800A84207D9A06A40F00400A06284F8BC
:1026900024600320A4E70098401C0090B842E9D3CE
:1026A00021686FF012000860A06A40F40070A06218
:1026B00020688068C0F3424007280CD1207B50B9C5
:1026C000A06A20F48070A062A06AC00403D4A06A4B
:1026D00040F00100A062002082E7000030000020EE
:1026E000244992244992240070B5044690F82400AD
:1026F00001280DD0012084F824002046FEF7F0F9CF
:1027000002004FF0000005D084F82400104670BD90
:10271000022070BDA16A40F20123994341F4807107
:10272000A1621F4D23681F49AB4218D10E6816F4F1
:10273000702F14D0A66A46F48016A6620E6876053D
:1027400005D5A66A26F4005646F48056A662A66A07
:10275000F6040AD5E66A26F00606E66206E0A66AF0
:1027600026F48016A6625E68E9E7E06284F8240039
:102770006FF00200186020688368C3F34243072BA0
:1027800005D1A84208D1096811F4702F04D08168DE
:1027900041F480118160B9E7816841F4A001F9E753
:1027A00000280140042401402DE9F04789460446F1
:1027B0003B4900683B4F0E1D9046884201D0B8420D
:1027C00007D1306810F4702F03D001252846BDE8EA
:1027D000F08794F8240001280CD0012084F824000C
:1027E0002046FEF77DF905004FF0000004D084F884
:1027F0002400EBE70220EAE7A16A40F60162914378
:1028000041F48071A1622168B94218D1326812F492
:10281000702F14D0A16A41F48011A162316849057A
:1028200005D5A16A21F4005141F48051A162A16A49
:10283000C9040AD5E16A21F00601E16206E0A26A54
:1028400022F48012A2624968E9E7E06284F8240079
:10285000216A15488862216A1448C862216A1448AE
:10286000086321686FF0020008602068816841F405
:1028700080718160216843464A464C31206A00F0ED
:102880003DF920688168C1F342410729816803D07E
:1028900041F48011816099E741F4A001FAE700005A
:1028A00000240140002801406D0A0008D50A0008F4
:1028B000BB0A000810B590F821100024022903D0AB
:1028C0000421816301243DE001680A6822F00E02C0
:1028D0000A6001680A6822F001020A601A4A016867
:1028E000914201D1012121E0174A1432914201D1D4
:1028F00010211BE0144A2832914201D1891515E0BC
:10290000114A3C32914201D189140FE00E4A5032F3
:10291000914202D14FF4803108E00B4A6432914277
:1029200002D14FF4801101E04FF08071064A083A5D
:102930005160012180F82110002180F82010416BA6
:1029400001B18847204610BD080002402DE9F05F24
:10295000C16B0C6801680B68D0F840C0042202FA11
:102960000CF2494DDFF824A1494E4A4FDFF828B157
:10297000DFF828E122422CD05A072AD50A689206AD
:1029800003D40A6822F004020A600168A94201D156
:10299000042219E0514501D1402215E0B14202D193
:1029A0004FF4806210E0B94202D14FF480420BE054
:1029B000594502D14FF4802206E0714502D14FF40F
:1029C000800201E04FF080622F4908394A60C16AF5
:1029D0003BE04FF0020808FA0CF818EA040F4FF039
:1029E00000094FF0010235D05FEA837832D50B68D9
:1029F0009B0605D40B6823F00A030B6080F82120A6
:102A00000168A94201D1022219E0514501D12022D9
:102A100015E0B14202D14FF4007210E0B94202D188
:102A20004FF400520BE0594502D14FF4003206E05A
:102A3000714502D14FF4001201E04FF000721249CB
:102A400008394A6080F82090816A00291AD0BDE8D0
:102A5000F05F0847082505FA0CF5254212D01B0740
:102A600010D50B6823F00E030B6090F84010C36B79
:102A700002FA01F15960826380F8212080F82090E9
:102A8000016BE2E7BDE8F09F080002401C00024035
:102A90003000024044000240580002406C000240F6
:102AA00030B528B308C8134914221944B1FBF2F118
:102AB0008900C16310498163022141771A6843F696
:102AC000F0718A43D0E900142143D0E902452C4338
:102AD000214304692143446921438469214311430B
:102AE000196000214163012242770177084630BD19
:102AF000012030BDF8FFFDBF0000024070B5044664
:102B000090F82000002501280CD0012084F8200036
:102B100094F821600020012E06D084F820000225C0
:102B2000284670BD022070BD022684F82160A06393
:102B30002068066826F0010606602046FEF7D6FDEE
:102B4000E06A00282068016802D041F00E0106E02A
:102B500021F0040101602068016841F00A01016070
:102B60002068016841F001010160D9E770B50446B1
:102B700000F01EF90546601C02D0044800780444A9
:102B800000F016F9401BA042FAD370BD24000020CB
:102B900070470000044910B50A68024202D008607C
:102BA000FFF7F6FF10BD0000140401402DE9F84FB7
:102BB000DFF8B891002409F1040A0AF1040B234656
:102BC0000F270BF1040EC9E00125A5402A40AA42B7
:102BD0007DD1674ED1F804C0ACEB0608B44532D0C5
:102BE00014DCBCF1030F3AD009DCBCF1000F2AD091
:102BF000BCF1010F1CD0BCF1020F31D11DE0BCF1C2
:102C0000110F17D0BCF1120F2AD119E0B8F5881FA7
:102C100019D006DCB8F5803F15D0B8F5801F1FD15C
:102C200011E0B8F5001F0ED0B8F5041F18D10AE066
:102C3000CB6815E0CB681B1D12E0CB6808330FE0B2
:102C4000CB680C330CE08B682BB1012B4FF00803E1
:102C500003D0456104E0042302E0056100E00023A5
:102C6000FF2A01D8064601E000F104064FEA840578
:102C700001D9A5F12005D6F8008007FA05FC28EA5D
:102C80000C0803FA05F548EA0508C6F800804D6807
:102C9000ED0062D5374DAE6946F00106AE61AD6913
:102CA00024F0030605F001050095334D06EB050CF5
:102CB000DCF80850A607360F07FA06F825EA0805DB
:102CC000DFF8B880404503D14FF0000817E044E03A
:102CD000DFF8AC80404502D14FF001080FE0DFF88B
:102CE000A480404502D14FF0020808E0DFF8988048
:102CF000404502D14FF0030801E04FF0040808FA04
:102D000006F848EA0508CCF808804D68D9F8006054
:102D1000ED034D4601D5164300E096432E604D6805
:102D2000DAF80060AD03554601D5164300E096433E
:102D30002E604D68DBF80060ED025D4601D516435C
:102D400000E096432E604D68DEF80060AD027546E7
:102D500001D5164300E096432E60641C0D682A4698
:102D6000E5407FF431AFBDE8F88F0000000401407A
:102D70000000111000100240000001400008014056
:102D8000000C014000100140001401408068084020
:102D900000D001207047C26821EA02030A4043EADA
:102DA0000241016170470AB1016170470904FBE704
:102DB00001488068704700002400002070B50400BE
:102DC00025D094F83D00002520B984F83C502046D9
:102DD00000F050F9242084F83D002068016821F0BB
:102DE000010101602068016841F400410160206830
:102DF000016821F40041016000F0B8FB4D4A6168B0
:102E0000914201D84C4900E04C49884201D201204E
:102E100070BD4B492368B0FBF1F15E6826F03F06B8
:102E20000E435E606368934206D94FF4967359432C
:102E30004FF47A73B1FBF3F12368491C1E6A26F044
:102E40003F06314319626168914210D84900401E23
:102E5000B0FBF1F2521CC2F30B02042A01D204208F
:102E600022E0B0FBF1F0401CC0F30B001CE0A268B4
:102E7000F2B301EBC10303EB0116431EB3FBF6F300
:102E80005B1C43F480431B0549D092B301EBC102A4
:102E900002EB0111401EB0FBF1F0401CC0F30B002F
:102EA00040F4804040F400402168CA694CF6FF734A
:102EB0009A431043C861D4E90710014320680268AF
:102EC00022F0C00211430160D4E9030101432068EC
:102ED000826848F2FF339A4311438160D4E90501C7
:102EE00008432168CA6822F0FF021043C86001E06D
:102EF0000EE016E02068016841F0010101602564E0
:102F0000202084F83D00256384F83E50002070BDE9
:102F100001EB4106431EB3FBF6F35B1CB3E7012054
:102F2000C2E701EB4101401EB0FBF1F0401CC0F3D1
:102F30000B00B7E7A086010080841E0000093D0059
:102F400040420F002DE9FF4F83B09A46DDE911970B
:102F500093460446DDF84080FFF72AFF054694F8C3
:102F60003D0020287FD119230122404920460095A9
:102F700001F036F9002876D194F83C00012872D08F
:102F8000012084F83C0020680168C90703D101686A
:102F900041F0010101602068016821F400610160D5
:102FA000212084F83D00402084F83E00002626645D
:102FB000C4F82480A4F82A90608D20852C48E06213
:102FC000CDE9007553465A462046049901F08EF823
:102FD00070B930E02A463946204601F080F958B1F0
:102FE000206C042804D12068016841F4007101605C
:102FF000012007B0BDE8F08F606A216800780861A1
:10300000606A401C6062218D491E89B22185628DF3
:10301000521E628522685369DB435B070BD469B19A
:1030200000781061606A401C6062208D401E20851F
:10303000608D401E6085208D0028CBD12A46394600
:10304000204601F0A7F80028CAD154F83D0B0168CA
:1030500041F400710160202004F81E09E6776677CC
:103060000020C6E7FFE70220C3E7000002001000CF
:103070000000FFFF10B586B0002100910191029180
:10308000039100680F4988421AD10F4CA06940F0A3
:103090000800A061A069694600F008000490C02003
:1030A000009012200190032003900848FFF77EFD56
:1030B000E06940F40010E061E06900F40010049061
:1030C00006B010BD0054004000100240000C01404A
:1030D0000248816802781144816070472400002012
:1030E000074810B5016841F010010160032000F0AD
:1030F00095F8002000F006F800F03EF8002010BD22
:103100000020024000B5014687B00022192000F0DF
:1031100065F8192000F054F81348816941F4006102
:103120008161806905A900F400600690684600F09E
:10313000F7F900F02BFA0D494000B0FBF1F10D4812
:103140000B4A491E0260416040F2E7320021C0E9AB
:103150000321816000F026FC10B1012007B000BD02
:10316000044800F06BFCF9E70010024040420F00F9
:10317000002C0140840200200F4808B5816941F00D
:1031800001018161816901F001010091C16941F092
:103190008051C161C069002200F0805000900F2171
:1031A000901E00F01BF80548416821F0E06141F0F5
:1031B0000071416008BD00000010024000000140A5
:1031C000002809DB00F01F02012191404009800026
:1031D00000F1E020C0F8001170470000F0B40E4B81
:1031E0001B680C46C3F30223C3F10705042D00D965
:1031F0000425191D072901D2002300E0DB1E01264A
:1032000006FA05F1491E214099409E40761E16405F
:103210003143F0BC01F07CBF0CED00E0064900F04A
:10322000070208684FF6FF03184040EA0220034AED
:1032300010430860704700000CED00E00000FA0544
:1032400010B529A401461DCC86B08DE81D002AA02A
:103250002A4C006804900020012923D002293AD08A
:1032600010291DD161682268D20119D5C1F38342AA
:10327000C9031DF8020009D5616804AAC1F34041E1
:10328000515C1F4AB2FBF1F1484301E01D4948433C
:103290006168490204D440005FF00301B0FBF1F023
:1032A00006B010BD226AC2F30121012903D19207A1
:1032B00001D5C803F4E7022905D1626A920702D555
:1032C00049F64040ECE70329EAD121688903E7D5B4
:1032D0004FF22440E4E700F059F96168C1F381310D
:1032E000491C4900DAE70000020304050607080943
:1032F0000A0B0C0D0E0F101001020000001002400E
:1033000000127A0000093D002DE9F84305460078D7
:10331000354CC00754D0E0690026C00008D4E069ED
:1033200040F08050E061E069012600F0805000909C
:103330002E480168C90512D40168804641F48071A5
:103340000160FFF735FD074605E000BFFFF730FDE0
:10335000C01B642823D8D8F80000C005F6D5206A21
:1033600010F4407021D0A98801F4407181421CD032
:10337000206A1F49012220F440700A6000220A607E
:103380002062C00711D0FFF713FD074641F28838CD
:1033900008E000BFFFF70CFDC11B414502D9032027
:1033A000BDE8F883206A8007F4D5206A696820F4B4
:1033B0004070084320621EB1E06920F08050E06157
:1033C0002878800705D56068A96820F44040084344
:1033D00060602878C00605D56068E96820F4800040
:1033E000084360600020DBE70010024000700040EE
:1033F000400442422DE9F0470F46050061D0434E9C
:10340000306800F00700B84209D2306820F00700A9
:1034100038433060306800F00700B84251D1286866
:103420003B4C810712D5400703D5606840F4E0604B
:1034300060602878000703D5606840F460506060E1
:103440006068A96820F0F000084360602878C00731
:1034500028D06868012810D02168022810D0890778
:1034600000292EDA616821F0030101436160FFF752
:103470009FFC804641F288390DE021688903EFE71F
:103480008901EDE7FFF794FCA0EB0801494502D95B
:103490000320BDE8F0876068696800F00C00B0EBBD
:1034A000810FEFD1306800F00700B8420BD93068C7
:1034B00020F0070038433060306800F00700B84261
:1034C00001D00120E5E72878400705D56068E96864
:1034D00020F4E060084360602878000706D5606843
:1034E000296920F4605040EAC100606000F05EF895
:1034F0006168084AC1F30311515CC840064908607D
:1035000006480068FFF7FEFD0020C2E700200240E9
:1035100000100240906C00083000002028000020BD
:103520000F2202600C4A536803F0030343605368A0
:1035300003F0F0038360536803F4E063C3605268F0
:103540004FF4E06303EAD20202610448006800F02D
:103550000700086070470000001002400020024091
:103560000148006870470000300000200448054909
:1035700000684968044AC1F30221515CC8407047A1
:103580003000002000100240A06C000804480549EB
:1035900000684968044AC1F3C221515CC8407047C1
:1035A0003000002000100240A06C000812A185B07D
:1035B0000FC98DE80F0014A0144A006804905168E8
:1035C000134801F00C03042B10D0082B0ED1C1F3CB
:1035D0008343C9031DF803000AD5516804AAC1F347
:1035E0004041515C0A4A5043B0FBF1F005B07047CE
:1035F00008494843FAE700000203040506070809E2
:103600000A0B0C0D0E0F10100102000000100240FA
:1036100000127A0000093D002DE9F84F040070D037
:103620002078C04DC00749D06868C0F381000128E8
:1036300007D06868C0F38100022809D16868C00318
:1036400006D52868800339D560680028E7D035E0C2
:103650006068B0F5803F0BD010B1B0F5A02F11D04D
:10366000286820F480302860286820F4802002E058
:10367000286840F480302860606890B1FFF798FBBC
:1036800006460AE0286840F480202860F0E700BF82
:10369000FFF78EFB801B642873D828688003F7D55A
:1036A0000CE0FFF785FB064605E000BFFFF780FB57
:1036B000801B6428F0D828688003F7D420789A4EBD
:1036C00080074FF001094FF0000839D5686810F005
:1036D0000C0F07D06868C0F38100022809D1686820
:1036E000C00306D42868800714D52069012808D1B2
:1036F00010E02069B0B1C6F80090FFF759FB07460B
:1037000005E00AE1FFF754FBC01B0228C4D8286873
:103710008007F7D52868616920F0F80040EAC10009
:1037200028600DE0C6F80080FFF742FB074604E082
:10373000FFF73EFBC01B022823D828688007F7D478
:10374000207800072CD57948A169D9B1C0F800903C
:10375000FFF72EFB074604E0FFF72AFBC01B0228F9
:103760000FD8686A8007F7D571484FF4FA5100689E
:10377000B0FBF1F0009000BF0098411E0091FAD21A
:103780000EE080E0C0F80080FFF712FB074604E07F
:10379000FFF70EFBC01B022875D8686A8007F7D4B4
:1037A0002078400760D5E8690027C00008D4E869A0
:1037B00040F08050E861E869012700F080500090F7
:1037C0005C480168C90513D40168834641F48071DF
:1037D0000160FFF7EDFA824606E000BFFFF7E8FA66
:1037E000A0EB0A0064284ED8DBF80000C005F5D530
:1037F000E06801280AD008B1052813D0286A20F013
:1038000001002862286A20F0040002E0286A40F0E3
:1038100001002862E06841F2883B98B1FFF7C8FADE
:1038200082460BE0286A40F004002862EEE700BF01
:10383000FFF7BEFAA0EB0A0159455AD8286A80075B
:10384000F6D50CE0FFF7B4FA824605E0FFF7B0FAD0
:10385000A0EB0A0159454CD8286A8007F6D41FB15D
:10386000E86920F08050E861E06988B36968C1F3D5
:103870008101022944D00228C6F8608004D0FFF7F5
:1038800097FA044638E034E0FFF792FA074604E07E
:10389000FFF78EFAC01B02282BD828688001F7D4C6
:1038A000206AB0F5803F05D16868A16820F4003037
:1038B00008436860D4E908010843696821F4741179
:1038C00008436860C6F86090FFF772FA044606E0A5
:1038D00025E000BFFFF76CFA001B022809D8286812
:1038E0008001F7D51BE000BFFFF762FA001B02283A
:1038F00002D90320BDE8F88F28688001F4D40EE0D7
:103900000128F7D06868226A00F48031914204D11E
:10391000616A00F47010884201D00120EAE70020BB
:10392000E8E70000001002400000424280044242EA
:1039300030000020007000407047704770B590F86C
:103940003C20012A26D0012480F83C40022280F845
:103950003D2003685A689D6822F070060A68324369
:103960005A600D4B02689A4208D0B2F1804F05D0E0
:103970000A4B9A4202D00A4B9A4204D1496825F078
:1039800080031943916080F83D40002180F83C108D
:10399000084670BD022070BD002C014000040040AC
:1039A0000008004010B5040003D094F83D0010B1A9
:1039B00007E0012010BD002084F83C00204600F004
:1039C0001FF8022084F83D00211D206801F00EF947
:1039D000012084F8460084F83E0084F83F0084F813
:1039E000400084F8410084F8420084F8430084F8E1
:1039F000440084F8450084F83D00002010BD00001C
:103A000008B500680B49884212D10B48C16941F0E2
:103A10000201C161C069002200F00200009005218E
:103A20001D20FFF7DBFBBDE808401D20FFF7C8BBEA
:103A300008BD0000000400400010024090F83D1056
:103A4000012901D001207047022180F83D10016852
:103A5000CA6842F00102CA6000680B49884208D077
:103A6000B0F1804F05D00949884202D00849884208
:103A700004D1816801F00701062903D0016841F0F3
:103A80000101016000207047002C0140000400404B
:103A90000008004070B5044690F83C00012817D09B
:103AA000012584F83C50022084F83D00206882689B
:103AB00022F0770222F47F4282600868502830D0DA
:103AC0000DDC20284DD005DC98B310283BD148E010
:103AD000022070BD302844D0402834D139E060281D
:103AE00028D0702806D0B0F5805F2CD0B0F5005FEC
:103AF00029D10AE0CB68D1E90121206801F0ACF8B6
:103B00002068816841F0770109E0CB68D1E90121A3
:103B1000206801F0A1F82068816841F4804181604B
:103B200011E0CA684968206801F0A8F850212068AF
:103B300007E016E0CA684968206801F0B0F8602123
:103B4000206801F093F884F83D50002084F83C0090
:103B500070BDCA684968206801F090F8402120686B
:103B6000EFE7226801461046EBE7704770B5044660
:103B7000006801694FF00005C943890715D4C16881
:103B8000C943890711D4E91E01610120207720680B
:103B900080698007204602D0FFF7E7FF04E000F0CD
:103BA00098F8204600F096F8257720680169C94307
:103BB000490717D4C168C943490713D46FF00401FA
:103BC0000161022020772068806910F4407F204640
:103BD00002D0FFF7CAFF04E000F07BF8204600F0B7
:103BE00079F8257720680169C943090716D4C168A7
:103BF000C943090712D46FF008010161042020773E
:103C00002068C0698007204602D0FFF7AEFF04E0BD
:103C100000F05FF8204600F05DF825772068016924
:103C2000C943C90617D4C168C943C90613D46FF084
:103C300010010161082020772068C06910F4407FDE
:103C4000204602D0FFF791FF04E000F042F8204642
:103C500000F040F8257720680169C943C90708D1F9
:103C6000C168C943C90704D1891E0161204600F01B
:103C700033F820680169C943090609D4C168C943FA
:103C8000090605D46FF0800101612046FFF754FE5C
:103C900020680169C943490609D4C168C943490676
:103CA00005D46FF040010161204600F01FF8206844
:103CB0000169C94389060BD4C168C943890607D481
:103CC0006FF0200101612046BDE87040FFF735BE6E
:103CD00070BD70477047000000680349884201D1F9
:103CE000FFF7F6B970470000002C0140704770479D
:103CF00070B5026804461068D168536910F00F0F60
:103D000052D003F0010501F490762E435FD0C20734
:103D100005D0CA0503D5E26B42F00102E263420717
:103D200005D5DA0703D0E26B42F00202E2638207B4
:103D300005D5DA0703D0E26B42F00402E263020722
:103D400007D501F020022A4303D0E26B42F00802BB
:103D5000E263E26B002A33D0800604D5880602D5E0
:103D6000204600F0C4FF20684069E16BC0F380107A
:103D7000090700D428B3204600F0ABFF2068416952
:103D800049061AD5416921F040014161606BA0B13B
:103D90002D494163606BFEF78DFD002810D0606BEC
:103DA000416BBDE870400847830610D58B060ED5E1
:103DB0002046BDE8704000F09ABF2046FFF797FF0D
:103DC00070BD2046FFF793FF0020E06370BD03063F
:103DD0002BD50B0629D594F839002128F6D1A068F7
:103DE000B0F5805F01D12069B0B1206A411C216229
:103DF000216800784860E08C401E0004000CE084DC
:103E0000E4D12068C16821F08001C1602068C168E8
:103E100041F04001C16070BD206A0088C0F3080015
:103E20005060206A801C2062E5E74006F3D5480612
:103E3000F1D5D168204621F04001D160202184F8DD
:103E4000391000F03AF970BDC34C000870B5040099
:103E500004D094F83900002510B106E0012070BDAF
:103E600084F83850204600F023F8242084F83900E4
:103E70002068C16821F40051C160204600F07EFF37
:103E80002068016921F4904101612068416921F0B5
:103E90002A0141612068C16841F40051C160E563B5
:103EA000202084F8390084F83A00002070BD00001A
:103EB000F0B585B000240094019402940394036843
:103EC0003848364F3649022203260515BB4228D111
:103ED0008B6943F480438B618B6903F480430493C3
:103EE0008B6943F004038B618969039601F0040137
:103EF00004914115CDE9001269460646FEF756FECB
:103F0000CDE90054694630460294FEF74FFE002288
:103F100007212520FFF762F92520FFF751F905B0A9
:103F2000F0BD214FBB4215D1CB6943F40033CB61C7
:103F3000CB6903F4003304938B6943F004038B6172
:103F40008969039201F0040104910C21CDE900126A
:103F5000694620E015488342E1D1C86940F48020D9
:103F6000C861C86900F480200490886940F00800A6
:103F700088618869CDE9005200F00800CDE903604E
:103F80000B4D69462846FEF711FEE814CDE9000402
:103F9000694628460294FEF709FEC0E70038014052
:103FA000001002400008014000440040004800406A
:103FB000000C014090F83A30202B22D1F9B1F2B137
:103FC00090F83830012B1CD081628285C285002197
:103FD000C163222280F83A2080F838100168CA684C
:103FE00042F48072CA6001684A6942F001024A6183
:103FF0000068C16841F02001C160002070470120C5
:1040000070470220704770472DE9F843044690F846
:1040100039001F4616460D4620284CD1C5B1BEB109
:1040200094F83800012846D0012084F838004FF079
:104030000008C4F83C80212084F83900FEF7B8FE5F
:10404000A6848146E684A068B0F5805F03D004E0D2
:104050000120BDE8F883206928B12E465FF00005F5
:1040600084F838800EE00026FAE78021204600F030
:10407000E1FEA0B9AEB116F8010B21684860E08CF2
:10408000401EE084E08C4B464FF000020097002871
:10409000EBD14FF04001204600F0CCFE30B10320C0
:1040A000D7E735F8020BC0F30800E6E7202084F8D4
:1040B00039000020CDE70220CBE77047FEE701681A
:1040C0004A69D24352050FD46FF480624A610021DD
:1040D00040F8301F202242738173026942F00402CB
:1040E0000261017301207047002070472DE9F843F9
:1040F000044600680D46DDE90897016898461646B3
:1041000041F4807101604B4600224FF001112046BE
:10411000009700F065F848B120680068C00502D536
:104120004FF4007020640320BDE8F883216805F097
:10413000FE0008613B464A461549204600F084F8D7
:1041400088B920684169806900903A46494620460E
:1041500000F0C5F848B1206C042804D1206801683B
:1041600041F4007101600120DEE7F5B2B8F1010F02
:1041700009D02168300A08613A464946204600F0D5
:10418000AEF80028E7D1206805610020CCE70000E8
:104190000200010070B516460D4604460DE02046AB
:1041A000FFF78DFF08B1012070BD681C05D0FEF738
:1041B000FFFD801BA84207D835B120684069C04385
:1041C0004007ECD4002070BD002044F8300F2021BF
:1041D0006173A073216941F0200121612073E2E73E
:1041E0002DE9F0471E4690460D460446C1F30747A9
:1041F000DDF8209008E0701C06D0FEF7D9FDA0EB9A
:104200000900B0420FD876B12068012F18D080691C
:1042100025EA00000004000C14D000214145EAD03A
:104220000020BDE8F087002044F8300F20216173A2
:10423000A073216941F02001216120730120F0E782
:104240004069E5E70121E9E72DE9F0479A46914603
:104250000E46044600254FF02008C1F3074725E02D
:1042600020684069C043400514D42068016841F4C7
:104270000071016021686FF480604861256384F8F3
:104280003D8084F83E50206C40F00400206484F8A7
:104290003C501FE0B9F1FF3F08D0FEF789FDA0EBCD
:1042A0000A0149450CD8B9F1000F09D02068012F47
:1042B00013D0806926EA00000004000C0BD0CFE781
:1042C00044F8305F84F80D80A573206940F0200029
:1042D000206125730120BDE8F0874069EAE770B5E9
:1042E00016460D4604460DE02046FFF7E8FE08B1ED
:1042F000012070BD681C05D0FEF75AFD801BA84246
:1043000007D835B120684069C0430006ECD40020CE
:1043100070BD002044F8300F20216173A073216923
:1043200041F0200121612073E2E70000FEB5002189
:10433000274800910191254A0291026092158260FE
:10434000017301240475052505614FF46022416065
:10435000C0E90642FEF73EF808B1FDF74DFE04261F
:10436000CDE900640624694619480294FDF738FF38
:1043700008B1FDF741FE0220CDE90040694614482E
:10438000FDF72EFF08B1FDF737FE07200090032050
:10439000019069460E48FDF723FF08B1FDF72CFE9A
:1043A0000820CDE9000669460948FDF719FF08B164
:1043B000FDF722FE1120CDE9000569460448FDF70E
:1043C0000FFF002801D0FDF717FEFEBD00240140BD
:1043D000B4000020094808B5416941F0010141617C
:1043E0004069002200F00100009006210B20FEF73A
:1043F000F5FEBDE808400B20FEF7E2BE00100240CB
:1044000000B587B014220D4902A8FBF7E9FE002190
:1044100002A801F09FFB0A49002388610120CDE931
:104420000001420207A10B4802F0A0FA012802D1C4
:1044300009A000F035FE07B000BD00007C6C00084C
:10444000080000204170705461736B4372656174A1
:1044500065000000350F00086372656174652061B6
:104460007070637265617465207461736B2073751D
:1044700063636573730D0A002DE9F04385B0002472
:1044800035480094019402940394816941F010012D
:104490008161816901F010010491816941F020017D
:1044A0008161816901F020010491816941F0040179
:1044B0008161816901F004010491816941F0080181
:1044C00081618069254F00F00800049000220421DA
:1044D0003846FEF768FCDFF888800022202140463D
:1044E000FEF761FCDFF87C904FF440560022314625
:1044F0004846FEF758FC781400901B48CDE90104AB
:1045000069463846FEF752FB04200125CDE9000537
:104510000320CDE9024069463846FEF747FB2020DC
:10452000CDE900050220CDE9024069464046FEF78C
:104530003DFB0096CDE90154694648460395FEF7D8
:1045400035FB00220C212820FEF748FE2820FEF72C
:1045500037FE05B0BDE8F0830010024000100140B6
:1045600000080140000C0140000011100D4810B57A
:104570000B4901600C49416000214FF48042816089
:10458000C0E9031241618161C1610162FEF716FC5D
:10459000002803D0BDE81040FDF72EBD10BD00007F
:1045A0000054004028010020A086010010B586B00C
:1045B000002417480094019402940394049413492E
:1045C0000594016040F60F61C0E901146321C0E960
:1045D00003148461FFF7E6F908B1FDF70DFD4FF410
:1045E0008050009069460A48FFF754FA08B1FDF779
:1045F00003FD049404A906480594FFF79FF90028D9
:1046000001D0FDF7F9FC06B010BD00000004004029
:104610007C0100200C4810B50A4901604FF4E131DB
:104620004160002181600C22C160C0E904128161F7
:10463000C161FFF70BFC002803D0BDE81040FDF777
:10464000DBBC10BD00380140C40100200C4810B58F
:104650000A4901604FF4E1314160002181600C2280
:10466000C160C0E904128161C161FFF7EFFB00285E
:1046700003D0BDE81040FDF7BFBC10BD00440040B2
:10468000040200200C4810B50A4901604FF4E131E2
:104690004160002181600C22C160C0E90412816187
:1046A000C161FFF7D3FB002803D0BDE81040FDF740
:1046B000A3BC10BD0048004044020020FEE7FEE716
:1046C000012001F03BFAFBE70020AFF300802DE969
:1046D000F0410746002404F1B000C0B200F0B4FC81
:1046E00048B1002000F0B0FC28B1102000F0ACFC74
:1046F00008B1012600E000260025384600F0BAFC8B
:1047000010B10EB1012600E000266D1CEDB2802D27
:10471000F3D31EB1641CE4B2082CDCD33046BDE8F0
:10472000F08110B54FF4FA70FEF720FAAE2000F0D9
:104730008BFC002877D0202000F086FC002872D067
:10474000102000F081FC00286DD0B02000F07CFC2F
:10475000002868D0C82000F077FC002863D0002033
:1047600000F072FC00285ED0102000F06DFC0028E4
:1047700059D0402000F068FC002854D0812000F07F
:1047800063FC00284FD0FF2000F05EFCE8B3A120BE
:1047900000F05AFCC8B3A62000F056FCA8B3A8202D
:1047A00000F052FC88B33F2000F04EFC68B3A42018
:1047B00000F04AFC48B3D32000F046FC28B30020A8
:1047C00000F042FC08B3D52000F03EFCE8B1F02038
:1047D00000F03AFCC8B1D92000F036FCA8B1222084
:1047E00000F032FC88B1DA2000F02EFC68B1122013
:1047F00000F02AFC48B1DB2000F026FC28B1202084
:1048000000F022FC08B18D2000E00CE000F01CFC60
:1048100048B1142000F018FC28B1AF2000F014FCBF
:1048200008B1012400E0002400F014F810B10CB12C
:10483000012400E00024FFF747FF10B10CB1012470
:1048400000E0002400F017F810B10CB1012010BDF9
:10485000002010BD10B58D2000F0F6FB48B11020EF
:1048600000F0F2FB28B1AE2000F0EEFB08B1012011
:1048700010BD002010BD10B58D2000F0E5FB48B143
:10488000142000F0E1FB28B1AF2000F0DDFB08B1FF
:10489000012010BD002010BD10B50446B031C8B2D3
:1048A00000F0D2FB70B1102040EA141000F0CCFBF5
:1048B00040B104F00F0040F0010000F0C5FB08B16A
:1048C000012010BD002010BD2DE9F047203A002442
:1048D00088468146D6B27F2804D908F10200A14655
:1048E00000F0FF08012B39D0022B03D00025284609
:1048F000BDE8F08741464846FFF7CEFF08B10125E5
:1049000000E00025224F00BF04EB0610385C00F0E9
:10491000B1FB10B10DB1012500E00025641CE4B22B
:10492000082CF1D308F10100C1B24846FFF7B4FFEB
:1049300010B10DB1012500E00025002404EB0610A4
:104940003844007A00F096FB10B10DB1012500E06B
:104950000025641CE4B2082CF0D3C8E74146484661
:10496000FFF79AFF08B1012500E00025094906EB91
:10497000460001EB4006305D00F07CFB10B10DB14C
:10498000012500E00025641CE4B2062CF3D3AEE759
:10499000D06E0008A86C00082DE9FF5F4FF00008FA
:1049A000DDF838901E4693468246012544464FEA7C
:1049B00059072EE0301B401E0A22C1B2012000E040
:1049C0005043491EC9B2FBD2BBFBF0F00A21B0FB39
:1049D000F1F201FB1200B8F1000F05D1711E8C42FB
:1049E00002D240B14FF001083030C2B207FB04A040
:1049F000C0B24B4604E007FB04A0C0B24B462022E5
:104A00000199FFF761FF10B10DB1012500E000250C
:104A1000641CB442CED304B02846BDE8F09F000029
:104A20002DE9F05F0124002692468B460546012BB6
:104A300031D0DFF80091022B76D000242046BDE86B
:104A4000F09F203800F0FF087E2D04D90BF1010003
:104A5000002500F0FF0B59462846FFF71DFF10B157
:104A60000CB1012400E00024334908EB4800002782
:104A700001EB400818F8070000F0FCFA10B10CB187
:104A8000012400E000247F1CFFB2062FF2D3AD1DED
:104A9000761CEDB2F6B21AF806000028D1D1CDE7A7
:104AA000203800F0FF08782D04D90BF10100002513
:104AB00000F0FF0B59462846FFF7EEFE10B10CB18F
:104AC000012700E00027002404EB081119F8010079
:104AD00000F0D0FA10B10FB1012700E00027641CEC
:104AE000E4B2082CF0D30BF10100C1B22846FFF765
:104AF000D3FE10B10FB1012400E000245FF00007E5
:104B000007EB081101EB0900007A00F0B3FA10B1CD
:104B10000CB1012400E000247F1CFFB2082FEFD36A
:104B20000835761CEDB2F6B21AF806000028B7D1A7
:104B300084E70000D06E0008A86C000810B5502073
:104B400080F31188BFF34F8FBFF36F8F01F048FFE1
:104B500018B104494FF080500860002080F311889C
:104B600010BD000004ED00E030B593B02821684688
:104B7000FBF74FFB14210AA8FBF74BFB002402258F
:104B800001200F94049000951020059012944FF48A
:104B90004010CDE908401194109407956846FEF73F
:104BA0003BFD90B90F20CDE90A056802CDE90C4024
:104BB0000E9002210AA8FEF71DFC30B90FA80F9530
:104BC0001194FEF7A1FB002801D0FDF715FA13B0F0
:104BD00030BD70470148FEF7C9BF000084020020C5
:104BE0000148FEF7C3BF00007C010020F0B5026859
:104BF000164B174C174D4FF08047984205D0B842DE
:104C000003D0A04201D0A84203D122F070064A6826
:104C10003243984205D0B84203D0A04201D0A84206
:104C200003D122F44074CA6822434C6922F0800206
:104C3000224302608A68C2620A688262984201D195
:104C40000969016301214161F0BD0000002C0140B0
:104C5000000400400008004010B5846842EA0322C6
:104C600024F47F440A432243826010BD826822F00C
:104C700070020A4342F007018160704710B5036A71
:104C8000046A24F001040462846924F0F00444EA14
:104C9000021423F00A020A438461026210BD10B5B7
:104CA000036A23F0100303628369046A23F47043E8
:104CB00043EA023224F0A00343EA01118261016257
:104CC00010BD10B5406A0021C185C184FFF70FF8FF
:104CD00010BD0168CA6822F49072CA6001684A690E
:104CE00022F001024A61202180F83A10704710B585
:104CF00090F83A10222901D0022010BD82684FF4AA
:104D000080539A4201D1016921B1816A9A421BD034
:104D10004AB10AE00268816A5268C2F308020A8056
:104D2000816A891C08E0026972B10268526802F067
:104D30007F020A70816A491C8162C18D491E090483
:104D4000090CC18503D016E002685268F1E70168DA
:104D5000CA6822F02002CA600168CA6822F4807220
:104D6000CA6001684A6922F001024A61202180F884
:104D70003A10FFF748F9002010BD000070B5044656
:104D800000680169E26821F4405111430161216921
:104D9000A0680843616908432168CA6841F20C634E
:104DA0009A430243CA6020684169A26921F44071B4
:104DB000114341611E492068884202D1FEF7E6FB9B
:104DC00001E0FEF7D3FB00EBC00101EB00126068CD
:104DD00064218000B2FBF0F3B3FBF1F36FF018062F
:104DE0007343B2FBF0F5B2FBF0F605EB830532231B
:104DF00003EB0515B5FBF1F5B6FBF1F605F0F00593
:104E000005EB0615B2FBF0F6B2FBF0F0B0FBF1F0EB
:104E10006FF01802504306EB800003EB0010B0FB6C
:104E2000F1F0216800F00F002844886070BD000098
:104E3000003801402DE9F041984617460E460446D9
:104E4000069D1DE0681C1BD02DB1FDF7B1FFA0EB46
:104E50000800A84214D92068C16821F4D071C1604B
:104E60002068416921F001014161202084F8390066
:104E700084F83A00002084F838000320BDE8F0816F
:104E80002068006836EA000004D00020B842D9D07B
:104E90000020F3E70120F9E738B51C4D28680068C9
:104EA0001B4CC043800619D42846FEF721FFB4F8F6
:104EB000000440F2FF31C0F30E0088420ED21548C4
:104EC0000178B4F80004B4F80024C0F30E002318ED
:104ED000401C60F30E02A4F80024197028680168D1
:104EE000C943C90608D4016840680090B4F80004BA
:104EF00040F40040A4F80004012206490348FFF7EB
:104F000059F8BDE838400148FEF7F2BEC401002060
:104F1000982C0020940000200FB40D202DE9F043C0
:104F200087B00A254FF001080FAC8DF810008DF8FE
:104F300014504FF000094FF47A7640E05C280FD00F
:104F4000252821D0481C0E90334601223B48FFF70C
:104F50005BF810B3FF2007B0BDE8F0035DF814FB69
:104F6000491C0E9108786E2805D0722813D133465B
:104F7000012204A902E03346012205A92F48FFF7C8
:104F800043F80028E6D117E0491C0E910878642800
:104F90001BD0732802D0491C0E9110E080CC08E091
:104FA0003346012239462548FFF72EF80028D1D193
:104FB0007F1C38780028F3D10E98401C0E900E9973
:104FC00008780028BAD14046C5E701CC00276946D9
:104FD00000281FD007DA4FF02D028DF80020C0F115
:104FE000000001F1010142F2107300BF90FBF3F2E7
:104FF00052EA070C06D002F1300701F8017B02FBF0
:105000001300012793FBF5F3002BEFDC81F80090F0
:105010006F460EE030208DF800008DF80190F7E724
:105020003346012239460548FEF7EEFF002891D1AC
:105030007F1C38780028F3D1BEE70000C4010020AF
:1050400001207047FEE7000011B5012483B04FF442
:105050007A72214603A88DE80700234600227821B2
:105060000348FDF76FFF00B1FF2404B0204610BDD8
:105070002801002011B5012483B04FF47A72214633
:1050800003A88DE807002346402278210348FDF756
:1050900059FF00B1FF2404B0204610BD28010020B4
:1050A0000FB4054B10B503A9044A029800F076FB33
:1050B00010BC5DF814FB0000FD590008AC00002096
:1050C0000FB4084B10B504A902AA039800F066FBC0
:1050D000044602A9002000F03DFC204610BC5DF80B
:1050E00014FB000055590008490050EAC12018BFC0
:1050F00004204A0D18BF40F0010040F2FF72B2EBED
:10510000515F08BF40F00200012808BF052070472A
:105110000907090E002804DB00F1E02080F80014E4
:10512000704700F00F0000F1E02080F8141D704778
:105130002DE9F74F144694B00021C4E902111599E6
:10514000079121F00045C9498D4206DC1599C4E953
:10515000000117B00020BDE8F08FC549DFF814A3A7
:10516000A9423CDD0799C44E0029C44FC44A159991
:10517000534619DDFBF7D3F9554506D0C14AC24B5A
:10518000FBF7CDF9C4E900010AE04FF0D352BE4B62
:10519000FBF7C5F932463B46FBF7C1F9C4E900010C
:1051A00017B00120BDE8F08FFBF718F9554506D080
:1051B000B44AB54BFBF712F9C4E900010AE04FF01D
:1051C000D352B14BFBF70AF932463B46FBF706F9DF
:1051D000C4E9000117B04FF0FF30BDE8F08FAB49D4
:1051E000A942159978DB21F0004183468846A84AF8
:1051F000A84BFBF79AF90022A74BFBF7EFF8FBF758
:10520000E9FB0990FBF7D5FB06460F469C4A53463F
:10521000FBF78BF943465A46FBF784F980468A46EA
:10522000984A994B30463946FBF77FF92A0D0125FC
:105230000B9242465346FBF775F9032DC4E9000172
:1052400039D00B98C1F30A51401A05EB45111139B9
:10525000814230DA9148C346784400EB0510CDF81E
:105260000CA00C90D0E9002330463946FBF75DF9DD
:1052700002460B460491069058460399FBF74FF9F6
:1052800080468A4602460B4658460399FBF747F983
:10529000049B069AFBF743F983460C980391394621
:1052A000D0E902233046FBF740F95A46039BFBF74F
:1052B00036F96D1CBDE707980028A2BF099817B002
:1052C000BDE8F08F616881F000416160099817B016
:1052D0004042BDE8F08FFFE784461598C1F3130103
:1052E000C0F30A50A0F2F5304FEA601800F01F0634
:1052F000C6F12000139000200690079041F4801E14
:1053000005206D4676B1664A08EB00017A4452F8F2
:10531000213002EB8101B3404A68139922FA01F16E
:10532000194305E05F4908EB0002794451F8221067
:10533000A1FB0E27A1FB0C131A449A4234BF012390
:10534000002303EB070A05EB8003D3E901B70F4401
:105350008F4234BF0121002193448B4411B1934506
:1053600002D903E0934501D2012100E00021C3E905
:1053700001B7514445F82010011EA0F10100C1DC25
:105380000298059F00F10050800F12900298DDE90D
:1053900003568000FBF70DFB834628460D91FBF773
:1053A000AAF96FF01D02FBF7EDFACDE90E013046C8
:1053B000FBF7A1F96FF03D02FBF7E4FA80468A465D
:1053C0003846FBF798F96FF05D02FBF7DBFA07460A
:1053D000424653461191FBF701F8DDE90E23FAF737
:1053E000FDFF5A460D9BFAF7F9FF00250E465A4677
:1053F00028460D9BFBF793F8DDE90E23FBF78FF8AA
:1054000042465346FBF78BF83A46119BFBF78AF866
:10541000DFF898A0244A5346FBF787F807468846EA
:10542000234A244B31462846FBF77FF83A46434649
:10543000FAF7D4FF074688464FF0A8425346314654
:105440002846FBF772F83A464346FAF7C7FF159A23
:1054500012F0004F04D0129A81F000415242129291
:10546000C4E90001129817B0BDE8F08FFB21E93FB5
:105470007CD90240FB21F93F7370032E8A19A33BAC
:10548000000040543163621A61B4D03DFB213941C0
:1054900083C8C96D305FE43F0000E03F9422000004
:1054A00010220000F2210000182D4454FB21F93D88
:1054B0003326A611460B113C2DE9FF4D21F0004883
:1054C00007460C46B8F1795F08DAFBF783FA002843
:1054D00001BF0020324904B0BDE8F08D3A462346B2
:1054E00010461946FBF721F8054602462D480E46A0
:1054F0000B460621784400F05DF82A463346FBF758
:1055000014F8DDE9022382468B4638462146FBF734
:105510000CF804460F4652465B4628463146FBF7D8
:1055200004F822463B46FAF7FAFF07468A464FF050
:10553000FF3228463146FBF725FA1B4A90450ADA26
:105540003A465346FAF7EBFF04B00022BDE8F04DAF
:10555000134BFAF7E7BF154A4245A8BFA8F5001557
:105560004FF00004B8BF124D22462B46FAF7D7FF82
:105570000646884622462B4600200949FAF7CFFF07
:1055800004460D463A46534630464146FAF7C7FFB1
:1055900004B022462B46BDE8F04DFAF7C3BF000029
:1055A0000000F03FC81F00003333D33F0000E93F45
:1055B0000000D23F2DE9F0414F1E00EBC701044629
:1055C000D1E9000115461E4637F006020DD02A46E5
:1055D0003346FAF7AAFF7F1E04EBC703D3E9002383
:1055E000FAF7FCFE37F00602F1D1022F25D0042F86
:1055F00013D0062F18BFBDE8F0812A463346FAF7CC
:1056000094FFD4E90A23FAF7E9FE2A463346FAF76B
:105610008CFFD4E90823FAF7E1FE2A463346FAF76D
:1056200084FFD4E90623FAF7D9FE2A463346FAF76F
:105630007CFFD4E90423FAF7D1FE2A463346FAF771
:1056400074FFD4E90223FAF7C9FE2A463346FAF773
:105650006CFFD4E90023BDE8F041FAF7BFBE0000BB
:105660002DE9FF4D054621F0004084B00C46B0F115
:10567000795F0BDA2846FFF737FD042808BF00F0F2
:105680006FF8284608B02146BDE8F08D2A460B4643
:105690001046FAF74AFF06460F462A462346FAF70F
:1056A00044FF804626488A4632463B4605217844D8
:1056B000FFF780FF83461098029160B3214A224B86
:1056C00040465146FAF731FFCDE900015A464046BF
:1056D0005146029BFAF729FF82468846DDE906011A
:1056E0004FF0FF32FBF74EF952464346FAF717FFE9
:1056F00032463B46FAF719FFDDE90623FAF70FFFBA
:10570000DDE90023FAF70BFF08B02A462346BDE87F
:10571000F04DFAF707BF0B465A4630463946FAF7BE
:1057200004FF084A084BFAF759FE42465346FAF777
:10573000FCFE08B02A462346BDE8F04DFAF74EBEFF
:10574000061F0000495555555555C5BF0122FBF7A9
:1057500019B90022134610461146FAF758BF000047
:10576000024A00201107FBF70DB9000001FDFFFF01
:1057700002E008C8121F08C1002AFAD1704770471A
:10578000002001E001C1121F002AFBD17047000078
:105790000149086070470000B00000202DE9FF4F6C
:1057A0008BB09A460F460546002606E025280BD00A
:1057B00052460D9990476D1C761C28780028F5D12B
:1057C0000FB03046BDE8F08F0024A04601226049AA
:1057D00000E0044315F8013F203B02FA03F00842C1
:1057E000F7D128782E2817D115F8010F44F00404BA
:1057F0002A280ED06FF02F022878A0F13001092955
:105800000AD808EB880102EB410100EB01086D1C8E
:10581000F2E757F8048B6D1C287869283ED006DC27
:105820000028CDD063280BD0642804D136E073283B
:1058300010D075284BD052460D999047761C85E0C4
:1058400017F8040B8DF8000000208DF80100E946E0
:10585000012003E057F8049B4FF0FF3061074FF041
:10586000000401D40AE0641C44450DDA8442FADBEA
:1058700019F804100029F6D106E0641C8442FCDB10
:1058800019F804100029F8D1264404E019F8010B96
:1058900052460D999047641EF8D257E001CF4FF061
:1058A0000A0B002802DA40422D2102E0210504D52E
:1058B0002B218DF82410012103E0E10705D02021E0
:1058C000F7E70DF1200908910CE00021F9E701CF7D
:1058D0004FF00A0BF9E75946FAF776FF01F130026B
:1058E00009F8012D0028F6D1ADEB090000F1200BDD
:1058F000600701D44FF00108D84502DDA8EB0B008A
:1059000000E000208046002406E009A85246005D21
:105910000D999047641C761C08988442F5DB04E0DE
:10592000302052460D999047761CB8F10001A8F13D
:105930000108F5DC05E019F8010B52460D99904776
:10594000761CBBF10001ABF1010BF4DC6D1C34E7FC
:10595000092801000A68531C0B6010707047000092
:1059600000B5244B21F0004287B09A42DCBF0022F0
:10597000134629DD204B9A4208D140B94FF001006F
:10598000FFF706FFFFF7E5FE07B000BD03DBFFF7FB
:10599000DDFE07B000BD02AAFFF7CAFB10F003014D
:1059A00004BF0DF1080C9CE80F000DD00120012967
:1059B0000ED0022914D00DF1080C00909CE80F00C5
:1059C000FFF74EFE07B000BDFFF776FD07B000BD44
:1059D0000DF1080C00909CE80F00FFF741FE05E078
:1059E0000DF1080C9CE80F00FFF766FD07B081F091
:1059F000004100BDFB21E93F0000F07F13B54FF6E9
:105A0000FF73012269460248FEF7FEFA00981CBDAA
:105A100044020020FDF764FBFFF7A6F8FEF72CFD1B
:105A2000FEF7D8FCFEF712FEFEF7F4FDFEF72AFEA5
:105A3000FEF77CFCFEF7BAFDFEF798FDFBF756FB80
:105A4000C4B2012C03D021461FA0FCF7F1F8214677
:105A50001DA0FCF7EDF84FF47A752846FDF786F89F
:105A6000FEF732FE01231BA200211420FEF7D8FF0F
:105A7000022101231CA20846FEF7D2FFFBF754FCCB
:105A80000446012804D001461BA0FCF7D1F802E02F
:105A90001F4901200870214617A0FCF7C9F82846C5
:105AA000FDF764F8FEF710FE0221012319A2084653
:105AB000FEF7B6FF2846FDF759F8FEF705FEFEF79C
:105AC0009FFC00F042F8FEE742535020696E697473
:105AD000203A0000737461727420636F6E6E6563A8
